:020000040800F2
:10400000FFFF0120B5B200088F83000891830008EC
:10401000E98400082D850008718500080000000073
:104020000000000000000000000000005D6C0008BF
:10403000B585000800000000F16C00088B830008C3
:10404000F9B20008F9B20008F9B20008F9B20008A4
:10405000F9B20008F9B200081F8200082F82000898
:104060003F8200084F8200085D820008F9DD0008E9
:10407000F9B200081DDE0008F9B20008F9B2000824
:10408000B7850008F9B20008F9B20008F9B20008D3
:10409000F9B20008F9B20008F9B200087582000808
:1040A000F9B20008F9B20008F9B20008F9B2000844
:1040B000F9B20008F9B20008F9B20008EDDD000815
:1040C000E1DD0008F9B20008F9B20008F9B2000811
:1040D000F9B20008F9B20008F9B20008B5E6000824
:1040E000EF820008F9B20008F9B20008F9B200083E
:1040F000F9B2000891E80008F9B20008F9B2000826
:10410000F9B20008F9B20008F9B20008F9B20008E3
:10411000F9B20008F9B20008F9B2000825FF00085A
:1041200041210108F9B20008F9B20008F9B200080B
:10413000F9B20008F9B20008F9B20008F9B20008B3
:10414000F9B20008F9B20008F9B2000829C0000865
:10415000D5200108F9B2000871E500086DE50008F6
:1041600011DE000805DE0008F9B20008F9B2000807
:10417000F9B20008F9B20008F9B20008F9B2000873
:08418000F9B20008F9B20008D1
:1041880081F0004102E000BF83F0004330B54FEA00
:1041980041044FEA430594EA050F08BF90EA020F6D
:1041A8001FBF54EA000C55EA020C7FEA645C7FEA00
:1041B800655C00F0E2804FEA5454D4EB5555B8BF23
:1041C8006D420CDD2C4480EA020281EA030382EA94
:1041D800000083EA010180EA020281EA0303362D26
:1041E80088BF30BD11F0004F4FEA01314FF4801CF9
:1041F8004CEA113102D0404261EB410113F0004F0B
:104208004FEA03334CEA133302D0524263EB4303C1
:1042180094EA050F00F0A780A4F10104D5F1200E5F
:104228000DDB02FA0EFC22FA05F2801841F10001BA
:1042380003FA0EF2801843FA05F359410EE0A5F18E
:1042480020050EF1200E012A03FA0EFC28BF4CF0BF
:10425800020C43FA05F3C01851EBE37101F0004575
:1042680007D54FF0000EDCF1000C7EEB00006EEB82
:104278000101B1F5801F1BD3B1F5001F0CD349080C
:104288005FEA30004FEA3C0C04F101044FEA445263
:1042980012F5800F80F09A80BCF1004F08BF5FEAEA
:1042A800500C50F1000041EB045141EA050130BDCA
:1042B8005FEA4C0C404141EB010111F4801FA4F16D
:1042C8000104E9D191F0000F04BF01460020B1FAC2
:1042D80081F308BF2033A3F10B03B3F120020CDAFA
:1042E8000C3208DD02F1140CC2F10C0201FA0CF0D8
:1042F80021FA02F10CE002F11402D8BFC2F1200C3D
:1043080001FA02F120FA0CFCDCBF41EA0C019040F2
:10431800E41AA2BF01EB0451294330BD6FEA04043B
:104328001F3C1CDA0C340EDC04F11404C4F1200226
:1043380020FA04F001FA02F340EA030021FA04F338
:1043480045EA030130BDC4F10C04C4F1200220FA8F
:1043580002F001FA04F340EA0300294630BD21FACD
:1043680004F0294630BD94F0000F83F4801306BF93
:1043780081F480110134013D4EE77FEA645C18BF87
:104388007FEA655C29D094EA050F08BF90EA020F1E
:1043980005D054EA000C04BF1946104630BD91EA16
:1043A800030F1EBF0021002030BD5FEA545C05D119
:1043B8004000494128BF41F0004130BD14F5800458
:1043C8003CBF01F5801130BD01F0004545F0FE41CC
:1043D80041F470014FF0000030BD7FEA645C1ABF01
:1043E800194610467FEA655C1CBF0B46024650EA38
:1043F800013406BF52EA033591EA030F41F4002164
:1044080030BD00BF90F0000F04BF0021704730B5E9
:104418004FF4806404F132044FF000054FF00001BE
:1044280050E700BF90F0000F04BF0021704730B57F
:104438004FF4806404F1320410F0004548BF404254
:104448004FF000013EE700BF42004FEAE2014FEAA9
:1044580031014FEA02701FBF12F07F4393F07F4F84
:1044680081F06051704792F0000F14BF93F07F4FB6
:10447800704730B54FF4607401F0004521F00041F9
:1044880020E700BF50EA010208BF704730B54FF07F
:1044980000050AE050EA010208BF704730B511F084
:1044A800004502D5404261EB41014FF4806404F1BC
:1044B80032045FEA915C3FF4DCAE4FF003025FEA3E
:1044C800DC0C18BF03325FEADC0C18BF033202EBC6
:1044D800DC02C2F1200300FA03FC20FA02F001FA20
:1044E80003FE40EA0E0021FA02F11444C1E600BFBF
:1044F80070B54FF0FF0C4CF4E06C1CEA11541DBF72
:104508001CEA135594EA0C0F95EA0C0F00F0DEF83C
:104518002C4481EA030621EA4C5123EA4C5350EA21
:10452800013518BF52EA033541F4801143F4801372
:1045380038D0A0FB02CE4FF00005E1FB02E506F003
:104548000042E0FB03E54FF00006E1FB03569CF058
:10455800000F18BF4EF0010EA4F1FF04B6F5007F5E
:1045680064F5407404D25FEA4E0E6D4146EB0606D0
:1045780042EAC62141EA55514FEAC52040EA5E5059
:104588004FEACE2EB4F1FD0C88BFBCF5E06F1ED803
:10459800BEF1004F08BF5FEA500E50F1000041EB3A
:1045A800045170BD06F0004646EA010140EA0200E7
:1045B80081EA0301B4EB5C04C2BFD4EB0C0541EA09
:1045C800045170BD41F480114FF0000E013C00F31E
:1045D800AB8014F1360FDEBF002001F0004170BD42
:1045E800C4F10004203C35DA0C341BDC04F114045B
:1045F800C4F1200500FA05F320FA04F001FA05F2E7
:1046080040EA020001F0004221F0004110EBD370B3
:1046180021FA04F642EB06015EEA430E08BF20EADF
:10462800D37070BDC4F10C04C4F1200500FA04F382
:1046380020FA05F001FA04F240EA020001F0004114
:1046480010EBD37041F100015EEA430E08BF20EA87
:10465800D37070BDC4F1200500FA05F24EEA020ECF
:1046680020FA04F301FA05F243EA020321FA04F0FE
:1046780001F0004121FA04F220EA020000EBD370B5
:104688005EEA430E08BF20EAD37070BD94F0000FB5
:104698000FD101F00046400041EB010111F4801FE9
:1046A80008BF013CF7D041EA060195F0000F18BF9A
:1046B800704703F00046520043EB030313F4801FD6
:1046C80008BF013DF7D043EA0603704794EA0C0F90
:1046D8000CEA135518BF95EA0C0F0CD050EA4106A6
:1046E80018BF52EA4306D1D181EA030101F0004123
:1046F8004FF0000070BD50EA410606BF104619464B
:1047080052EA430619D094EA0C0F02D150EA013656
:1047180013D195EA0C0F05D152EA03361CBF104697
:1047280019460AD181EA030101F0004141F0FE4136
:1047380041F470014FF0000070BD41F0FE4141F4BA
:10474800780170BD70B54FF0FF0C4CF4E06C1CEABA
:1047580011541DBF1CEA135594EA0C0F95EA0C0F6F
:1047680000F0A7F8A4EB050481EA030E52EA03352A
:104778004FEA013100F088804FEA03334FF080554B
:1047880045EA131343EA12634FEA022245EA111578
:1047980045EA10654FEA00260EF000419D4208BF29
:1047A800964244F1FD0404F5407402D25B084FEAD6
:1047B8003202B61A65EB03055B084FEA32024FF482
:1047C80080104FF4002CB6EB020E75EB030E22BFDF
:1047D800B61A754640EA0C005B084FEA3202B6EB9F
:1047E800020E75EB030E22BFB61A754640EA5C004E
:1047F8005B084FEA3202B6EB020E75EB030E22BFDE
:10480800B61A754640EA9C005B084FEA3202B6EBDE
:10481800020E75EB030E22BFB61A754640EADC009D
:1048280055EA060E18D04FEA051545EA16754FEAFF
:1048380006164FEAC30343EA52734FEAC2025FEA1D
:104848001C1CC0D111F4801F0BD141EA00014FF0AC
:1048580000004FF0004CB6E711F4801F04BF01437D
:104868000020B4F1FD0C88BFBCF5E06F3FF6AFAE99
:10487800B5EB030C04BFB6EB020C5FEA500C50F129
:10488800000041EB045170BD0EF0004E4EEA1131AC
:1048980014EB5C04C2BFD4EB0C0541EA045170BDB3
:1048A80041F480114FF0000E013C90E645EA060EF7
:1048B8008DE60CEA135594EA0C0F08BF95EA0C0F25
:1048C8003FF43BAF94EA0C0F0AD150EA01347FF46D
:1048D80034AF95EA0C0F7FF425AF104619462CE744
:1048E80095EA0C0F06D152EA03353FF4FDAE1046A7
:1048F800194622E750EA410618BF52EA43067FF4F8
:10490800C5AE50EA41047FF40DAF52EA43057FF487
:10491800EBAE12E74FF0FF3C06E000BF4FF0010C92
:1049280002E000BF4FF0010C4DF804CD4FEA410CF6
:104938007FEA6C5C4FEA430C18BF7FEA6C5C1BD0C3
:1049480001B050EA410C0CBF52EA430C91EA030F44
:1049580002BF90EA020F0020704710F1000F91EAA1
:10496800030F58BF994208BF90422CBFD8176FEA6F
:10497800E37040F0010070474FEA410C7FEA6C5C3D
:1049880002D150EA013C07D14FEA430C7FEA6C5C44
:10499800D6D152EA033CD3D05DF8040B704700BF70
:1049A8008446104662468C461946634600E000BFBE
:1049B80001B5FFF7B7FF002848BF10F1000F01BD90
:1049C8004DF808EDFFF7F4FF0CBF012000205DF85B
:1049D80008FB00BF4DF808EDFFF7EAFF34BF0120E0
:1049E80000205DF808FB00BF4DF808EDFFF7E0FF79
:1049F80094BF012000205DF808FB00BF4DF808EDCA
:104A0800FFF7CEFF94BF012000205DF808FB00BF30
:104A18004DF808EDFFF7C4FF34BF012000205DF812
:104A280008FB00BF4FEA4102B2F1E04324BFB3F5EF
:104A3800001CDCF1FE5C0DD901F0004C4FEAC0020D
:104A48004CEA5070B2F1004F40EB830008BF20F0F1
:104A58000100704711F0804F21D113F13872BCBFAB
:104A680001F00040704741F480114FEA5252C2F100
:104A78001802C2F1200C10FA0CF320FA02F018BF49
:104A880040F001004FEAC1234FEAD32303FA0CFC9C
:104A980040EA0C0023FA02F34FEA4303CCE77FEA2B
:104AA800625307D150EA01331EBF4FF0FE4040F475
:104AB8004000704701F0004040F0FE4040F4000024
:104AC800704700BF80F0004002E000BF81F0004165
:104AD80042001FBF5FEA410392EA030F7FEA226C9C
:104AE8007FEA236C6AD04FEA1262D2EB1363C1BF2C
:104AF800D218414048404140B8BF5B42192B88BF9B
:104B0800704710F0004F40F4000020F07F4018BFBD
:104B1800404211F0004F41F4000121F07F4118BFDD
:104B2800494292EA030F3FD0A2F1010241FA03FC85
:104B380010EB0C00C3F1200301FA03F100F000436D
:104B480002D5494260EB4000B0F5000F13D3B0F135
:104B5800807F06D340084FEA310102F10102FE2AA4
:104B680051D2B1F1004F40EBC25008BF20F0010014
:104B780040EA03007047490040EB000010F4000FC2
:104B8800A2F10102EDD1B0FA80FCACF1080CB2EB55
:104B98000C0200FA0CF0AABF00EBC25052421843B4
:104BA800BCBFD0401843704792F0000F81F4000159
:104BB80006BF80F400000132013BB5E74FEA41032C
:104BC8007FEA226C18BF7FEA236C21D092EA030F98
:104BD80004D092F0000F08BF0846704790EA010F12
:104BE8001CBF0020704712F07F4F04D1400028BF3F
:104BF80040F00040704712F100723CBF00F5000021
:104C0800704700F0004343F0FE4040F40000704756
:104C18007FEA226216BF08467FEA23630146420202
:104C280006BF5FEA412390EA010F40F48000704715
:104C38004FF0000304E000BF10F0004348BF4042BB
:104C48005FEA000C08BF704743F0964301464FF0F7
:104C580000001CE050EA010208BF70474FF0000353
:104C68000AE000BF50EA010208BF704711F0004394
:104C780002D5404261EB41015FEA010C02BF844664
:104C88000146002043F0B64308BFA3F18053A3F5C3
:104C98000003BCFA8CF2083AA3EBC25310DB01FA0A
:104CA80002FC634400FA02FCC2F12002BCF1004F8E
:104CB80020FA02F243EB020008BF20F0010070471F
:104CC80002F1200201FA02FCC2F1200250EA4C0073
:104CD80021FA02F243EB020008BF20EADC707047B9
:104CE8007BB972B90029BEBF00204FF0004106E031
:104CF80008BF00281CBF6FF000414FF0FF3000F0E4
:104D08003BB882B0EC462DE9005000F005F8DDF81C
:104D180004E002B00CBC70472DE9F041069C154632
:104D280006460F46984600F029F805FB01F300FBFC
:104D38000838A5FB0023B21A434467EB0303C4E910
:104D48000023BDE8F08100BF2DE9F041069C9046A4
:104D580006460F461D4600F05FF900FB05F5A0FB6F
:104D6800082308FB0155B21A2B4467EB0303C4E977
:104D78000023BDE8F08100BF704700BF00292DE97E
:104D8800F043C0F2A6800026002BC0F29C80884623
:104D980094469E46154604460F46002B3DD18A424E
:104DA80059D9B2FA82F33BB1C3F120029F4020FAED
:104DB80002F29D4017439C40290C220CB7FBF1FEE0
:104DC800A8B201FB1E7742EA074700FB0EF3BB427D
:104DD8000AD97F190EF1FF3280F00581BB4240F2FB
:104DE8000281AEF1020E2F44FF1AA4B2B7FBF1F311
:104DF80001FB137744EA074700FB03F0B84208D9E0
:104E08007F1903F1FF3280F0F080B84240F2ED8064
:104E1800023B43EA0E43002203E08B420FD90022F3
:104E28001346341C18BF012460424FF0000565EB9F
:104E380045015840514000196941BDE8F083B3FA73
:104E480083F2002A40F086808B4202D3844500F228
:104E5800DB800123E5E712B90123B3FBF2F5B5FACC
:104E680085F000283BD1781B4FEA154E1FFA85FCC8
:104E78000122B0FBFEF8210C0EFB180741EA074798
:104E88000CFB08F3BB4207D97F1908F1FF3102D2A6
:104E9800BB4200F2BD808846FF1AA4B2B7FBFEF3FE
:104EA8000EFB137744EA07470CFB03FCBC4507D904
:104EB8007F1903F1FF3102D2BC4500F2A7800B46EF
:104EC80043EA0843ADE752426FEA060663EB430341
:104ED8005DE7404261EB41014FF0FF3654E7C0F116
:104EE800200224FA02F107FA00F385404FEA154E32
:104EF800D7401943B7FBFEF20B0C0EFB12771FFAD3
:104F080085FC43EA07430CFB02F79F4204FA00F4CE
:104F180007D95B1902F1FF3074D29F4272D9023A65
:104F28002B44DF1B89B2B7FBFEF80EFB187341EA6E
:104F380003430CFB08F79F4208D95B1908F1FF31BE
:104F48005CD29F425AD9A8F102082B44D81B48EAE0
:104F580002428EE7C2F120032CFA03F10EFA02FE98
:104F680020FA03F741EA0E0E08FA02F028FA03F1D4
:104F78004FEA1E453843B1FBF5F8030C05FB181141
:104F88001FFA8EF743EA014107FB08F38B420CFA3C
:104F980002FC09D911EB0E0108F1FF3930D28B421E
:104FA8002ED9A8F102087144C91A80B2B1FBF5F3F1
:104FB80005FB131140EA014107FB03F78F4208D9AB
:104FC80011EB0E0103F1FF3016D28F4214D9023BC8
:104FD800714443EA0843C91BA3FB0C89494509D31B
:104FE80005D000221DE79646FEE6134611E79440D9
:104FF8004445F6D2013BF4E70346EAE78846A5E7CD
:10500800C846D1E702468CE713460AE7023B57E752
:10501800A8F102082F443FE72DE9F041002B44D1C5
:105028008A42154604464FD9B2FA82F70E464FB166
:10503800C7F12003B94020FA03F602FA07F50E4338
:1050480000FA07F44FEA154E230CB6FBFEF0AFB298
:105058000EFB106143EA014307FB00F1994209D9AD
:105068005B1900F1FF3280F0EC80994240F2E98050
:1050780002382B445A1AA4B2B2FBFEF30EFB1322D9
:1050880044EA024207FB03F7974208D9521903F191
:10509800FF3180F0D880974240F2D580023B43EA46
:1050A800004000263146BDE8F0818B4247D8B3FA6C
:1050B80083F6002E48D18B4202D3824200F2CD8083
:1050C80001203146BDE8F08112B90125B5FBF2F5A2
:1050D800B5FA85F8B8F1000F77D14A1B4FEA154E9B
:1050E800AFB20126B2FBFEF0230C0EFB102143EAFF
:1050F800014107FB00F38B4207D9491900F1FF3240
:1051080002D28B4200F2BA801046C91AA4B2B1FB8F
:10511800FEF30EFB131144EA014407FB03F7A74211
:1051280008D9641903F1FF3280F08F80A74240F25A
:105138008C80023B43EA00403146BDE8F0810026FE
:1051480030463146BDE8F081C6F1200422FA04F564
:10515800B3402B4320FA04FC01FA06F721FA04F5C0
:105168004FEA134E4CEA0707B5FBFEF8390C0EFB65
:1051780018551FFA83FC41EA05450CFB08F1A942C2
:1051880002FA06F204D9ED1808F1FF3467D3A046F5
:105198006D1ABFB2B5FBFEF40EFB145547EA054184
:1051A8000CFB04FC8C4504D9C91804F1FF355CD309
:1051B8002C4644EA0844CCEB0101A4FB02239942A3
:1051C80048D344D0204600266CE7C8F1200401FAF1
:1051D80008F305FA08F520FA04F7E1404FEA154EFE
:1051E8001F43B1FBFEF63A0C0EFB16111FFA85FCA5
:1051F80042EA01430CFB06F29A4200FA08F407D986
:105208005B1906F1FF3137D29A4235D9023E2B4459
:105218009B1ABFB2B3FBFEF00EFB103347EA034301
:105228000CFB00F1994207D95B1900F1FF3221D23A
:1052380099421FD902382B445A1A40EA0646674653
:1052480050E7104616E70B4629E7134672E7B040C9
:105258009042B7D2601E002624E7304622E7A942D2
:1052680095D9A8F102081D4492E78C45A0D9023CC3
:1052780019449EE71046DFE70E46C9E7023829447D
:1052880043E700BF10F8012B11F8013B012A28BFA2
:105298009A42F7D0D01A704700F1080343604FF0E4
:1052A800FF32C360036100238260036070470023FC
:1052B8000361704743684B609A688A609A685160D6
:1052C8009960086103680133036070470A68531CDA
:1052D80030B501D1036907E000F108035C6825686F
:1052E800954201D82346F9E75A684A6091608B6075
:1052F8005960086103680133036030BD4268816802
:10530800036991608268416851605A68824204BFAB
:1053180082685A6000220261186801381860704774
:10532800064A13681968064B11B94FF0FF3203E0BB
:105338001268D268D26852681A607047AC060020BA
:105348005007002010B50E4B1A6850600D4A1268BD
:105358009042044607D20C4A10681968BDE810400C
:105368000431FFF7B3BF094A106819680431FFF721
:10537800ADFF074B1A68944238BF1C6010BD00BFD0
:105388004C070020580700205C070020AC060020CE
:10539800500700202DE9F84F0A9E0C9C0F46154631
:1053A8009A46814628B96748674940F22D2205F098
:1053B80093FD052E05D96548634940F22E2205F074
:1053C8008BFD3CB9A80001F01BFB8346002800F0C8
:1053D800B48000E0A3465C2001F012FB044688B1CB
:1053E800AD002A46C0F830B0A521584612F00FF992
:1053F800236B043D1D4425F007057B1E04F1330291
:10540800093705E0584601F099FB96E0BB4206D003
:1054180013F8011F02F8011F19780029F6D1052E8B
:105428004FF0000BB04604F1040728BF4FF0050801
:10543800384684F83DB0C4F82C80C4F84880C4F8D5
:105448004CB0FFF734FF04F11800FFF730FFC8F144
:105458000603A361C4F854B024616462C4F850B070
:1054680084F858B028464946524601F0E1FB0B9BA8
:10547800206003B11C6001F0FDFB354A354D13680F
:10548800DFF8F890013313602B683BBB2C6012687F
:10549800012A2BD1984609EB080008F11408FFF7F8
:1054A800FBFEB8F1780FF6D1DFF8D4A0DFF8D4808E
:1054B8005046FFF7F1FE4046FFF7EEFE2648FFF79D
:1054C800EBFE2648FFF7E8FE2548FFF7E5FE254BEB
:1054D800C3F800A0244BC3F8008007E0234B1B68E7
:1054E80023B92B68DB6AB34298BF2C60204A214954
:1054F800136801331360E26A23640B68012404FA19
:1055080002F0034314200B6000FB02903946FFF7BA
:10551800D1FE01F0D1FB154B1B685BB12B68DB6A30
:10552800B34207D2144B4FF080521A60BFF34F8F2B
:10553800BFF36F8F2046BDE8F88F4FF0FF30BDE80E
:10554800F88F00BF1978010800780108247801084D
:10555800780700204C0700206007002098060020EC
:1055680090070020AC0600205C070020B006002051
:1055780074070020A407002004ED00E0D0060020F6
:10558800B80600207C0700201FB500240094019471
:10559800029403941648174996222346FFF7FAFE09
:1055A800012818D101F056F8012814D14FF05F03F3
:1055B80083F31188BFF36F8FBFF34F8F0E4B4FF0FC
:1055C800FF321A600D4B18600D4B1C6004B0BDE82B
:1055D800104001F0DDBB40B90A480B4940F2516266
:1055E80004B0BDE8104005F077BC04B010BD00BFA2
:1055F80081590008D878010850070020B00600201B
:1056080058070020DD78010800780108024A13686D
:1056180001331360704700BF54070020014B18681E
:10562800704700BF580700202DE9F047394B3A4A28
:1056380019681160394A1268002A3AD11A68013289
:105648001A601F68A7B9364C23681B682BB1354808
:10565800354940F2AA7205F03FFC344B22681968BC
:1056680021601A60324A136801331360FFF758FE4D
:10567800304EDFF8D0803368DFF8CC909F424FF08F
:1056880000040BD3264B1A681268002A37D01B680F
:10569800DB68DD686B689F4211D23360D9F800304F
:1056A800DA6A1423534358F80330022B28BF012425
:1056B80028E0214A136801331360002422E005F131
:1056C800040A5046FFF71AFEAB6A1BB105F1180031
:1056D800FFF714FE1948E96A026801238B40134357
:1056E8000360142000FB01805146FFF7E3FDD9F861
:1056F8000030EA6ADB6A9A4228BF0124C2E74FF009
:10570800FF33CAE70E4B1B68002B18BF0124204645
:10571800BDE8F08758070020080000E05407002083
:10572800AC060020E5780108007801085C07002035
:105738004807002050070020CC060020A4070020BE
:10574800A8070020D00600204C07002070B52E4C7A
:1057580023682BB92D482E4940F28E6205F0BCFB18
:1057680001F088FA2368013B236023680BB1002409
:1057780045E0284B1B68002BF9D0274B1A680AB361
:10578800DB68DC68261D04F11800FFF7B7FD30461A
:10579800FFF7B4FD2149E26A0B68012505FA02F01A
:1057A80003430B601E4B142000FB02303146FFF709
:1057B80081FD1C4BE26A1B68DB6A9A4224BF1A4BC4
:1057C8001D60DAE7194C2368ABB9174B1C68012C2C
:1057D800CDD1174B4FF080521A60BFF34F8FBFF3F4
:1057E8006F8F0CE0FFF720FF10B10F4B01221A60FA
:1057F8002368013B23602368002BF3D1E5E701F020
:105808005BFA204670BD00BF5407002010790108DC
:10581800007801087807002060070020A40700200E
:10582800D00600204C070020A8070020CC06002046
:1058380004ED00E038B50C46054628B92548264948
:1058480040F23F3205F048FB2CB9244822494FF476
:10585800507205F041FB224B1B682BB121481E49B1
:1058680040F2413205F038FBFFF7D0FE1E4B2A68A4
:105878001B689342144402D2944207D201E0944236
:1058880006D39C4294BF0023012302E0002300E0DA
:1058980001232C608BB1154D28680430FFF72EFDCD
:1058A80040B92B681249D86A0A680123834022EA62
:1058B80003030B602046FFF745FDFFF747FF38B9A4
:1058C8000C4B4FF080521A60BFF34F8FBFF36F8FAE
:1058D80038BD00BF2579010800780108387901082A
:1058E8005407002087780108580700204C0700203B
:1058F800A407002004ED00E038B5044640B9174B72
:105908004FF080521A60BFF34F8FBFF36F8F38BDCF
:10591800134B1B682BB11348134940F2A33205F00F
:10592800DBFAFFF773FE114D114B1B682868043032
:105938001C44FFF7E3FC40B92B680E49D86A0A6893
:105948000123834022EA03030B602046FFF7FAFC99
:10595800FFF7FCFE0028D2D038BD00BF04ED00E000
:105968005407002087780108007801084C070020B8
:1059780058070020A407002008B5124C2368F3B18B
:10598800114DFFF743FE2E68FFF7E0FE002EF4D01E
:1059980001F070F9EB68DD68281DFFF7AFFC0B4AD2
:1059A8001368013B13602368013B236001F084F90D
:1059B800286B01F0C3F8284601F0C0F8DDE703F0D2
:1059C800BDFBDAE7B406002098060020780700201F
:1059D80038B50D46044608B9044B1C6801F04AF96D
:1059E8002565BDE8384001F067B900BF4C070020C5
:1059F80038B5184B1A68184B0AB1012228E01A600A
:105A0800164B1C68B4FA84F4E4B2C4F11F041423DE
:105A1800134D6343EB582BB91248134940F6C8029B
:105A280005F05AFA142202FB04F3E918083348680F
:105A3800406848602B44984204BF43684B6002FBAF
:105A480004546368DA68094B1A601B685A6B084B80
:105A58001A6038BD54070020A8070020A4070020BA
:105A6800D006002050790108007801084C07002072
:105A7800040000E070B50D46064628B914481549DB
:105A880040F6DA0205F028FA134C2168304618313E
:105A9800FFF71CFC20680430FFF730FC40B923688E
:105AA8000E49D86A0A680123834022EA03030B607F
:105AB8006B1C06D121680A480431BDE87040FFF725
:105AC800F9BB084B18682844BDE87040FFF73ABC9A
:105AD80097790108007801084C070020A4070020E6
:105AE8009007002058070020F8B50D4616460746CF
:105AF80028B91548154940F6591205F0EDF9144C26
:105B0800216838461831FFF7D5FB20680430FFF7C5
:105B1800F5FB40B923680F49D86A0A680123834016
:105B280022EA03030B60012E06D121680A480431DA
:105B3800BDE8F840FFF7BEBB084B18682844BDE82D
:105B4800F840FFF7FFBB00BF97790108007801080C
:105B58004C070020A40700209007002058070020C9
:105B680038B5C368DC682CB91648174940F6B41232
:105B780005F0B2F904F118052846FFF7BFFB134BEF
:105B88001B687BB9251D2846FFF7B8FB1048E16A5A
:105B9800026801238B40134303600E4B142000FB63
:105BA800013000E00C482946FFF784FB0B4BE26A02
:105BB8001B68DB6A9A4283BF094B012018600020EA
:105BC80038BD00BFBD7901080078010854070020DE
:105BD800A4070020D0060020600700204C07002002
:105BE800A807002010B5044628B90648064940F61B
:105BF800142205F071F9054B1B682360044B1B68E0
:105C0800636010BDEC79010800780108480700209E
:105C18005807002038B50D46044628B915481649D6
:105C280040F61E2205F058F92DB91448124940F6DD
:105C38001F2205F051F901F01DF8114B19682B6866
:105C48005A1C10D00F4A106822689042626801D02E
:105C580091420AD2881A984207D2521A13442B60EA
:105C68002046FFF7BFFF002400E0012401F024F8DC
:105C7800204638BDEC79010800780108F67901085A
:105C88005807002048070020014B01221A6070477E
:105C9800A8070020054B1B6833B1054B1B68002B78
:105CA8000CBF02200020704701207047B00600207A
:105CB800540700202DE9F0410446002838D01D4D36
:105CC800C36A2A68D26A934232D282691A4E002A7B
:105CD800A1BF2A68D26AC2F106028261142742690A
:105CE80007FB03639A4220D100F104084046FFF7FE
:105CF80005FB124B48B9E06A4743F2592AB91968BB
:105D08000122824021EA02021A602A68D26AE2620B
:105D180001201C68904020431860142000FB02609A
:105D28004146BDE8F041FFF7C5BA2B68DB6AC3629C
:105D3800BDE8F0814C070020D0060020A407002011
:105D480070B5044608B9002070BD204B1B68984206
:105D580005D01F481F4940F6A75205F0BDF8E36C6F
:105D68002BB91D481B4940F6A95205F0B5F8E36C5C
:105D7800E16AA26C013B9142E364E4D0002BE2D1DA
:105D8800251D2846FFF7BAFA1449154A50B9E66A9C
:105D980014237343CB582BB910680123B34020EA6E
:105DA80003031360A36CE362C3F10600A0611068EB
:105DB800012404FA03F630431060142000FB03109A
:105DC8002946FFF777FA204670BD00BF4C07002030
:105DD800047A0108007801081A7A0108D006002020
:105DE800A4070020044B1A681AB11968CA6C01325A
:105DF800CA641868704700BF4C07002038B51546BC
:105E0800026C044632B9056845BB4068FFF798FF45
:105E1800656024E06DB9806811F0EEFBA268236C20
:105E280013446268A360934218D32368A36028468A
:105E380015E0C06811F0E0FB236CE26821685B4262
:105E48001A448A42E2603EBF62689B18E360022DF2
:105E580004D1A36B13B1A36B013BA3630020A36B15
:105E68000133A36338BD10B5026C03466AB1C46838
:105E78001444C4604068844224BF1868D860BDE8F0
:105E880010400846D96811F0B7BB10BD10B50446DC
:105E980000F0F0FEA36C002B0CDD636A53B104F133
:105EA8002400FFF75DFE08B1FFF7EEFEA36C013B8F
:105EB800A364EFE74FF0FF33A36400F0FDFE00F0AA
:105EC800D9FE636C002B0CDD236953B104F110007B
:105ED800FFF746FE08B1FFF7D7FE636C013B63642A
:105EE800EFE74FF0FF336364BDE8104000F0E4BE15
:105EF80038B50D46044628B91A481B494FF4847230
:105F080004F0EAFF00F0B6FE216CE36B2268A260A1
:105F18004B43D0185B1A13446060E36000204FF0D5
:105F2800FF33A0636364A36485B92369B3B104F143
:105F38001000FFF715FE012810D10C4B4FF08052CE
:105F48001A60BFF34F8FBFF36F8F07E004F11000A3
:105F5800FFF7A2F904F12400FFF79EF900F0ACFE68
:105F6800012038BD7B7A0108837A010804ED00E03E
:105F7800F8B50D461746064628B91448144940F2A4
:105F8800431204F0A9FF1DB105FB06F0013000E043
:105F98002846543000F034FD044670B10DB9206035
:105FA80002E000F154030360E66325642046012102
:105FB800FFF79EFF84F8507005E00648044940F258
:105FC8007F1204F089FF2046F8BD00BF9C7A0108C3
:105FD800837A0108DD7801082DE9FF410F46019217
:105FE8001E46044628B95948594940F2672204F028
:105FF80073FF1FB9236C002B40F09080022E03D151
:10600800E36B012B40F09180FFF744FE18B9019B28
:10601800002B40F091804FF0000800F02BFEA26B9F
:10602800E36B9A4201D3022E1FD1E36C494A43F431
:1060380080731360204639463246FFF7DFFE636AF5
:1060480033B104F12400FFF78BFD012809D100E0EA
:1060580038B1414B4FF080521A60BFF34F8FBFF3F6
:106068006F8F00F029FE01206DE0019D15B900F049
:1060780023FE4CE0B8F1000F02D102A8FFF7B2FDF1
:1060880000F01AFEFFF7C2FA00F0F4FD636C01336A
:1060980004BF00236364A36C013304BF0023A3641B
:1060A80000F00AFE02A801A9FFF7B4FD50BB00F0FA
:1060B800E1FDD4F83880E56B00F0FEFDA8451BD162
:1060C800E36C244A43F48063136004F110000199DF
:1060D800FFF7D0FC2046FFF7D9FEFFF737FB10B1DA
:1060E8004FF0010899E71C4B4FF080521A60BFF33C
:1060F8004F8FBFF36F8FF3E72046FFF7C7FEFFF719
:1061080025FBEDE72046FFF7C1FEFFF71FFBE36C19
:10611800104A43F400731360002014E00F480C4940
:106128004FF41A7204F0D8FE68E70D48084940F2A7
:10613800692204F0D1FE67E70A4805494FF41B724B
:1061480004F0CAFE67E704B0BDE8F0817B7A010875
:10615800837A01080C0000E004ED00E0BE7A010833
:106168000E7B0108557B010870B50646542000F0E7
:1061780047FC0446D8B101230025C3634FF0FF3321
:10618800856345604364056083648560C560056414
:1061980080F850601030FFF77FF804F12400FFF713
:1061A8007BF8204629462A462B46FFF715FF20464E
:1061B80070BD00002DE9F0410E4690461D4604468C
:1061C80028B92748274940F2244204F085FE0EB931
:1061D800236C9BBB022D02D1E36B012B35D100F060
:1061E80049FEEFF311874FF05F0383F31188BFF384
:1061F8006F8FBFF34F8FA26BE36B9A4201D3022DCF
:106208001AD1204631462A46FFF7F8FDA36C013320
:106218000DD1636A73B104F12400FFF7A1FC48B102
:10622800B8F1000F06D00120C8F8000014E0A36CF4
:106238000133A36401200FE000200DE00A4809495A
:1062480040F2254204F048FEC4E70848054940F2F8
:10625800264204F041FEC2E787F31188BDE8F081C9
:106268007B7A0108837A0108BE7A01080E7B01084F
:1062780070B50D46044628B92148224940F2BF426C
:1062880004F02AFE236C2BB11F481E4940F2C3427A
:1062980004F022FE23680BB963683BBB00F0EAFDFB
:1062A800EFF311864FF05F0383F31188BFF36F8F0D
:1062B800BFF34F8FA26BE36B9A4215D2A36B0133E6
:1062C800A363A36C01330AD1636A5BB104F12400B0
:1062D800FFF746FC30B12DB1012028600DE0A36C1A
:1062E8000133A364012008E0002006E007480549BF
:1062F8004FF4996204F0F0FDD0E786F3118870BD81
:106308007B7A0108837A0108AB7B0108C47B01080A
:106318002DE9FF410E4601929846044628B9564891
:10632800564940F25B5204F0D7FD1EB9236C002B8E
:1063380040F09080FFF7AEFC18B9019B002B40F0AD
:106348009080002700F096FCA36B63B3204631468B
:10635800E568FFF788FDB8F1000F10D1A36B013B8A
:10636800A363236813B9FFF73DFD60602369B3B1E8
:1063780004F11000FFF7F4FB012810D107E0636A6D
:10638800E56063B104F12400FFF7EAFB38B13C4B48
:106398004FF080521A60BFF34F8FBFF36F8F00F03A
:1063A8008BFC012064E0019D15B900F085FC4FE0ED
:1063B80017B902A8FFF716FC00F07EFCFFF726F9D4
:1063C80000F058FC636C013304BF00236364A36CC2
:1063D800013304BF0023A36400F06EFC02A801A9E6
:1063E800FFF718FC78BB00F045FCA56B00F064FCD7
:1063F8001DBBE36C234A43F440731360236833B92D
:1064080000F038FC6068FFF755FC00F055FC04F11B
:1064180024000199FFF72EFB2046FFF737FDFFF711
:1064280095F908B101278DE7154B4FF080521A6096
:10643800BFF34F8FBFF36F8FF4E72046FFF726FDBA
:10644800FFF784F9EEE72046FFF720FDFFF77EF916
:1064580000200DE00C48094940F25C5204F03CFD74
:1064680068E70A48054940F25F5204F035FD68E7DD
:1064780004B0BDE8F08100BF7B7A0108837A010887
:1064880004ED00E00C0000E01F7C0108557B0108CA
:10649800F8B50E461746044628B91D481D4940F26E
:1064A800156204F019FD0EB9236C3BBB00F0E2FC49
:1064B800EFF311854FF05F0383F31188BFF36F8FFC
:1064C800BFF34F8FA06B00B320463146FFF7CBFCDC
:1064D800A36B013BA363636C01330AD123695BB1EE
:1064E80004F11000FFF73CFB30B12FB101203860F8
:1064F8000BE0636C01336364012006E0064805493C
:1065080040F2166204F0E8FCD0E785F31188F8BD84
:106518007B7A0108837A01081F7C010810B50446BC
:1065280028B9064806494FF4D46204F0D5FC00F0B7
:10653800A1FBA46B00F0C0FB204610BD7C7A0108CB
:10654800837A010830B50023064A52F8335002EB2B
:10655800C3041DB942F83310606030BD01330A2B03
:10656800F2D130BD8891002070B504460E4615461C
:1065780000F080FB636C013304BF00236364A36CE9
:10658800013304BF0023A36400F096FBA36B2BB96F
:1065980004F1240031462A46FFF7A6FA2046BDE852
:1065A8007040FFF773BC0000F8B5134C00F062FBB5
:1065B8002568EDB9114F124E3846FEF76DFE30468C
:1065C800FEF76AFE0F4B1F600F4B14200C212A4662
:1065D8001E60FFF7CDFC206028B90C480C4940F23A
:1065E8001A3204F079FC206810B10A49FFF7AAFFB3
:1065F800BDE8F84000F060BBDC070020B0070020D1
:10660800C4070020AC070020E0070020837C0108B5
:106618008F7C0108A97C010810B5044691424160AD
:10662800206105D8D21A83699A420CD2074B04E03C
:106638009A4201D2994206D2054B1868211DFEF7ED
:1066480045FE002010BD012010BD00BFE00700205E
:10665800AC0700201FB5FFF7A7FF0D4B1B683BB920
:106668000C480D494FF4877204F036FC00200CE00A
:1066780001230093002301930293039307480849D9
:106688009622FEF787FE0028EAD005B05DF804FBE5
:10669800DC070020DD7801088F7C0108DD67000831
:1066A800AE7C01082DE9F041804617461E460D468E
:1066B80089B12C2000F0A4F9044698B1FFF774FFC3
:1066C800069BC4F80080A561E76126626362201D0D
:1066D800FEF7EDFD06E0054805494FF49B7204F00E
:1066E800FBFB2C462046BDE8F08100BFB67C0108C4
:1066F8008F7C01082DE9FF410D4690461F4606464E
:1067080028B91348134940F2411204F0E5FB124C32
:106718002068C8B1052D0195CDF8088003960EDCD8
:10672800FFF7B8FA022818BF0022206808BF0A9AA3
:1067380001A90CBF00231346FFF74EFC04E001A992
:106748003A460023FFF736FD04B0BDE8F08100BFEC
:10675800D27C01088F7C0108DC070020F7B5194DB1
:106768002B681A683AB3DB68DC681E68271D384650
:10677800FEF7C4FD636A20469847E369012BEED112
:10678800A3693344B34206D9636024612868394653
:10679800FEF79CFDE3E700210091204632460B46B8
:1067A800FFF7A8FF0028DAD1074808494FF43F72DD
:1067B80004F092FBD3E7064A11682960136003B01E
:1067C800F0BD00BFAC070020D97C01088F7C010810
:1067D800E00700202DE9F04786B0DFF8ACA1DAF831
:1067E80000301C68B4FA84F464091CB9DB68D3F877
:1067F800008001E04FF000085C4DFEF707FFFEF750
:106808000DFF2B68984281462F4603D2FFF7A6FF5B
:10681800012300E00023C5F80090554E002B42D11B
:1068280044BBC8452DD8FEF791FFDAF80030DB6885
:10683800DD68281DFEF762FDEB69012B16D1A969F9
:10684800284641444A464346FFF7E6FE01280DD153
:1068580000942846214642462346FFF74BFF28B9B5
:106868004448454940F2931204F036FB6B6A2846C7
:1068780098471EE0414B1B681C68B4FA84F2520921
:1068880000E022463068C9EB0801FFF76DFEFEF70D
:106898005DFF70B93A4B4FF080521A60BFF34F8FCB
:1068A800BFF36F8F05E0FEF751FF02E0039B002B5B
:1068B80008DA0022306803A91346FFF729FD0028EB
:1068C800F4D18AE7059C636913B1201DFEF716FD14
:1068D800FEF7A4FE3B689842054601D2FFF73EFF4B
:1068E800039A3D60092AE4D80123934013F40478FD
:1068F8002AD113F0C70F05D19B06DAD5204600F040
:106908001DF9D6E7049BA169204619442A46FFF7DA
:1069180083FE0128CDD1636A20469847E369012B9D
:10692800C7D1A269049BCDF800801A44204641468D
:106938004346FFF7DFFE0028BBD10E480E494FF44F
:10694800287204F0C9FAB4E7049BA3612BB90D4877
:10695800094940F2B72204F0BFFAA1692046294448
:106968002A462B46FFF758FEA3E700BFD8070020AA
:10697800DC070020D97C01088F7C0108E007002093
:1069880004ED00E0E17C0108AC07002010B50446E6
:1069980028B9064806494FF4537204F09DFA00F0EE
:1069A80069F9246A00F088F9204610BDD27C0108F4
:1069B8008F7C010810B5104B1A68824201D2134629
:1069C800FAE759685C18844201BF406809181846FC
:1069D800596041684418944209D1084C2468A2427D
:1069E8001FBF5268891841601A6818BF1268026090
:1069F800834218BF186010BDEC070020E80700208C
:106A08002DE9F8430446FEF701FE4249424D0B6862
:106A1800FBB9424A424E50071FBF0732414B22F092
:106A280007029B1A08BF47F230531344083B23F070
:106A38000703002070603260586018600B60981A75
:106A48001360394B50601860384B18604FF00043A2
:106A58002B602B681C424BD1002C47D008346207AE
:106A68001CBF24F007040834002C3FD02F4B1A68B1
:106A7800944298463CD82A4B1E687268A24203D3B7
:106A88000A68964206D133E03268002AF8D03346C5
:106A98001646F2E732681F681A6073681B1B102BD2
:106AA80007F1080711D906EB040919F0070F04D0FC
:106AB8001F482049E82204F00FFA73681B1BC9F825
:106AC800043048467460FFF775FF17497268D8F8B4
:106AD800003008689B1A8342C8F8003038BF0B6042
:106AE8002B681A4300237260336002E0274600E0F7
:106AF8000027FEF72BFE0FB902F0ACF97B0705D093
:106B08000D480C494FF4947204F0E6F93846BDE894
:106B1800F88300BFE8070020247D0020F407002048
:106B2800EC070020247D0020287D0020E4070020B9
:106B3800067D0108477D0108727D010838B50446C5
:106B480088B3194B50F8042C196811421D4605D119
:106B5800164817494FF49E7204F0BEF954F8083CE1
:106B68002BB11448124940F23D1204F0B5F954F81B
:106B7800043C2A681A4216D054F8081C99B923EA2A
:106B8800020344F8043CFEF741FD0B4A54F8041C88
:106B98001368A4F108000B441360FFF70BFFBDE86E
:106BA8003840FEF7D3BD38BD247D0020AF7D0108F5
:106BB800477D0108E07D0108E4070020014B1868C3
:106BC800704700BFE407002006480068006880F3AB
:106BD800088862B661B6BFF34F8FBFF36F8F00DFCF
:106BE80000BF000008ED00E0DFF80C00016841F488
:106BF800700101607047000088ED00E008B5094B9E
:106C08001B68013305D00848084940F2071204F010
:106C180063F94FF05F0383F31188BFF36F8FBFF3FE
:106C28004F8FFEE700000020007E01081A7E010851
:106C38004FF0807300E90A00054B40F80C3C6FF0F8
:106C4800020340F8202C40F8243C4438704700BF29
:106C5800056C0008064B19680868B0E8F04F80F327
:106C68000988BFF36F8F4FF0000080F311887047D9
:106C78004C0700204FF05F0383F31188BFF36F8F39
:106C8800BFF34F8F084A13680133012B13600AD1F1
:106C9800064B1B6813F0FF0F05D00548054940F265
:106CA8009F1204F019B970470000002004ED00E0BD
:106CB800647E01081A7E010810B5084C23682BB9B8
:106CC800074808494FF4D37204F006F92368013BDA
:106CD80023600BB983F3118810BD00BF00000020AA
:106CE800997E01081A7E0108EFF30980BFF36F8FC0
:106CF800144B1A681EF0100F08BF20ED108A20E907
:106D0800F04F10604DF8043D4FF05F0080F311889C
:106D1800BFF34F8FBFF36F8FFEF76AFE4FF000008F
:106D280080F3118808BC19680868B0E8F04F1EF0B5
:106D3800100F08BFB0EC108A80F30988BFF36F8F7B
:106D4800704700BF4C07002008B5EFF311834FF0E0
:106D58005F0282F31188BFF36F8FBFF34F8FFEF787
:106D680063FC18B1034B4FF080521A60002383F381
:106D7800118808BD04ED00E0034B044A1A6007229D
:106D880043F8042C704700BF14E000E03F90020075
:106D980013B52C4B2C4A196891421C4605D12B4837
:106DA8002B4940F23D1204F097F82268294B9A4289
:106DB80005D1294826494FF49F7204F08DF8274BD6
:106DC8001A78D2B20192FF221A701B78244ADBB2D9
:106DD8008DF803309DF8033003F05F031370214AE8
:106DE800072313609DF80310090603F1FF3007D548
:106DF8009DF803305B00DBB28DF803300346F1E702
:106E08001B0203F4E0631360019B144ADBB21370A6
:106E1800154B1A6842F47F021A601A6842F07F42E2
:106E28001A60FFF7A9FF114B00221A60FFF7DCFE7A
:106E38000F4A136843F040431360FFF7C5FEFFF79E
:106E4800DDFE00BF00ED00E071C20F41AB7E01081E
:106E58001A7E010870C20F41CE7E010800E400E0EE
:106E68002C7D0020307D002020ED00E00000002077
:106E780034EF00E008B5EFF305830F2B0BD90E4A6A
:106E88009B5C0E4A12789A4205D90D480D494FF479
:106E9800387204F021F80C4B0C4A1B68126803F492
:106EA800E063934207D90A4806494FF43C72BDE8AB
:106EB800084004F011B808BDF0E300E02C7D002084
:106EC800F17E01081A7E01080CED00E0307D0020FB
:106ED8001B7F010808B54FF48070012100F05CFCAD
:106EE8004FF480700021BDE8084000F055BC000058
:106EF800436823F040720B6822F4807213430A79C6
:106F080043EA022343600B69CA681A438B6810B5C9
:106F18001A438468084B234013434A7943EA4203DF
:106F28008360C36A23F470020B7D013BDBB242EA43
:106F38000353C36210BD00BFFDF7FFC00023036009
:106F4800037143718360C360036101230375704754
:106F580010B5074C074B6268134090E806001143D0
:106F680082681143C2680A431343636010BD00BFBF
:106F780000230140E030FCFF00230360436083608E
:106F8800C3607047836811B143F0010301E023F047
:106F9800010383607047092970B50CD9A1F10A046F
:106FA800C66804EB44040725A54026EA0505A34066
:106FB8002B43C36009E0056901EB41060724B4408F
:106FC80025EA0404B34023430361062A0BD8013A97
:106FD800446B02EB82021F23934024EA030391408F
:106FE8001943416370BD0C2A0BD8073A046B02EBB6
:106FF80082021F23934024EA03039140194301634B
:1070080070BD0D3AC46A02EB82021F23934024EA42
:10701800030391401943C16270BD836843F0804304
:1070280083607047C06C80B270470368194214BF10
:107038000120002070470000044BDA6809B11043B2
:1070480001E022EA0000D860704700BF002004E099
:10705800036823F001030360002303604360836037
:10706800C360036121234361294B984217D0294B00
:1070780098421BD0284B984220D0284B984225D0C4
:10708800274B98422AD0274B98422ED0264B98421D
:1070980032D0264B984236D0254B984203D13D2218
:1070A80043F8082C7047234B984204D14FF474627C
:1070B80043F8202C7047204B984204D14FF47412A7
:1070C80043F8382C70471D4B984204D14FF0746236
:1070D80043F8502C70471A4B984203D1194A43F889
:1070E800642C7047184B984203D1184A43F87C2CFB
:1070F8007047174B984203D1164A43F8942C7047AF
:10710800154B984203D14FF03D5243F8AC2C7047D1
:10711800106002402860024040600240586002400F
:107128007060024088600240A0600240B86002407F
:1071380010640240286402404064024058640240DF
:10714800706402403D00002088640240400F002027
:10715800A064024000003D20B86402400268134B5E
:1071680010B51340CC680A6814434A6914438A6905
:107178001443CA6914430A6A14434A6A14438A6A5C
:1071880014434A6B14438A6B2243134303604369D5
:107198000C6B23F00702CB6A2343134343610B694B
:1071A80043604B6883608B68C36010BD3F801CF0F0
:1071B800036811B143F0010301E023F00103036008
:1071C800704741607047406880B27047006800F0BF
:1071D8000100704710B50A4B0A4A0B4CA04294BFF5
:1071E800184610468B004CBF4368036821F0F02115
:1071F80021F08211194214BF0120002010BD00BFE8
:1072080000600240006402400F64024010B5084A62
:10721800084B094CA04294BF1846104611F0005F75
:1072280021F0F02121F0821114BFC160816010BDEE
:1072380000640240006002400F6402400B0611D552
:1072480043694AB143F080038029436114D003683D
:1072580001F01E0119430EE023F0800380294361E9
:1072680004D17047802907D0002AF0D1036801F0C3
:107278001E0123EA0101016070470000104A114B0A
:1072880010B5114CA04294BF1C46144621F0F023BF
:1072980023F0C3122AB1006800F01E0000EAD122D0
:1072A80002E0406900F0800289004CBF60682068F5
:1072B80023F08213184002D0101C18BF012010BD03
:1072C80000640240006002400F64024010B5084AA2
:1072D800084B094CA04294BF1846104611F0005FB5
:1072E80021F0F02121F0821114BFC160816010BD2E
:1072F80000640240006002400F640240837910B5C8
:107308000468002B31D01E4B196821EA04021A6068
:107318005A68016822EA01025A600279016802F19A
:10732800804202F59E321468214311609A68016810
:1073380022EA01029A60DA68016822EA0102DA6048
:1073480042790168102A0BBF9A6802F18043114301
:1073580003F59E3303BF9960D96802681A680BBFAA
:107368000A431143DA60196010BD037903F18043C1
:1073780003F59E331A6822EA04021A6010BD00BFA2
:10738800003C0140014B5861704700BF003C014080
:10739800034B5B69184214BF01200020704700BFEF
:1073A800003C0140014B5861704700BF003C014060
:1073B800F0B5002201230C6893401C409C4229D15F
:1073C800550003230668AB40DB431E4006600E7978
:1073D8000768AE403E4306600E79013E012E11D883
:1073E80086681E4086604E798768AE403E43866058
:1073F800466826EA040444608C7946689440A4B23E
:1074080034434460C4682340C360CB79C468AB404C
:107418002343C3600132102ACCD1F0BD4FF6FF736D
:1074280003600023037143718371C371704703695B
:10743800194214BF0120002070470183704741831F
:1074480070470AB1018370474183704710B501F056
:107458000703C90800EB81009B00046A0F219940CB
:1074680024EA01010162016A9A401143016210BDD8
:1074780008B5134B984207D14FF40010012100F0D2
:107488007FF94FF4001014E00E4B984207D14FF4E7
:107498008000012100F074F94FF4800009E00A4BE4
:1074A80098420BD14FF40000012100F069F94FF424
:1074B80000000021BDE8084000F062B908BD00BF27
:1074C8000054004000580040005C00407FB58688AA
:1074D80026F03F060446360468460D46360C00F092
:1074E800DBF8029A2C48B2FBF0F081B20E43A6807A
:1074F80023882A4E23F001031B041B0C23802B68CE
:10750800B3420AD85B000131B2FBF3F39BB2032B01
:1075180089B298BF0423218423E0EE884BF6FF71DB
:107528008E421BBF19214B4303EB4303B2FBF3F31A
:1075380015BF9BB2B2FBF3F343F480439BB2C3F392
:107548000B020AB943F001034FF4967101FB00F2F4
:107558004FF47A7192FBF1F2013292B243F4004394
:107568002284A38323889BB243F0010323802388CA
:107578006989AA8823F4816323F002031B040A4360
:107588001B0C13439BB223802A89AB8913439BB2FC
:10759800238104B070BD00BF40420F00A0860100E7
:1075A80012B141F0010101E001F0FE0189B201824E
:1075B8007047038819B19BB243F4806303E023F456
:1075C80080631B041B0C0380704701827047008A8C
:1075D800C0B27047838819B19BB243F4006303E0DB
:1075E80023F400631B041B0C83807047838819B144
:1075F8009BB243F4805303E023F480531B041B0C19
:107608008380704783889BB20AB1194301E023EA5B
:1076180001018180704782B00023009301930B0F12
:1076280001900093009B21F07F4113B1019B14331B
:1076380002E0019B090C18330193019B1B68194256
:1076480014BF0120002002B07047C94389B281826B
:1076580070470000014B1860704700BF00300040C1
:10766800014B5860704700BF00300040014B9860E4
:10767800704700BF00300040024B4AF6AA221A6049
:10768800704700BF00300040024B4CF6CC421A60F5
:10769800704700BF0030004010B51D4A936803F0E2
:1076A8000C03042B03D0082B03D01A4B18E01A4BF9
:1076B80016E05168536811F4800F03F03F035168D6
:1076C80014BF154A134AB2FBF3F3114A5268C2F3C6
:1076D8000142C1F3881101324B435200B3FBF2F36C
:1076E8000B4A036093680D49C3F30313CC5C03682A
:1076F800E34043609468C4F382240C5D23FA04F4E5
:1077080084609268C2F342328A5CD340C36010BD81
:10771800003802400024F40000127A00040000201F
:10772800044B1A6B09B1104301E022EA0000186308
:10773800704700BF00380240044B5A6B09B1104330
:1077480001E022EA00005863704700BF0038024099
:10775800044B1A6C09B1104301E022EA00001864D6
:10776800704700BF00380240044B5A6C09B11043FF
:1077780001E022EA00005864704700BF0038024068
:10778800044B1A6A09B1104301E022EA00001862AA
:10779800704700BF00380240044B5A6A09B11043D1
:1077A80001E022EA00005862704700BF003802403A
:1077B8004209012A074B01D11B6803E0022A0CBFCA
:1077C8001B6F5B6F00F01F0023FA00F000F0010050
:1077D800704700BF00380240024A536F43F080737D
:1077E800536770470038024008B5254B984207D1C7
:1077F8004FF480500121FFF7CFFF4FF4805039E05C
:10780800204B984207D14FF480400121FFF7B8FF81
:107818004FF4804009E01C4B98420BD14FF40040D4
:107828000121FFF7ADFF4FF400400021BDE80840FB
:10783800FFF7A6BF154B984207D14FF4005001211E
:10784800FFF7AAFF4FF4005014E0114B984207D1FC
:107858004FF480100121FFF79FFF4FF4801009E0DB
:107868000C4B98420BD14FF400100121FFF794FF05
:107878004FF400100021BDE80840FFF78DBF08BD98
:107888000030014000380040003C00400034014016
:10789800005001400054014003884A8810B503F4A1
:1078A80041540B8813438A881343CA8813430A89AF
:1078B80013434A8913438A891343CA8913432343C9
:1078C8009BB20380838B23F400631B041B0C83830C
:1078D8000B8A038210BD038819B19BB243F04003A1
:1078E80003E023F040031B041B0C038070478388CC
:1078F8009BB20AB1194301E023EA01018180704774
:1079080030B5048C24F001042404240C0484048B72
:10791800058CA4B2ADB224F0F304224325F00A0585
:1079280042EA031345F001059AB229430283018410
:1079380030BD30B5048C24F010042404240C0484D5
:10794800058B048C25F44075A4B22D052D0D24F06B
:10795800A00444F0100445EA022242EA033344EA50
:1079680001119BB28CB20383048430BD08B5474B28
:10797800984205D101200146FFF70EFF01203DE0A6
:10798800B0F1804F05D101200146FFF7F9FE012033
:1079980076E03F4B984205D102200121FFF7F0FE27
:1079A80002206DE03B4B984205D104200121FFF7EE
:1079B800E7FE042064E0384B984205D108200121F5
:1079C800FFF7DEFE08205BE0344B984205D110201B
:1079D8000121FFF7D5FE102052E0314B984205D126
:1079E80020200121FFF7CCFE202049E02D4B9842B2
:1079F80009D102200121FFF7CFFE02200021BDE8B6
:107A08000840FFF7C9BE284B984207D14FF4803091
:107A18000121FFF7C1FE4FF48030EFE7234B984276
:107A280007D14FF400300121FFF7B6FE4FF40030C4
:107A3800E4E71F4B984207D14FF480200121FFF75C
:107A4800ABFE4FF48020D9E71A4B984205D140206D
:107A58000121FFF795FE402012E0174B984205D10F
:107A680080200121FFF78CFE802009E0134B98420B
:107A78000BD14FF480700121FFF782FE4FF4807024
:107A88000021BDE80840FFF77BBE08BD00000140AB
:107A98000004004000080040000C004000100040B6
:107AA800001400400004014000400140004401402F
:107AB8000048014000180040001C00400020004021
:107AC8001C4A038890429BB212D002F58062904211
:107AD8000ED0B0F1804F0BD0A2F58032904207D083
:107AE80002F58062904203D002F58062904203D191
:107AF8004A8823F0700313430F4A904208D002F5D6
:107B0800806290421FBF23F440730A899BB21343DB
:107B180003804B68C3620B880385064B984203D0E9
:107B280003F58063984201D18B7A0386012383820F
:107B3800704700BF00000140001000404FF0FF33C5
:107B4800436000230380038143808372704701856B
:107B580082827047038819B19BB243F0010303E0A6
:107B680023F001031B041B0C03807047038C23F0D4
:107B780001031B041B0C0384038C70B58488028BDF
:107B88000E8822F073021204120C23F00205164329
:107B98004B888A892D0413430F4A2D0C2B4390429E
:107BA800A4B29BB203D002F5806290420ED1CA897A
:107BB8004D8A23F0080313438A8823F004031343F0
:107BC8000A8A24F4407415432C43A4B284800683A3
:107BD8008A684263038470BD00000140038C23F06F
:107BE80010031B041B0C0384038C30B58588028B9F
:107BF8000C8822F4E6421204120C42EA042223F012
:107C0800200394B21B048A891B0C43EA02134A8896
:107C180043EA0213124A9042ADB29BB203D002F576
:107C28008062904215D123F08003CA899BB243EA4F
:107C380002124FF6BF7313408A8843EA02130A8A76
:107C480025F4406545EA82054A8A45EA82059BB2E1
:107C5800ADB2858004838A688263038430BD00BF27
:107C680000000140038C23F480731B041B0C038465
:107C7800038C30B58488828B0D8822F0730212043D
:107C8800120C23F4007315431B048A891B0C43EA66
:107C980002234A8843EA0223124A9042A4B29BB2C2
:107CA80003D002F58062904215D123F40063CA899B
:107CB8009BB243EA02224FF6FF3313408A8843EA15
:107CC80002230A8A24F4405444EA02144A8A44EA01
:107CD80002149BB2A4B2848085838A68C263038439
:107CE80030BD00BF00000140038C23F480531B0407
:107CF8001B0C0384038C30B58488828B0D8822F496
:107D0800E6421204120C23F4005342EA05221B0433
:107D18008D891B0C43EA05334D8843EA05330B4D27
:107D2800A842A4B292B29BB203D005F58065A842DE
:107D380005D10D8A24F4804444EA8514A4B28480D1
:107D480082838A680264038430BD00BF000001405A
:107D58004163704781637047C1637047016470472E
:107D6800038B23F008031B041B0C19430183704782
:107D7800038B23F400631B041B0C43EA012189B223
:107D880001837047838B23F008031B041B0C1943E2
:107D980081837047838B23F400631B041B0C43EA25
:107DA800012189B281837047002301220380438027
:107DB8008280C38003817047406B7047806B704737
:107DC800006C7047038B23F00C031B041B0C03830C
:107DD800038B9BB2194301837047038B23F44063E1
:107DE8001B041B0C0383038B9BB243EA012189B25A
:107DF80001837047838B23F00C031B041B0C8383C4
:107E0800838B9BB2194381837047838B23F4406330
:107E18001B041B0C8383838B9BB243EA012189B229
:107E2800818370472DE9F04188460D88B8F8042011
:107E38004988B8F80830044645B9FFF761FD20467F
:107E4800B8F80610BDE8F041FFF7BCBF042D08D113
:107E5800FFF76FFD2046B8F80610BDE8F041FFF7C0
:107E6800BCBF082D058C1DD125F480752D042D0C63
:107E78000584858B068CADB225F0F305B6B245EACC
:107E88000315ADB226F420662A4346EA0125ADB2B1
:107E980045F4807582830584B8F80610BDE8F04182
:107EA800FFF7A8BF25F480552D042D0C0584B0F8E4
:107EB8001CE0068C2EF4407726F400553F056D042F
:107EC8003F0D6D0C47EA022745EA013547EA0333BF
:107ED800ADB245F480559BB283830584B8F806108B
:107EE800BDE8F041FFF791BFB0F8443029B16FEA1F
:107EF80043436FEA53439BB201E0C3F30E03A0F878
:107F08004430704783899BB20AB1194301E023EAE0
:107F1800010181817047038A194214BF01200020A2
:107F28007047038A828911EA030092B203D0114292
:107F380014BF012000207047C94389B201827047ED
:107F480083899BB20AB1194301E023EA01018181C7
:107F5800704700007FB5038ACA889BB223F4405358
:107F68001343038283890E469BB223F4B0530989D5
:107F780023F00C02B3880B4371890B439BB2134364
:107F88008381838AB2899BB223F44073134383822B
:107F980004466846FFF780FB1A4B9C4203D003F562
:107FA80080639C4201D1039D00E0029DA389316852
:107FB8001BB2002B4FF0190202FB05F2B4BF4D00B3
:107FC8008D00B2FBF5F5A2896426B5FBF6F0000139
:107FD800010912B2002A06FB1153ADBF1A01D900DC
:107FE80032313232B5BFB1FBF6F2B2FBF6F302F032
:107FF800070203F00F03B4BF1043184380B2208177
:1080080004B070BD00100140838919B19BB243F4DC
:10801800005303E023F400531B041B0C83817047B7
:10802800C1F30801818070478088C0F30800704759
:10803800838A9BB20AB1194301E023EA01018182D4
:10804800704710B5C1F34214012301F01F01012C40
:1080580003FA01F301D10C3003E0022C0CBF1030FD
:10806800143012B10268134302E0026822EA0303E3
:10807800036010BDC94389B201807047012310B560
:10808800C1F3421401F01F029C4203FA02F201D12B
:10809800838903E0022C0CBF038A838A9BB21340B6
:1080A800028892B23BB1090A01238B40134214BFE4
:1080B8000120002010BD184610BD000040F0BF6030
:1080C800024B40F40030D860704700BF00ED00E07C
:1080D800C278037810B512B3164AD1684278C943FA
:1080E800C1F30221C1F10404E4B2A240D4B20F22C8
:1080F8000A4181780A40224303F1604303F5614352
:108108001201D2B283F8002303780122590903F03F
:108118001F0302FA03F3084A42F8213010BD5A0936
:10812800012103F01F03994002F12003024A42F89B
:10813800231010BD00ED00E000E100E010B501F0F3
:10814800030301F0FC0101F1804101F59C319B0022
:108158008C680F229A4024EA02028A608A68984052
:1081680002438A6010BD08B504F0D0FB00F0A6FEFB
:10817800FDF70AFA04F0F4FB0020012104F0EAFB01
:108188000120014604F0E6FBFEE700002DE9F0417E
:108198001E4E3578C5BB1E4C01214FF48040FFF7B9
:1081A800CBFA01270623A57020460D252370E7701A
:1081B8006570FFF78DFF0723204623706570FFF772
:1081C80087FF0823204623706570FFF781FF092386
:1081D800204623704FF00A086570FFF779FF0523E2
:1081E8002046637084F80080FFF772FF172320464B
:1081F80023706570FFF76CFF2823204684F8018000
:108208002370FFF765FF3770BDE8F081387D0020E7
:10821800347D0020704708B50120FFF7C3F8FFF749
:10822800F9FF08BD704708B50220FFF7BBF8FFF754
:10823800F9FF08BD704708B50420FFF7B3F8FFF74A
:10824800F9FF08BD704708B50820FFF7ABF8FFF73E
:10825800F9FF08BD08B51020FFF7A4F806F080F96B
:1082680008BD7047704770477047704708B52020B1
:10827800FFF78EF8012804D12020FFF793F8FFF7C5
:10828800F0FF4020FFF784F8012804D14020FFF7D1
:1082980089F8FFF7E7FF8020FFF77AF8012804D173
:1082A8008020FFF77FF8FFF7DEFF4FF48070FFF7BD
:1082B8006FF8012805D14FF48070FFF773F8FFF7C6
:1082C800D3FF4FF40070FFF763F8012805D14FF48E
:1082D8000070FFF767F8FFF7C8FF08BD70477047E1
:1082E80070477047704708B54FF48060FFF750F843
:1082F800012805D14FF48060FFF754F8FFF7EEFF2F
:108308004FF40060FFF744F8012805D14FF40060EE
:10831800FFF748F80BF02EFB4FF48050FFF738F8C2
:10832800012805D14FF48050FFF73CF8FFF7D7FF3D
:108338004FF40050FFF72CF8012805D14FF40050F6
:10834800FFF730F8FFF7CCFF4FF48040FFF720F835
:10835800012805D14FF48040FFF724F8FFF7C1FF4B
:108368004FF40040FFF714F8012805D14FF40040FE
:10837800FFF718F8FFF7B6FF08BD4FF44070FFF796
:108388009DBEFEF7E1BC70471EF0040F0CBFEFF373
:108398000880EFF3098000F001B870472DE9F84F25
:1083A800D0F800B0D0F804A0D0F80890D0F80C802D
:1083B800076946698569C4693449354802F0ECFEA5
:1083C800344933485A4602F0E7FE334930485246AA
:1083D80002F0E2FE31492E484A4602F0DDFE3049FD
:1083E8002B48424602F0D8FE2E4929483A4602F068
:1083F800D3FE2D492648324602F0CEFE2B492448AA
:108408002A4602F0C9FE2A492148224602F0C4FE43
:10841800284B29491A681E4802F0BEFE274B2849F6
:108428001A681B4802F0B8FE264B27491A681848F4
:1084380002F0B2FE254B26491A68154802F0ACFE38
:10844800244B25491A68124802F0A6FE002001466E
:1084580000F05AF90120002100F056F9022000210D
:1084680000F052F90320002100F04EF904F0A4FABC
:108478000220012104F06EFA0420012104F06AFAB6
:108488001648942102F060FDFEE700BF5D7F0108F9
:1084980089E60008737F01087C7F0108857F010851
:1084A8008E7F0108977F0108A17F0108AA7F010834
:1084B800B37F010838ED00E0BD7F010828ED00E03A
:1084C800C87F01082CED00E0D37F010830ED00E003
:1084D800DE7F01083CED00E0E97F0108F47F010838
:1084E800002008B5014600F00FF90120002100F036
:1084F8000BF90220002100F007F90320002100F009
:1085080003F904F059FA0220012104F023FA0420A7
:10851800012104F01FFA0248A72102F015FDFEE729
:10852800F47F0108002008B5014600F0EDF80120AD
:10853800002100F0E9F80220002100F0E5F803200E
:10854800002100F0E1F804F037FA0220012104F0DC
:1085580001FA0420012104F0FDF90248BB2102F0D0
:10856800F3FCFEE7F47F0108002008B5014600F09F
:10857800CBF80120002100F0C7F80220002100F00C
:10858800C3F80320002100F0BFF804F015FA022018
:10859800012104F0DFF90420012104F0DBF902488D
:1085A800CF2102F0D1FCFEE7F47F0108704704F008
:1085B800BDBF000037B500240E4D6846FEF72EFFFC
:1085C8002B681A59D26800921B5969469868FEF7B9
:1085D800EFFE2B681B5900229868198AFEF736FFB0
:1085E8002B681B590434186AFFF7C0F9102CE3D123
:1085F80003B030BDD89100202DE9F0413F4F404DE8
:108608003B788AB0044613B12868FFF7D3FF2C6083
:1086180000242B681B5901215868FFF781F82B6843
:108628001B590121D869FFF793F86846FEF7F6FE53
:1086380002238DF804308DF805302B681A595269D9
:108648008DF806201A59D26800921B596946986815
:10865800FEF7AEFE2B681B599868198A1A7EFEF73A
:10866800F5FE2B681A59D26A03921A590026128EFF
:10867800ADF80820ADF81060ADF80A608DF812600A
:108688001B5902A9186AFFF71BFA6023ADF81430CA
:108698004FF001082B68ADF8168007961A59928C8E
:1086A800ADF820204FF48072ADF824201B5905A99D
:1086B800DA6B186A90472B681B5908211A6C186ADC
:1086C80090472B681B594146986AFEF7B5FC2B6802
:1086D8001B594146186A0434FFF706FC102C98D140
:1086E8002B689B590121186A0436FFF733FA102EBC
:1086F800F6D101233B700AB0BDE8F0814C7D002023
:10870800D8910020000000002DE9F0472DED028BE4
:10871800454B1B7882B005460C46002B74D00328C5
:1087280004D942484249D82202F0D6FB414B1A6884
:1087380052F8252012789A46002A47D107EE104AA7
:10874800DFED3D7ABBEEC87A67EE277A17EE900A1E
:10875800FBF77AFE06460F4606F03CFF2EA3D3E948
:10876800002330463946B0EE408AFBF7C1FE324658
:108778003B46FBF7BDFE2AA3D3E900238046894682
:1087880030463946FBF7B4FE0B460246494640469A
:10879800FBF7FCFCFCF746F907EE900A87EE880A1F
:1087A800264BF7EE007AB4EE670AF1EE10FAC8BF6E
:1087B800B0EE670ADFED227A20EE270ABCEEC00A87
:1087C8008DED010ABDF8044043F82540DAF8003081
:1087D80053F825301A78012A01BF45F208214C4385
:1087E8004FF6FF71B4FBF1F104BF01F5A441083164
:1087F8005A6B0BBF186A186A89B2210A02B0BDEC1D
:10880800028BBDE8F047104702B0BDEC028BBDE813
:10881800F08700BFAFF300809FE3480CA77144BF07
:10882800BA490C022B87B63F4C7D0020E88001082E
:10883800FB800108D8910020000070423C7D002098
:1088480000FF7F4703282DE9FF4104468846174665
:108858001E4605DD184819494FF4897202F03CFBA1
:1088680001A8FFF76BF9164DB8F1000F08D00423E3
:10887800144A92FBF7F292B2ADF80430029209E082
:108888002B6853F82420D26A029253F824301B8EA6
:10889800ADF804302B6853F8243001A9186AFFF7A3
:1088A8000FF92B6853F8243031465A6B186A9047F1
:1088B80004B0BDE8F08100BFE8800108FB80010832
:1088C800D89100200059000170B50024114B1B6895
:1088D80053F824301D78BDB90F4B53F824600F4B63
:1088E800012133F81420304640F27573FFF7AAFFD0
:1088F8003220FDF701F8304629462A462B46FFF775
:10890800A1FF9620FCF7F8FF0134042CDED1044BBC
:10891800187870BDD8910020508001088081010826
:108928004C7D00207320704700B589B0184B194A58
:108938001B68934227D09B686846984702460028E0
:10894800F4D19DF8013014491B0951F8230020B1D6
:1089580069460223FDF740FB03E0104A1368013320
:108968001360FCF75BFE002101F048FE9DF8013022
:108978000B4A1B0952F823100029D7D052F823308C
:1089880068469847D2E70A20FCF7B6FFCEE700BF53
:108998004800002034000020507D0020987D0020F1
:1089A8009C7D002010B588B00E4B0F4A1968914283
:1089B8001C4613D00D4B694618684FF0FF32002350
:1089C800FDF7A6FC0128EFD1236868465B68984745
:1089D8000028E9D10A20FCF78FFFF5E70A20FCF709
:1089E8008BFFE1E74800002034000020947D002040
:1089F8007FB5114D2C78ECB9202122463C20FDF79B
:108A0800B7FA0E4B0E4918600226962223460096A6
:108A18000194029403940B48FCF7BCFC234600968F
:108A2800019402940394084808499622FCF7B2FC82
:108A380001232B7004B070BD907D0020947D002030
:108A480098820108AD89000831890008A0820108D0
:108A5800014B1878704700BF907D002038B5094B4E
:108A680053F8202005461C4622B1074807496122D1
:108A780002F032FA012020210022FDF779FA44F8A9
:108A8800250038BD507D0020A8820108BF8201085A
:108A980070B50E4B53F8202006460D461C4622B9E9
:108AA8000B480C49712202F017FA25B90A480949FE
:108AB800722202F011FA54F8260029464FF0FF32CC
:108AC8000023BDE87040FDF723BC00BF507D0020A7
:108AD800D6820108BF820108D587010808B5034B73
:108AE8001868FDF71BFDC0F13C0008BD947D00200F
:108AF8001028DCBF014B43F8201070479C7D0020F4
:108B080010B5044620B90B480B49C92202F0E4F914
:108B180023781E2B04D909480749CA2202F0DCF938
:108B2800074B0022186821461346BDE81040FDF7A0
:108B380053BA00BFD5870108BF820108E582010842
:108B4800947D002008B5064B00211868FDF7D0F980
:108B5800044B1B681B6903B19847002008BD00BF80
:108B6800947D002048000020034B1B68DB6803B19C
:108B780018470120704700BF4800002070B5094C15
:108B88002368054613B11B68002098470DB125607E
:108B980001E0054B2360236801201B68BDE8704095
:108BA800184700BF480000203400002038B50C4C9E
:108BB8004FF0FF330021054644F8203003F0CAFE89
:108BC800084A282303FB0522002352F82310013109
:108BD80002D044F8253038BD01330A2BF5D138BD11
:108BE800A87E0020DC7D00202DE9F74F8046FDF7A8
:108BF800CDFE2C4B1B78002B50D0C5B22A4B53F816
:108C08002530581C4AD00A2606FB0536DFF8A49002
:108C1800264A59F8264052F823B0254F0021631CF4
:108C28000BEBC40A49F8263038680B464FF0FF3280
:108C3800FDF76EFBDAF80430991C08D05A1C0AD1EB
:108C4800284649F826300024FFF7B0FF1EE000242C
:108C580049F826401AE01BF83410284603F07AFE3B
:108C6800DAF80420002482B1234604210094404607
:108C7800FDF740FDFCF7D2FC00940246234640462F
:108C88000121FDF737FD012400E014460021386872
:108C98000A460B46FDF7A0F9002CAFD003B0BDE89B
:108CA800F08F00BFA47E0020A87E00200483010866
:108CB800D07E0020DC7D002037B51E4B1C781D4679
:108CC800ACBB03F04DFE23461B4A4FF0FF3142F880
:108CD80023101A49282202FB031100224FF0FF300B
:108CE80041F8220001320A2AF8D10133052BEBD1D1
:108CF8000024134B0093134823464FF47A71002243
:108D0800FDF7D0FC104B43F824000134052CF0D1BA
:108D1800032201200021FDF72BF90C4A106020B135
:108D280000210A460B46FDF757F901232B7003B0C3
:108D380030BD00BFA57E0020A87E0020DC7D00207D
:108D4800F18B0008FC830108BC7E0020D07E002047
:108D580010B5044B1C7803F039FE034B01221A703E
:108D6800204010BDA57E0020A47E0020F8B5054651
:108D78000024174B53F824308B4223D1154F002180
:108D88000B464FF0FF323868FDF7C2FA0A2303FB9F
:108D98000543114A0026284642F82360FFF706FFDC
:108DA8003346386831463246FDF716F90B4B53F80F
:108DB8002530A3420AD10A4B53F82500BDE8F840F4
:108DC800FFF712BF01340A2CD3D1F8BDF8BD00BF9C
:108DD80004830108D07E0020DC7D0020A87E0020CE
:108DE800BC7E00204160C2607047000070B5054637
:108DF8000024144B53F824308B421FD1124E00210B
:108E08000B4630684FF0FF32FDF782FA0A2303FB66
:108E180005440E4B4FF0FF32284643F82420FFF755
:108E2800C5FE002130680B460A46FDF7D5F8084B09
:108E380053F82500BDE87040FFF7D6BE01340A2C70
:108E4800D7D170BD04830108D07E0020DC7D0020CE
:108E5800BC7E002008B54FF05F0383F31188BFF391
:108E68006F8FBFF34F8F0649064802F095F902202D
:108E7800012103F06FFD0420012103F06BFDFEE7E3
:108E8800488401086D92000870470120704700006F
:108E9800024B1B680BB11B6818477047D47E002033
:108EA800024B1B680BB15B6818477047D47E0020E3
:108EB800014B1860704700BFD47E00201FB5022305
:108EC80000930023019302930393044904484FF449
:108ED8009672FCF75FFA05B05DF804FB5984010847
:108EE8001190000873B5274C2578002D48D1012032
:108EF800FDF73AF9244B254E18604FF0FF322B4608
:108F08002946FDF705FA05F0CBFDFFF771FD00F0E6
:108F180067F91F491F4802F03FF91F491D4802F031
:108F28003BF91E491E4B0D681E4836781E491A68C3
:108F38001E4B002E18BF01461B681648019100956C
:108F48001B4902F029F91B4B1B491B6800931B4B5B
:108F58001048B3F900300193194B1A68043B1B6899
:108F680002F01AF90AF008FE01F0DEF808F026FF10
:108F7800FFF7A2FE06F002FBFFF786FF012323702E
:108F880002B070BDE07E0020E09100204689010813
:108F98006F8401086D92000892840108A4010020E2
:108FA800A80100206084010869840108A00100204C
:108FB800B9840108107AFF1FD3840108227AFF1FA1
:108FC800187AFF1F38B5084B1C78FFF7C1FE054615
:108FD80006F0FAFA2840044001F0B2F80440FFF71E
:108FE80054FF204038BD00BFE07E002008B5054B87
:108FF800002118680A460B46FCF7EEFFBDE808405A
:1090080005F086BBE091002038B503F0A9FC0121EA
:10901800002003F09FFCFFF765FF00F09FF801F0C8
:109028005DF901F027FE08F089FB08F0E1FA00F08D
:1090380073FCFFF7C7FF04460AF04CFE2040C4B299
:1090480000F0A6F8044001F06FF9044008F094FB22
:10905800044008F0F7FA044000F080FC0440204D7A
:1090680005F040FB84B178B101242C70FFF7BEFFF6
:10907800062008F0EDFA04201A49FFF777FE20468B
:109088001949FFF773FE1CE000232B70FFF79AFFC6
:1090980088B104201449FFF769FE4FF4FA60FCF721
:1090A8002BFC2B78002BF4D01049114802F074F8EF
:1090B800FFF79CFF05E003F053FC0420012103F0B7
:1090C80049FCFDF77BFD0B490246094802F064F8AC
:1090D80001F03EF84FF0FF30FCF70EFCFAE700BF56
:1090E800D87E0020308401088483010801850108A6
:1090F8006D9200081585010810B50B4B1B781BB93C
:109108000220FCF7F9FBF8E7084C00210B46206821
:109118004FF0FF32FDF7FCF8002120680A460B46A5
:10912800BDE81040FCF758BFE07E0020E091002029
:10913800014B1870704700BFE17E002008B5FCF7AE
:109148006DFA054A1368C31A502B02D91060FEF74E
:1091580093FA30BF08BD00BFDC7E002010B50B4C71
:1091680023788BB905F01AF806F0CCFC06F034FD2C
:10917800FFF704FD00F0E0F808F05AF900F0F0FEFF
:1091880000F00CF90123237010BD00BFE27E00201F
:1091980038B50B4B1C7806F07DFC0546FFF758FCEC
:1091A8002840044000F0D8F8044008F051F9044081
:1091B80000F034F8044000F037F9204038BD00BF13
:1091C800E27E002010B5054C2046FFF799FC0128E7
:1091D8004FF000030CBF2370184610BDE491002027
:1091E80038B50B4B1C781D468CB90A4B032201205D
:1091F80021461C705C70FCF7BBFE074A106020B16A
:10920800214622462346FCF7E7FE01232B7038BD92
:10921800E87E0020E4910020E47E0020014B1878CD
:10922800704700BFE87E002037B50C4C054600218A
:10923800206801AAFDF72CF901280CD1084A2068FA
:1092480013781D2B9EBFD11801338D7001A998BFCB
:109258001370FDF70DF8284603B030BDE47E0020FA
:10926800E491002070B5214B5968214B1B780646C4
:10927800002B39D0C1F3080119B1BDE87040FFF7E0
:10928800D3BF1C4D4FF0FF3228680B46FDF740F85E
:10929800012827D1184C23781D2B04D9FFF71EFC71
:1092A800012817D109E0E2180133DBB20A2E9670C3
:1092B8002370F3D01E2BF1D00EE0207800231A186B
:1092C800002A07DD0D491944224409799170013BB0
:1092D8005A1DF4D1FFF776FF002128680A460B468D
:1092E800FCF77AFEF0B270BD184670BD00ED00E0E4
:1092F800E87E0020E47E0020E49100207B850108C0
:1093080038B5437813F0030305460FD0012B00D07E
:1093180038BD04461E2204F8022B002120460EF018
:1093280076F9204603490EF07AF92846BDE8384018
:10933800FFF7E6BB8085010810B5054C23782BB9EB
:109348000F200449FFF7D4FB0123237010BD00BF91
:10935800E97E002009930008014B1878704700BF88
:10936800E97E002030B50B4B1C680B4B00221D68B2
:109378001346A34209DA0C2159436956002902DB36
:10938800824205D001320133F3E74FF0FF3030BDA0
:10939800184630BDFC7E0020F47E0020F0B5184D44
:1093A8002C7885B04CBB17481749184B184E194FE5
:1093B8003060091A8A1053433B6001F0FBFE164ADD
:1093C800164B3F683668116818602346BB4207DAB7
:1093D8000C205843013330560028A8BF0131F5E767
:1093E8000023012411600E48009401930293039313
:1093F8000C499622FBF7CEFF2C7005B0F0BD00BFDC
:10940800F87E002034AE010888B40108ABAAAAAAE5
:10941800F47E0020FC7E0020EC7E0020F07E002000
:109428005995000893850108014B1878704700BFCB
:10943800F87E00202DE9F84318B101281ED0BDE8B8
:10944800F883394B394F3A4C1D683B6894F803E070
:10945800384E04330246AA425BDA13F8041C11F0B2
:10946800800F03D0C90705D51E6804E0704513D0E6
:10947800013000E02F4E01320C33ECE72C4B202258
:109488005A7006221A702C4A98701268DA702B4AA1
:1094980010685860184643E0202363704FF00C08AA
:1094A800002308FB02F8A3703B68E07003EB08098F
:1094B800304613F8083023710EF0B9F80546D9F88C
:1094C80004000EF0B4F828440530C0B21E282070FD
:1094D80004D91B481B49C72201F0FEFC30460EF098
:1094E800A6F83146421C18480EF086F830460EF0B1
:1094F8009EF83B6898440546D8F8046030460EF05C
:1095080096F82C44421C3146A01D0EF075F80F4801
:1095180006E0202363700023A3700548012323700D
:10952800BDE8F843FFF7ECBAFC7E0020F47E00208B
:1095380004920020A8A60108EC7E0020F07E0020FE
:1095480099850108B6850108099200200492002037
:109558002DE9F74F0220FFF781FA804C02202146BF
:10956800FFF796FA6678A57816F00306274603D122
:109578002846FFF75FFFF0E7012E30D12846FFF7B6
:10958800F1FE002805DAFF23A3700223E57023719A
:1095980030E00C235843724B1B681A5C191802F010
:1095A8000302022A8B680CD0032A0FD0012A15BFA8
:1095B8001B781B88E370A4F8033014BF022303232D
:1095C8000BE01B68C4F80330052306E01A68C4F8EA
:1095D80003205A68C4F80720092323702EE0022EBE
:1095E8002ED12846FFF7BEFE002807DAFF23A37016
:1095F800E57026710323237020469CE00C23584312
:10960800574B1B681A181B5C5906A6D403F00303B2
:10961800022B926809D0032B0BD0012B15BFE378DE
:10962800B4F803301370138008E0D4F803301360E3
:1096380004E054F8031F636882E80A0047487AE0A8
:10964800002D8AD12B46FA18927802B901350133D8
:109658001E2BF8D1012D7EDD42480DF0E8FF07EB07
:10966800000808F10408814640460DF0E0FF00EBD1
:1096780009030093FB18DFF8F8905E793A4B1B68F2
:109688000193374BD3F800A04FF0000B5546019BD0
:109698009B4518DA29780A0604D5CB070DD5D5F8E5
:1096A80004900CE068684146FBF7ECFD38B9484681
:1096B8002C49FBF7E7FD10B907E0DFF8B4900BF190
:1096C800010B0C35E3E7022520E00C2303FB0BF329
:1096D8000AEB03021AF803309E423AD106F040031F
:1096E80003F0FF05002B32D1009B9168043306F08C
:1096F80003063B44022E03F102001FD0032E21D0A3
:10970800012E15BF9B785B880B700B8015480DF0F8
:109718008EFF064640460DF08AFF374438444571AF
:1097280010480DF084FF054640460DF080FF2844A0
:10973800043020700D48FFF7E3F90EE7D3F8023044
:109748000B60E3E7D0E90023C1E90023DEE70D253C
:10975800DCE71625DAE703B0BDE8F08F04920020B5
:10976800F47E002007920020FC7E00200492002056
:10977800A8A6010807B50420FFF770F9604C04207B
:109788002146FFF785F9627802F00302012A234691
:109798004CD0022A00F08280002AEFD1A378012B56
:1097A80002D0022B0BD0E9E7A370564B40221B785E
:1097B8006270022213442270E37020469CE0E07835
:1097C800237040226270A37020B920714E4B41F67D
:1097D800FF7205E0012810D1102323714A4B18228B
:1097E8001A604A4A18681368C4F809305368C4F8FC
:1097F8000D30C4F805000F237CE0454D0238C0B297
:10980800294606F093FA002875D03F4A70210123B3
:109818001160106823712A682378C4F809206A68DF
:10982800C4F80500C4F80D200D3363E0D4F8030034
:10983800A278019041216170E579019962B96A18AD
:10984800B2F5005F20D204F1080089B22A4604F07C
:1098580091FBC8B1002318E0012A0AD16A18182A16
:1098680012D82C4B04F1080019442A460DF0C4FE06
:10987800EFE76818702807D8901E89B22A4608337F
:10988800C0B206F07FFAE4E705231D4AE37113B975
:10989800063515702FE0062313702CE0D4F803006A
:1098A800227801904221053A6170A5780199D2B2D7
:1098B800501845B9B0F5005F19D2E01D89B204F01F
:1098C80071FBA0B108E0012D08D1182804D811486F
:1098D8000844E11D0DF090FE002309E0702806D829
:1098E800A81E89B20733C0B206F0B0FAE9E705232B
:1098F800E371062323700248FFF702F93EE700BF31
:10990800087F00202D7F0020287F0020D2850108B5
:10991800007F002098B2002030B50C4D2C7885B01F
:109928008CB90B4806F0E0F9003018BF012001237C
:1099380028708DE818000294039406480649962278
:109948002346FBF727FD05B030BD00BF2C7F002064
:109958002D7F00207D970008CE850108014B1878DF
:10996800704700BF2C7F00202DE9F34100260C230F
:10997800184D73435A59824204D00136082EF6D145
:10998800022024E02B449C6824B123680022A260B2
:109998001C46F9E70C2707FB0657786888B14FF093
:1099A800FF38032122462346CDF80080FCF7A2FEAB
:1099B800CDF800807868052122462346FCF79AFEF8
:1099C8007C600C235E434FF0FF33AB51002002B0A4
:1099D800BDE8F0815082002013B500210C220C4C08
:1099E80002FB01F31A59824204D001310829F5D14A
:1099F80002200AE023444FF0FF3200920022586808
:109A080003211346FCF776FE002002B010BD00BF0C
:109A18005082002038B5124B124D1B780BB9002329
:109A28000DE000242859431C05D0FFF7D5FF0D4B46
:109A3800E058FFF799FF0C34602CF3D1EFE74FF0B3
:109A4800FF32EA500C33602BF9D10023064A1A443E
:109A58000C330021B3F5407F9160F7D138BD00BFCA
:109A6800D882002050820020307F002008B5FCF703
:109A78008DFFBDE808400146014800F07FBB00BFEC
:109A88001D9E00082DE9F74F019100210C23414A42
:109A98004B439C58844204D001310829F6D1022056
:109AA80075E01A443C4B1B6800933C4BD3F800808C
:109AB8000021019B994224DA976800253B46384CDF
:109AC8002BB118791B680009205C0544F7E7354875
:109AD80010F811C00CF00F0E4E0014F80E402C4474
:109AE8001A2C00EB060A81460DDCDFF8BCE00C25D9
:109AF80005FB03E4A06840B10133402BF5D12846AB
:109B080045E0002043E0072041E09AF801A0BAF1BF
:109B1800FF0F10D00646009DAE42C0DA0C2505FBAB
:109B280006F918F909B0BBF1000F02DB50451DD04A
:109B380001300136EFE720794FEA1C15023665F34C
:109B480003004E446CF30710A660207102310C200C
:109B5800434300204EF803000FB9946004E03B68CB
:109B68000BB11F46FBE73C600131A2E7002E96DBF4
:109B780008EB090005FB03E58068A86018F8096090
:109B8800287966F303006CF307102871DFE703B048
:109B9800BDE8F08F50820020B4820020DC820020D3
:109BA8000D86010834820020307F00202DE99F486F
:109BB8000520FEF753FF8A4C8A4E21460520FEF702
:109BC80067FF00210B4630684FF0FF32FCF7A0FB1F
:109BD800637813F0030F274663D1A3788BB1012B69
:109BE8005FD1A370804B1B68E370804B50221868CC
:109BF80062704023082260602270227263722046DD
:109C08004DE07B4A7B48D2F800C0026894F8038094
:109C1800794D04321946614580F2DB8012F804EC74
:109C28001EF0800F04D01EF0010F05D0156804E067
:109C3800434505D0013300E0704D01310C32EAE7AD
:109C480050226270E37000220C234B43A27002681A
:109C5800284602EB0309D35C23710DF0E8FC294682
:109C6800421C67480DF0C8FC28460DF0E0FCD9F806
:109C780004A0804650460DF0DAFC4744421C514689
:109C8800B81D0DF0B9FC28460DF0D1FC0546D9F8F1
:109C980004000DF0CCFC2844053020705048FEF735
:109CA8002FFF637803F00303012B67D14C4B9B789C
:109CB800052B5AD8DFE803F0031F262A515594F8DC
:109CC80003A094F800B000214E4BCA5892451A469A
:109CD8004DD00C316029F7D100230C2505FB03F882
:109CE800DFF8209152F808C0BCF1FF3F1CD00133C7
:109CF800082BF2D12FE02178E07802394908FFF7E4
:109D0800C1FE35E0E078FFF72FFE31E0E1782079F9
:109D180000220C233B4F5343DD598D4239D0013289
:109D2800082AF6D1022023E009EB0807364B49F848
:109D380008A0364800934FF47A713B460122CDF8CB
:109D48000CC0FCF7AFFC00237860BB60DDF80CC0EA
:109D5800D8B949F808C028460AE0E078FFF73CFE81
:109D680006E0FFF757FE002002E0082000E011207F
:109D7800207103231A482370FEF7C2FE00213068C1
:109D88000A460B46FCF728F915E7ABF102015046E5
:109D9800B4E700EB800045001F4415D04FF064087D
:109DA800CDF800802A46042100237868FCF7A2FC3D
:109DB8007D68FBF733FCCDF8008002460121284678
:109DC8000023FCF797FCCEE73946114800F0D6F996
:109DD800C1E7502363700023A370012323705DE75C
:109DE80030820020E4820020B0820020E08200203F
:109DF800B4820020DC820020DA850108A8A60108C8
:109E08003582002050820020759A0008DF850108FD
:109E18001D9E00082DE9FF414E4E8568002104462D
:109E28004FF0FF320B463068FCF772FAFBF7F6FB8F
:109E3800494B52225A7004221A7022689A70D870BC
:109E4800020A000C1A7158711C46002D6BD00023B1
:109E5800029300230393AB6819682B79019103F0EF
:109E68000F02013A062A1AD8DFE802F0040A10079E
:109E78000D1012009DF8042010E09DF904200DE05B
:109E8800BDF804200AE0BDF9042007E00A4605E011
:109E980007EE901AFDEEE77A17EE902A029203F089
:109EA800F002702A01D0802A28D103F00F03072B73
:109EB80017BFDDED027A0391F8EEE77ACDED037A6C
:109EC800702A0AD12378244A1A2B2CD813440398D1
:109ED800C3F80200137804330EE09DED030A01F085
:109EE8009FF9237802901C2B1B4A1CD81344BDF8F9
:109EF8000810598013780233137012E01B09174AAF
:109F0800207812F80380144FC8F11E0398420AD82B
:109F180038444246023002A90DF06EFB3A784244BA
:109F28003A702D6891E700210A460B463068FCF725
:109F380053F8FEF719FE30B9FFF76CFD04B0BDE821
:109F4800F041FEF7FFBD044804B0BDE8F041FEF75C
:109F5800D7BD00BFE4820020B88200200D8601082A
:109F6800F0B5204D2C7885B0002C38D11E481F49FB
:109F78001F4B204E204F3060091A8A1053433B6014
:109F880001F018F91D4B18600120FCF7EDF81C4A88
:109F98001C4B3F683668116818602346BB4207DAD5
:109FA8000C205843013330560028A8BF0131F5E78B
:109FB80011600023144A4FF0FF3199500C33602B85
:109FC800F8D1FFF727FD01240023009401930293A1
:109FD80003930E480E499622FBF7DCF92C7005B066
:109FE800F0BD00BFD882002088B4010844BC010835
:109FF800ABAAAAAADC820020B4820020E08200205A
:10A00800B0820020E482002050820020B59B000826
:10A01800E88501082DE9F843114B124E1F68124BD1
:10A028001D68804689460024BC4212DA2B781A063D
:10A0380002D5DB0748BF6E6840463146FBF722F978
:10A0480020B948466968FBF71DF930B101340C3571
:10A05800EAE74FF0FF30BDE8F8832046BDE8F88313
:10A06800B4820020A8A60108DC82002010B5041ED6
:10A0780005DA184818494FF42F7200F02DFF174BD6
:10A088000C2060431A681318125C013A062A1ED87D
:10A09800DFE802F0040B12070E1215009B6818780F
:10A0A80010BD9B6893F9000010BD9B68188810BD0F
:10A0B8009B68B3F9000010BD9B68186810BD9B68C9
:10A0C800D3ED007AFDEEE77A17EE900A10BD002076
:10A0D80010BD00BFEC850108F7850108DC8200206F
:10A0E80010B5041E05DA0D480D494FF4377200F01B
:10A0F800F3FE0C4A0C2363431268D118D35C072B78
:10A1080003D18B6893ED000A10BD2046FFF7AEFF20
:10A1180007EE900AB8EEE70A10BD00BFEC8501080B
:10A12800F7850108DC82002010B5044C226822B9AA
:10A1380005200821FBF71CFF206010BDE8820020E5
:10A14800024B1868003018BF01207047E8820020D1
:10A1580013B5094B1A681C4662B10023206869468A
:10A168004FF0FF32FCF7D4F8009B002BF5D0019894
:10A178009847F2E702B010BDE882002007B568B141
:10A18800084B00228DE80300186869461346FBF760
:10A1980023FF00280CBF0C20002000E0082003B09B
:10A1A8005DF804FBE88200207047000038B50F4CCA
:10A1B800227F0E2382F00102811C03FB02430E3032
:10A1C80051F8045B43F8045B8142F9D1098819808E
:10A1D8002277FBF723FA237F20620E2202FB034437
:10A1E800A3890BB9024A137038BD00BF048300204D
:10A1F800F582002010B52DED028B0446F0EE408A62
:10A2080009F08EFEB0EE408AB0EE680A09F0E8FE6A
:10A21800D4ED026AD4ED017A20EE667AA7EE887A48
:10A2280067EE807A84ED017AE6EE887ABDEC028BDF
:10A23800C4ED027A10BD0000054B1A68117F0E2389
:10A248004B43D1180020D05048608860704700BF49
:10A25800F882002038B51C4DFBF7E0F92C6A1B4A40
:10A26800041BB4F5FA7F01D2156038BD184B196A82
:10A27800411AB1F5FA7F01D2136038BDB4F5FA6F0F
:10A2880001D215601BE0B1F5FA6F01D2136016E038
:10A29800104C6168401AB0F57A7F88BF01230E48D8
:10A2A80088BF23704FF0000187BF136801701360E7
:10A2B80001701A7F0E2000FB023308339980BDE835
:10A2C8003840FFF7B9BF00BF30830020F882002074
:10A2D8000483002028830020F282002010B50B4C54
:10A2E800237893B9FEF784FB03200949FEF700FCA5
:10A2F800084B094A1A60FBF791F9084B084A18609D
:10A3080001231370074A2370137010BDFC820020CC
:10A31800B5A10008F88200200483002000830020F3
:10A32800F1820020F582002008B5FEF791FB014B71
:10A33800187808BDFC82002038B50F4C227F0E2308
:10A3480082F0010203FB024300F10C0150F8045BA8
:10A3580043F8045B8842F9D1018819802277FBF71A
:10A368005DF9237F20620E2202FB0344A3890BB907
:10A37800024A137038BD00BF30830020F5820020E8
:10A3880008B5FBF74BF9024B1B68C01A08BD00BFA4
:10A39800008300202DE9F047884E88460446FFF7E1
:10A3A80059FF33681A7F0E2101FB0233844A9B89C7
:10A3B8001278002512B9B3F57A7F01D225620BE035
:10A3C8004EF65F22934296BF07EE903ADFED7D7A14
:10A3D800F8EEE77AC4ED087A7B4A127882B107EE84
:10A3E800903A9FED7A7A2562F8EE677A022277EE44
:10A3F800C77A84F84620C7EE877AC4ED107A01E060
:10A4080084F84620724BDFF8F09193F800A0BAF177
:10A41800000F24D0022384F8443084F84530002308
:10A4280084F8473084F8483033681A7F0E2101FBDE
:10A438000232F3EE0E6A526807EE102A87EE267A89
:10A4480084ED0E7A1A7F01FB02331B68656007EE04
:10A45800903AC7EEA67AA560C4ED0F7A7FE099F826
:10A468000030002B40D0FFF7F5FE33681A7F0E2727
:10A4780007FB02329289002A36D0012284F8442050
:10A4880084F8452084F8462084F847A084F848A03A
:10A4980084F849201A7F07FB0232526807EE902A97
:10A4A800F1EE677AC4ED0A7A1A7F07FB02331B685C
:10A4B800E362FFF7CFFE414B9FED467A1B681A7F98
:10A4C80007FB02329289656007EE902AF8EEE77A78
:10A4D800A560C7EE877AC4ED0C7A1A7F07FB0237AE
:10A4E800BB68E36025623AE0002384F8443084F8CE
:10A4F8004530394B1B785BB9022384F84730336801
:10A508001A7F0E2101FB02331B68636165600AE054
:10A51800012384F84730336865611A7F0E2101FBF7
:10A5280002331B6863602D4B1B785BB9022384F8E8
:10A53800483033681A7F0E2101FB02335B68A36140
:10A54800A5600AE0012384F848303368A5611A7FC2
:10A558000E2101FB02335B68A360A563E56399F8EC
:10A5680000304BBB33681A7F0E2101FB02339B6816
:10A57800E3611B4B1B782BB1012B1AD120469FEDB1
:10A58800190A14E0184BD8ED037A1A78174B0AB158
:10A59800C3ED007A93ED000A77EEC07A9FED140AB6
:10A5A80067EE807A9FED130A87EE800A2046FFF750
:10A5B80021FE022384F84930BDE8F087F8820020A4
:10A5C800F582002000606A47F282002000FEFF4604
:10A5D800F082002000007A447D0000207E000020E8
:10A5E8007C000020DB0F493FF3820020EC82002032
:10A5F800DB0F494000003443FD820020014B5860C6
:10A608001970704728830020024B1A780AB9012272
:10A618001A70704764830020F0B5DFED9B7A9FEDD8
:10A628009B7A9B489B4A9C4C9C4920EE270A60EEEB
:10A63800A70A21EE271AF5EE401AF1EE10FA80EE7D
:10A64800070A80EE876A81EE071A2DED028BB6EEB7
:10A65800005AB7EE087A0AD1B5EE402AF1EE10FAA0
:10A6680005D1F5EE402AF1EE10FA00F0818062EE95
:10A67800027A92ED004AD4ED003AD1ED004A884FB3
:10A68800884EE1EEA17A0025E2EEA27A17EE903A22
:10A698005B10C3F1BE4303F55D1303F5CE531F33BF
:10A6A80006EE903A67EE857A05EE903A66EEE77A1E
:10A6B800F0EE476AE7EEA56A7B4BF0EE667A65EE48
:10A6C800A77AD0ED006A64EEE35A64EE844AE6EEB7
:10A6D800845AE3EEA64AFEEE006AE3EEA36A61EE50
:10A6E800A70A22EE278AE4EE046A62EEA77A24EE2D
:10A6F800E74AA8EE264A66EEE06AE7EEA56AF0EEBB
:10A70800667A65EEC86AD3ED005A684BF5EEC05A12
:10A71800F1EE10FAE0EEA46A1EDD65EE844AD7ED8C
:10A72800000AD6ED003AE4EE830A65EEA74A65EE24
:10A73800A65AE4EE833AD3ED004AC7ED000AE5EEE7
:10A74800834AC6ED003AC3ED004A30EE200A36EEE1
:10A75800236A31EE241A02E03D6035601D60544BD7
:10A76800D3ED005AA5EE840AA5EEA76AA5EEA61AAF
:10A7780023EE053A91ED004AD4ED003AD2ED005AA5
:10A7880021EE031A20EE030A64EE017A66EE030A4C
:10A79800E3EE807A90ED006A60EEC44AF1EE656AF5
:10A7A800E6EE404AE6EEA07AE6EE814A76EE277AB1
:10A7B80061EE466A26EE206AE3EEA06AA3EE816A9D
:10A7C80073EEA44AA4EE406AE5EE806A35EE866A26
:10A7D80067EEA75A74EE266AE4EEA45AE6EEA65A85
:10A7E800E6EE065A15EE903A5B10C3F1BE4303F548
:10A7F8005D1303F5CE531F3365EE855A05EE103A07
:10A8080065EE655A2B4BA5EE857A25EE077A64EE40
:10A81800875A67EE877A66EE876A26EE077A26EE0B
:10A82800E56A26EE875AA7EE876AA5EEA75AC0ED15
:10A83800007A67EEE77A36EE066AE5EEA57A83EDEA
:10A84800006AE6EEE67A1C4B35EE055AE7EE077A23
:10A8580083ED005A194B82ED007AC3ED007A184B4C
:10A86800C4ED005A1A78C1ED006A52B922EE052AE1
:10A87800144AA1EE862AA2EEA72A82ED002A012216
:10A888001A70BDEC028BF0BDDB0F49400000344369
:10A898006883002070830020800000206C830020E3
:10A8A80074830020788300208400002054830020D3
:10A8B80088000020588300205C83002060830020EB
:10A8C800658300208C00002070B52DED068B2F4B82
:10A8D800D3ED008A2E4BF7EE007A93ED00AA2D4BAC
:10A8E800F4EEE78AF1EE10FA04460D461646D3ED6B
:10A8F800009A09DCFFEE007AF4EE678AF1EE10FAAE
:10A9080048BFF0EE678A01E0F0EE678A224B9FEDC0
:10A91800238AD3ED006A224B9FED229AD3ED007A69
:10A92800214BD3ED000A214B93ED007A20EE870AE4
:10A9380060EEA00AA6EEA70AE6EEA60A30EE000A26
:10A94800E7EE470AE7EEE70A09F09AFE20EE080A62
:10A9580080EE090A86ED000AB0EE680A09F032FEB8
:10A9680020EE080AF0EE690A80EE090A85ED000A71
:10A97800B0EE4A0A09F084FE20EE080A80EE090AC1
:10A98800BDEC068B84ED000A70BD00BF5883002023
:10A998005C83002060830020800000200000344396
:10A9A80070830020DB0F4940688300206C830020FF
:10A9B8000A4BD3ED007A0A4B60EEA70AD3ED007A72
:10A9C800084BE0EE270AD3ED007A074BE1EE270AA1
:10A9D80093ED000A30EEC00A704700BF5C83002088
:10A9E80058830020608300208C0000202DE9F04768
:10A9F800264C2DED028BD4ED007A94ED028A68EE98
:10AA0800277A054617EE900AF0EE608A10EE10AA33
:10AA1800F9F71AFD064618EE100A0F46F9F714FD65
:10AA280002460B4600201A49F9F7AEFB804650460D
:10AA38008946F9F709FD02460B4640464946F9F7AB
:10AA480057FD02460B4630463946F9F79FFB94ED11
:10AA5800017AD4ED037A67EE877A064667EEA87A1C
:10AA68000F4617EE900AF9F7EFFC0B4602463946F7
:10AA78003046F9F78BFBF9F7D5FFBDEC028B0023C5
:10AA88002060AB62EB622863BDE8F087900000208D
:10AA98000000F03F00000000D0B5194C2DED028BEE
:10AAA800B0EE608AD4ED040A00F0E8FB6068F0EECE
:10AAB800408AF9F7C9FC68EE887A064617EE900ACC
:10AAC8000F46F9F7C1FC0CA3D3E90023F9F710FDF1
:10AAD80002460B4630463946F9F758FBF9F7A2FF0C
:10AAE800BDEC028BD4ED057A07EE100A67EE277AE3
:10AAF800C4ED017AD0BD00BF1F85EB51B89E23403D
:10AB080090000020FFF780BD930770B505460C46FE
:10AB1800164624D191ED030AD1ED040A91ED051AE8
:10AB2800D1ED001A91ED012AD1ED022A9FED183AD4
:10AB3800FFF772FD281D05F1080105F10C02FFF76A
:10AB4800C3FED4ED010A94ED000A94ED021AFFF752
:10AB58002FFFDFED0F0A85ED140AFFF79DFF0A228C
:10AB6800B6FBF2F302FB13628AB9236B33B13034BC
:10AB780094E80F00243585E80F0070BD284694ED51
:10AB88000B0ADFED040ABDE87040FFF72FBF70BD68
:10AB98006F12833B0AD7233C04F01EB938B5CB07A4
:10ABA80004460D4605D40C30214604F1180204F081
:10ABB80077FC0A21B5FBF1F301FB135189B904F0C5
:10ABC800ABFC70B104F12C0204F1240004F128015B
:10ABD80002F09AFD034B1A681AB10FCB303484E89F
:10ABE8000F0038BD808400201FB501A8014604F07D
:10ABF800C7F904F04FFC05B05DF804FB0148FDF708
:10AC0800FBBC00BF2400002013B500200321FAF785
:10AC1800DFFEFEF771FAFAF701FD0190FFF7E4FF96
:10AC280020B901A80121FAF705FEF7E7002401A8D9
:10AC38000121FAF7FFFD21460B48FFF7AFFF224637
:10AC48000A480949FFF760FF09480849FFF7A2FBCE
:10AC580007480549054AFFF7A7FA05480249034A84
:10AC680000F02AF80134E2E75C8500200485002022
:10AC7800AC84002030B50D4D2C7885B09CB9FFF719
:10AC88008BFFFFF73FFFFFF7B9FF04238DE818009C
:10AC9800029423460394064806494FF4E172FAF7F2
:10ACA80079FB01232B7005B030BD00BF588500200B
:10ACB80011AC00089288010810B52DED048B9FEDAA
:10ACC800756A91ED038A90ED080AD2ED017ADFEDFD
:10ACD800720A90ED017A92ED025AD2ED035AD1ED43
:10ACE800043A9FED6E4A91ED053ADFED6D6ADFEDAE
:10ACF8006D4A6D4C28EE068A37EEC77AF0EE488A20
:10AD0800D0ED027AE0EE208A35EE675AD0ED077A68
:10AD180075EEE75AF0EE687AE3EE867A90EE208ACE
:10AD2800B1EE631AE3EE047AB0EE489AE1EE068AD1
:10AD3800A1EE069AA3EE868AE7EE267AF1EE431A8A
:10AD4800E1EE848AA3EE049AA1EE848AF1EE452A04
:10AD5800E2EEA67AE7EE268AB1EE477AA7EE269AC1
:10AD6800A7EE268AE5EEA47AE5EE268AA5EE269ACF
:10AD7800A2EEA68AF5EEC07AB1EE652AF1EE10FAD7
:10AD8800E2EE248AA5EEA49AA2EE248A15DD17EE37
:10AD9800900AF9F759FB41EC100B09F0B5FB51EC9F
:10ADA800100BF9F73FFE07EE900AFDEEE77A17EE73
:10ADB800900A00F05FFA208001E000232380F5EE7E
:10ADC800C08AF1EE10FA15DD18EE900AF9F73CFB8F
:10ADD80041EC100B09F098FB51EC100BF9F722FE2F
:10ADE80007EE900AFDEEE77A17EE900A00F042FAB5
:10ADF800608001E000236380B5EEC09AF1EE10FA9E
:10AE080015DD19EE100AF9F71FFB41EC100B09F0DC
:10AE18007BFB51EC100BF9F705FE07EE900AFDEEEF
:10AE2800E77A17EE900A00F025FAA08001E00023E7
:10AE3800A380B5EEC08AF1EE10FA15DD18EE100AFF
:10AE4800F9F702FB41EC100B09F05EFB51EC100B1B
:10AE5800F9F7E8FD07EE900AFDEEE77A17EE900A9B
:10AE680000F008FAE08001E00023E3802188002058
:10AE7800FDF74AFC61880120FDF746FCA188022005
:10AE8800FDF742FCBDEC048BE1880320BDE81040CF
:10AE9800FDF73ABC0024744B008CB948002474496F
:10AEA800001B374BC0E1644C9C850020B1F5807FC6
:10AEB800136803DC0129B8BF012101E04FF4807158
:10AEC800C3EB0020001201FB0031C1F3C01000EBFE
:10AED8002120116000B2704708B50C4613464FF0A8
:10AEE8005F0282F31188BFF36F8FBFF34F8F124A4F
:10AEF8001249936082E8120011481249224600F074
:10AF08004BF900200146FDF7FFFB01200021FDF76A
:10AF1800FBFB02200021FDF7F7FB03200021FDF7D2
:10AF2800F3FB01F049FD0220012101F013FD04208B
:10AF3800012101F00FFDFEE718B300201F008A2F42
:10AF48006D920008DD880108024B034A1A605860B8
:10AF58009960704718B300201F008A2F064B074AD4
:10AF680019680748914204D15A6806499B6800F05D
:10AF780013B9054900F010B918B300201F008A2F33
:10AF88006D920008F788010814890108012309282F
:10AF980004DD0A22013390FBF2F0F8E71846704707
:10AFA8002DE9F84F824608460D4693461C46FFF7A2
:10AFB800EDFF002D064604D13020D0470120BDE822
:10AFC800F88F05DABBF10A0F02D12D206D42D04768
:10AFD800A6420ADAA41B2646002E03DD3020D047FD
:10AFE800013EF9E724EAE47400E000240126002782
:10AFF8003B46284600213246F9F772FE50EA010323
:10B00800D8464FEAEB7907D006FB09F30BFB073369
:10B01800A6FB0B671F44EBE7304639464B464246D2
:10B02800F9F75EFE06460F4656EA07030ED032468B
:10B038003B4628460021F9F753FE42464B46F9F7AE
:10B048004FFE044B985CD0470134E5E72046BDE845
:10B05800F88F00BF368901082DE9F8432DED028BE2
:10B0680007460E46154600243078002800F08C80EC
:10B07800252840F08580474B19684FF006080136AF
:10B08800324612F8013BC818407880070AD12E2BA7
:10B09800F5D17378C8184078460748BFA3F130083F
:10B0A8001646ECE7662B16461BD003D8582B0DD056
:10B0B800642B04E0732B53D0782B07D0692BD3D1A2
:10B0C80005F10408384629680A2204E0296805F1D0
:10B0D8000408384610220023FFF762FF454604445F
:10B0E800C2E7073525F00703D3E9000103F1080596
:10B0F800F9F798FC08EE100AB5EEC08AF1EE10FADE
:10B1080004D52D20B847B1EE488A0134FDEEC88A2F
:10B118000A2218EE901A00233846FFF741FF04442C
:10B128002E20B847F8EEE88A013438EE688A0A23F8
:10B138000122424503DA0A214B430132F9E707EEBF
:10B14800903AF8EEE77A384628EE278A0A22FDEE8A
:10B15800C87A434617EE901AFFF722FF044483E7A4
:10B16800D5F8008005F104094546C8EB04032B44D3
:10B1780015F8010B08B1B847F7E74D461C4673E7C9
:10B188000136B84701346FE7BDEC028B2046BDE8B5
:10B19800F88300BF2C0600200EB403B503AA52F8AA
:10B1A800041B0192FFF758FF02B05DF804EB03B0EF
:10B1B80070470000F0B54FF0FF330446221A8A4268
:10B1C8001EDA14F8016B07220025F70742BF012792
:10B1D80097403D4312F1FF324FEA5606F5D283EA13
:10B1E80005630822002B4FEA4305B8BF0B4B02F159
:10B1F800FF32B4BF6B402B4612F0FF02F2D1DDE7FD
:10B208001F220020D90742BF01219140084312F1B3
:10B21800FF324FEA5303F5D2C043F0BDB71DC10456
:10B2280010EE103AC3F3C751FF2910B54FEAD37097
:10B2380003D1C3F31602C2B901E08E2906D900284A
:10B2480014BF4FF47C404FF4F84010BD6F290FD95C
:10B25800C3F30034C3F34932A31843EAC033A1F15E
:10B26800700043EA802080B210BD4FF4FC4010BD4E
:10B27800002010BD80F3100080B27047F0EEC07A55
:10B28800F4EEE07AF1EE10FA0BD4B5EEC00AF1EE66
:10B2980010FA02DD30EE600A704704D530EE200A5D
:10B2A80070479FED010A704700000000002103E08D
:10B2B8000A4B5B584350043109480A4B42189A42DA
:10B2C800F6D3094A02E0002342F8043B074B9A42AE
:10B2D800F9D300F00FF8FCF746FF704768BC010887
:10B2E80000000020940600209806002018B30020D3
:10B2F800FEE70000354AD2F8883043F47003C2F8FC
:10B308008830334B1A68002142F001021A609960B4
:10B318001A6822F0847222F480321A602D4A5A6028
:10B328001A6882B022F480221A60D96000910191D3
:10B338001A6842F480321A60254B1A6802F4003207
:10B348000192009A01320092019A1AB9009AB2F554
:10B35800A04FF1D11B6813F4003318BF01230193E8
:10B36800019B012B2FD11A4B1B491A6C42F08052BA
:10B378001A640A6842F440420A609A689A609A68B5
:10B3880042F400429A609A6842F4A0529A60134AC2
:10B398005A601A6842F080721A6019680C4A89016A
:10B3A800FBD50F4B40F205711960936823F0030336
:10B3B8009360936843F002039360054B9B6803F026
:10B3C8000C03082BF9D102B0704700BF00ED00E074
:10B3D8000038024010300024007000400854400734
:10B3E800003C024037B50023114C01930546032069
:10B3F80003F0E9FA2A68013C1369019314D0019B10
:10B40800002BF4DA019B43F001030193019B1361C4
:10B418002968074B0A690192013B02D0019AD207B9
:10B42800F8D4032003F0CFFA002003B030BD00BFEA
:10B43800410D030010B5C4786CB900EB82000333EA
:10B44800D0F8D0009B1022469A4204D051F82240EE
:10B4580004600132F8E7002010BD10B50332D0F8BF
:10B46800D03092100020904204D01C6841F820404F
:10B478000130F8E701EB800010BD00000122F0B5B3
:10B488000023827001294FF04002C37082800CD1E2
:10B4980008230370042343704FF4A073C38002236E
:10B4A8000372C1724FF0A04309E041B90C23037045
:10B4B800062343704FF4A063C380224BC17203F587
:10B4C800006245780261C36001461A460024AC4216
:10B4D80002F1200601F1040108D202F5106702F515
:10B4E80030620A654F6101343246F0E703F5806245
:10B4F8004261044603F58862C0F8CC2014F88C2B0E
:10B5080003EB421503F5A06105F5A065A94203D038
:10B5180044F8041F2031F9E703EB023203F58051A8
:10B5280000F1CC0402F58052914204D044F8041F83
:10B5380001F58051F8E703F56063C0F80C3100208D
:10B54800F0BD00BF0000044038B5037A012B054662
:10B558004FF0000450F80C2F1FD1936B697A64F3F5
:10B56800104309B143F480139363EA68D3686FF317
:10B5780086136FF396536FF351436FF3D343D3603E
:10B58800FFF730FFEB78012B19D1052363F344044F
:10B59800EB6844F020049C6011E0D36843F040035A
:10B5A800D360FFF71FFF6B7AEA68002B0CBF4FF4DC
:10B5B80034134FF474139363142003F00EFAEB78EA
:10B5C800012B01BFEB689C68052262F3440404BFA9
:10B5D80044F020049C60002038BDC268936843F0A2
:10B5E8000103936000207047C268936823F0010349
:10B5F800936000207047000007B500230193019B6A
:10B6080043F020030193019B01F01F0123F4F86329
:10B6180043EA81110191C368019A1A61C168074B15
:10B628000A690192013B02D0019A9206F8D40320DC
:10B6380003F0C9F9002003B05DF804FB410D0300D5
:10B6480007B500230193019B43F010030193C368DE
:10B65800019A1A61C168074B0A690192013B02D03D
:10B66800019AD206F8D4032003F0ADF9002003B004
:10B678005DF804FB410D030008B5C268D3680129D1
:10B688006FF35D736FF39E7302D143F0005302E0D2
:10B6980009B943F08043D360322003F09EF90020BB
:10B6A80008BDC368586900F0010080F001007047C8
:10B6B800C3685A699869104070470269136861F352
:10B6C800010313607047000010B5C268002393613E
:10B6D800C1686FF080424A61C1684FF0FF344C6026
:10B6E800C1684A61C26809499161C278C1689A42D1
:10B6F80008BF102343F470138A6943F4605343F07E
:10B70800080313438B61002010BD00BF00080080B0
:10B7180038B500231D46D0F80C311D600269136846
:10B7280065F3CC231360C37A012B044625D103218A
:10B73800FFF7C3FFE36880225A62E1684FF4001301
:10B7480062F30F038B62A02363F30F05E36862F3D0
:10B758001F45C3F804514FF4907363F30F05E36872
:10B76800C0F22005C3F808514FF4A07363F30F0526
:10B77800E3686FF31F45C3F80C5110212046FFF70B
:10B788003BFF2046FFF75CFF226900231361226913
:10B79800536122694FF0FF3191612269D36104F14D
:10B7A800180261788B4210D2106801680029ACBF7A
:10B7B80000214FF09041016011680020086152F8A3
:10B7C800041BFF2088600133EBE704F154030022D7
:10B7D80061788A4210D2186801680029ACBF00213C
:10B7E8004FF09041016019680020086153F8041B6C
:10B7F800FF2088600132EBE72269136943F4807304
:10B808001361E378012B01BF054B402262F35943D2
:10B818002269204608BF1363FFF756FF002038BD92
:10B828000301010003699B68C3F34103022B05D0A0
:10B83800032B01D0012B03D1022070470120704750
:10B8480003207047036981699A680B68C2F3410253
:10B85800022A06BF032262F30A036FF30A030B608E
:10B868000269536843F480735360002070474A7834
:10B878000B7830B5012A15BF00EB830200EB830576
:10B88800556DAD691CBF012202FA03F34FF00004A5
:10B898000CBF9A4063F31F442B6808BF62F30F0480
:10B8A8001A040DD48A6862F30A03CA7862F39343D0
:10B8B800CA8862F3995343F0805343F400432B60E2
:10B8C8000269D3692343D361002030BD30B54A787B
:10B8D8000B78012A15BF00EB830200EB8301516D41
:10B8E80089694FF000052C466FF3CF3508BF9A40A1
:10B8F8000D601ABF012202FA03F362F30F04026912
:10B9080018BF63F31F44D36923EA0403D3610020FB
:10B9180030BD70B54E780B4609785A69012E00EB98
:10B92800810146D18D6929682C6962F3120412B924
:10B9380066F3DC440BE09E683244013AB2FBF6F24F
:10B9480062F3DC44DA78012A08BF62F35E742C6182
:10B95800C278012A1A7805D100EB82021C69926923
:10B9680054610BE0DC78012C08D05C6934B10669BD
:10B978000125746B05FA02F222437263DA78012A10
:10B9880007D102699268D20554BF41F0005141F0D5
:10B9980080511A7800EB820241F0044192691160EB
:10B9A800DA78012A37D1D9681A789B8AFFF742FDDD
:10B9B80031E04E6D9D68316834692AB965F3120427
:10B9C800012262F3DC440AE02A44013AB2FBF5F2B0
:10B9D80062F3DC44C2F309026A4362F3120434617D
:10B9E800C278012A01BF1A781C6900EB8202526DE5
:10B9F80008BF5461DA78012A06D15A7912B141F0A8
:10BA0800005101E041F080511B7800EB830041F0C8
:10BA18000441436D1960002070BDF7B54F784D693A
:10BA2800012F3CD18669346833690093DAB2C3F3D5
:10BA3800074335B965F306028DF8002067F3C403A0
:10BA48000EE08F68BD428CBF67F3060265F30602FD
:10BA58008DF800204FF0010288BF4F6162F3C403E4
:10BA68008DF80230009B3361C378012B02BF0B783D
:10BA78000A6900EB830344F0044404BF9B695A61DC
:10BA88003460C378002B34D14B69002B31D0006966
:10BA98000978426B01238B401343436329E00E78F6
:10BAA8008F6800EB8606736D1C681B690093DAB219
:10BAB800C3F3074305B14F6167F306028DF8002011
:10BAC800012262F3C4038DF80230736D009A1A6183
:10BAD800C378012B02BF0B780A6900EB830344F09B
:10BAE800044404BF5B6D5A610B7800EB8300436D1F
:10BAF8001C60002003B0F0BD4B78012B0B7800EBE5
:10BB0800830006D182691368002B04DA43F080436E
:10BB180001E0426D136843F400131360002070477E
:10BB28004B78012B0B78C97800EB8300A1F1020157
:10BB38000CBF8269426D136801296FF3555398BF92
:10BB480043F0805313600020704702699369D069FD
:10BB58001840000C704700EB810102694B6D9B682F
:10BB680050691840704703699869DB69184080B2CA
:10BB7800704782B000230093C0238DF80330012260
:10BB88004FF0000362F3C4038DF8023018238DF8D8
:10BB98000030436D009A1A61C378012B08D1436DB8
:10BBA80000F2CC525A61436D1A684FF080221A6035
:10BBB80002B070472DE9F04F85B00446FFF771FDDC
:10BBC80008B9002026E22046FFF772FD0646002845
:10BBD800F7D0C0F3074909F0080303F0FF00002B72
:10BBE80055D02046FFF7B1FF04F154078046A3461D
:10BBF8004FF0000AB8F1000F48D018F0010F3DD0FF
:10BC08005FFA8AF2114620460192FFF7A4FF10F06E
:10BC1800010F0546019A22D03B6801259D60E37813
:10BC2800AB4201BF3B681B69C3F31201DBF87C33ED
:10BC380004BF5B1ACBF88C33A74B1B6820461B68E4
:10BC480011469847E378012B09D1BAF1000F06D1C4
:10BC580094F81131052B02D12046FFF78AFFAB0774
:10BC680042BF3B6802259D602D0707D59A4B1B688C
:10BC780020469B6898473B6808259D600AF1010AA1
:10BC88004FEA580804370BF1280BB3E7012019F0E5
:10BC9800040F00F0A1802046FFF765FF04F11808A3
:10BCA800824627464FF00009BAF1000F00F0938052
:10BCB8001AF0010F00F0878022695FFA89FB156985
:10BCC800536B04EB8B0123FA0BF38969DB01896859
:10BCD800DBB22B4303EA0105E8071CD5536B0125AA
:10BCE80005FA09F123EA01035363D8F800309D608F
:10BCF800794B1B6820465B6859469847E378AB4206
:10BD080009D1B9F1000F06D194F81131042B02D1F1
:10BD18002046FFF72EFF290742BFD8F80030082534
:10BD28009D60EA0642BFD8F8003010259D606B067A
:10BD380042BFD8F8003040259D60A80742BFD8F818
:10BD4800003002259D6029063DD5D7F83031D7F857
:10BD580034515D1BD7F82431AB4228BF2B46DD1C7C
:10BD6800AD08D8F800309B699BB2AB4227D9D7F809
:10BD78003421D7F830319A4221D203B3C2EB030CF5
:10BD8800D7F82431D7F828119C4528BF9C461FFABC
:10BD98008CF320465A460CF10305CDF804C0FFF792
:10BDA80049FBD7F82831DDF804C06344C7F82831C7
:10BDB800D7F834316344AD08C7F83431D1E7D8F83F
:10BDC800003080259D6009F101094FEA5A0A08F1FF
:10BDD8000408283768E70120F5B2AA0742BFE368DC
:10BDE80002225A61002E19DAA37A43B1D4F80C3131
:10BDF800D4F80C216FF341036FF300031360226939
:10BE0800536823F001035360334B1B6820469B693A
:10BE18009847E3684FF000425A610120C6F30727AC
:10BE28003B072FD500238DF80F3094F812318DF889
:10BE38000F30294B1B6820465B6998472369E268E5
:10BE48009B684FF400615161A27AD2B1D90718D525
:10BE580094F81531012B14D19DF80F30032B10D114
:10BE6800D4F80C21136843F001031360D4F80C21B3
:10BE7800136843F003031360184A136943F0060379
:10BE8800136101202A0708D5134B1B682046DB687D
:10BE98009847E36808225A610120EB0640D5E2681A
:10BEA800936923F010039361E368D3F82080C8F303
:10BEB8004343022B08F00F0512D0062B2AD1204647
:10BEC80004F2CC510822FFF7C8FA282303FB0545E2
:10BED800C8F30A1819E000BFAC01002000ED00E02B
:10BEE80047F6F07308EA0303A3B1282303FB0545CB
:10BEF800C8F30A182046D5F880134246FFF7ADFA72
:10BF0800D5F880334344C5F88033D5F88C3343449F
:10BF1800C5F88C33E268936943F0100393610120FC
:10BF2800FD063BD5226953684FF0000823F0010352
:10BF3800536020464146FFF75FFB04F11402434675
:10BF480061788B4207D252F8040FFF218160D06BD1
:10BF580001338160F4E723694FF0FF329A610125CC
:10BF6800236965F30F0865F31F48C3F81C8022692D
:10BF78000B23536122691361226913686FF30A1353
:10BF880013602046FFF7F5FDE3684FF480525A61CD
:10BF9800224B1B6820461B6998472846B9061FD5BF
:10BFA8002046FFF74FFCE3682046DD68FFF73AFCC0
:10BFB80003280BBF00230123A370A3700BBF4FF40A
:10BFC80000734023A380A3800CBF0923052363F3D8
:10BFD8008D25E368DD60E3684FF400525A61012063
:10BFE800C6F30746F20609D50C4B1B682046DB69E9
:10BFF8009847E3684FF480125A610120B30609D5C7
:10C00800064B1B6820461B6A9847E3684FF40012EA
:10C018005A61012005B0BDE8F08F00BFAC010020D7
:10C028000148FFF7C7BD00BF8094002038B504461B
:10C03800FFF724FA01230022607884F8123184F88B
:10C04800142104F21D13824203F1280312D20121A4
:10C0580003F8281C4025002103F8292C23F8232C59
:10C0680003F8261C43F8215C43F81D1C43F8151CF3
:10C078000132E8E704F275330022824203F1280313
:10C0880011D20021402503F8292C23F8232C03F88A
:10C09800281C03F8261C43F8215C43F81D1C43F8B0
:10C0A800151C0132E9E72046FFF79EFA2046FFF704
:10C0B8004BFA20460021FFF7DFFA2046FFF728FB5E
:10C0C8002046BDE83840FFF788BA70B5CDB215F004
:10C0D800800F01F07F044FF0280615BF06FB04010E
:10C0E80006FB010101F58E7101F55D71E4B2ED0900
:10C0F8000C704D708A60CB7005B1CC80022B04BFE8
:10C1080000230B71FFF7B3FB002070BDCBB213F017
:10C11800800F10B54FF0280201F07F0415BF02FB15
:10C12800040102FB010101F58E7101F55D71DB0966
:10C138000C704B70FFF7CAFB002010BDF8B501F07A
:10C148007F05282606FB05F40119044404F56077E9
:10C15800C4F88833002384F87453C4F88023C4F8DF
:10C168008C3384F87533C37806FB0505012B08BFAB
:10C178007A6095F8743301F55D7113B9FFF74DFCDA
:10C1880001E0FFF7C6FB0020F8BDF8B501F07F0518
:10C1980028246C430119044404F59476C4F8282132
:10C1A800C4F82C210127002284F81D7184F81C5141
:10C1B800C4F8342101F58E71B36015B9FFF72DFC71
:10C1C80001E0FFF7A6FB0020F8BDCBB213F0800F0B
:10C1D80010B54FF0280201F07F0415BF02FB0401DF
:10C1E80002FB010101F58E7101F55D710122DB0988
:10C1F8008A700C704B70FFF77FFC002010BD38B5BB
:10C20800CBB213F0800F01F07F054FF0280215BF65
:10C2180002FB050102FB010101F58E7101F55D715B
:10C228000024DB098C700D704B70FFF779FC2046F9
:10C2380038BD10B502690024136861F30A1423435A
:10C24800136010BD38B504460D46C4F83C21C4F847
:10C2580038211346022280F8112100212A46FFF7CF
:10C2680094FF002038BD10B50C4613460021224625
:10C27800FFF78BFF002010BD10B50C4613460021B8
:10C288002246FFF75BFF002010BD10B500210423F4
:10C2980004460A4680F811310B46FFF776FF204620
:10C2A800FFF767FC002010BD10B5002105230446E8
:10C2B8000A4680F811310B46FFF740FF2046FFF78A
:10C2C80058FC002010BD90F8CC350B7090F8CD3597
:10C2D8004B7090F8CF2590F8CE3503EB02234B80B6
:10C2E80090F8D12590F8D03503EB02238B8090F895
:10C2F800D32590F8D23503EB02239BB2CB80C0F84C
:10C308004031012380F81131704710B5802104466F
:10C31800FFF75BFF20460021FFF757FF2046BDE8E7
:10C328001040FFF726BC000073B54B7804460D4655
:10C33800092B00F21681DFE813F0C700020114018F
:10C34800DA0014016E000A001401B9008D004B8850
:10C358001A0A013A062A00F20481DFE812F00700FF
:10C368001A0027000201020102010201D0F8EC358F
:10C3780080781B680DF106019847EB88402B014631
:10C3880003D094F81231012B35D10823ADF80630CB
:10C3980031E0D0F8E43580789B6A0DF106019847C2
:10C3A800022343700146C4F8F00524E0DBB2052BF4
:10C3B80000F2D780DFE803F003070B0F1317D0F85C
:10C3C800EC355B6812E0D0F8EC359B680EE0D0F8ED
:10C3D800EC35DB680AE0D0F8EC351B6906E0D0F8EC
:10C3E800EC355B6902E0D0F8EC359B69A0780DF17B
:10C3F800060198470146BDF80630002B00F0B580CD
:10C40800EA88002A00F0B1809A4228BF1A46ADF89F
:10C418000620204668E08B88002B40F0A280CB885D
:10C42800002B40F09E8090F812318E78032B06F096
:10C438007F0600F0968080F814613146FFF7F9FE18
:10C448002046FFF722FF0EB1022300E0012384F803
:10C4580012318AE08978464E0129317000F28180D4
:10C4680090F81231022B02D0032B09D079E0002971
:10C4780061D00121032380F8101180F8123111E0F6
:10C4880039B9022380F8123180F8101100F037FA18
:10C4980051E090F8101101294DD000F030FA3178B0
:10C4A80084F81011204600F01EFA44E0CA88012AD8
:10C4B80057D190F81231022B04D0032B51D100F53B
:10C4C800887111E02B490FE090F81231023B012BE3
:10C4D80047D8294B01221A60D0F818210AB1032243
:10C4E8001A60254920460222FFF7ACFE3DE04B8842
:10C4F800012B2DD0022B38D18B8813F0FF0F34D1AC
:10C5080002691B0A013B5268042B0FD8DFE803F0CD
:10C51800030507090B00012306E0022304E00323B7
:10C5280002E0042300E0052363F30612134B1A60AC
:10C53800012384F816312046FFF7A7FE15E090F88E
:10C548001231023B012B0CD84B88012B0DD1002353
:10C55800C4F81831D4F8E43520469B682946984732
:10C56800E9E720462946FFF7D0FE002002B070BD5B
:10C57800A8850020B0850020A48500207C94002098
:10C5880038B590F81231032B04460D460CD10B79BF
:10C59800012B09D8D0F8E4359B689847EB882BB96C
:10C5A8002046FFF772FE01E0FFF7AFFE002038BD1E
:10C5B80070B54E788A88012E04460D46D3B210D045
:10C5C80027D3032E50D190F81221022A28D0032A0B
:10C5D80048D14A889AB95E0611D01946FFF7F5FD89
:10C5E8000DE090F81221022A1AD0032A3AD14A887B
:10C5F800002A39D1590608D01946FFF700FED4F8A9
:10C60800E43520469B68294698472046FFF73DFEBB
:10C618002AE090F81251022D02D0032D06D021E015
:10C628005A0621D01946FFF7D0FD1DE012F0800F01
:10C638004FF028000D4910D003F07F0200FB0243A1
:10C6480093F81E310BB1012300E000230B60204654
:10C6580006490222FFF7F6FD06E000FB034393F8C4
:10C668007633EFE7FFF751FE002070BDAC85002060
:10C6780030B5C8B10446231A14F8015BDBB2002DAB
:10C68800F9D15B00023313800B7003234B70013820
:10C69800022310F8014F3CB15A1CD2B2CC540233D9
:10C6A8000024DBB28C54F4E730BD10B5D0F8E8357F
:10C6B80004461B699847032384F81231002010BDF3
:10C6C80008B590F8123180F81331042380F812313C
:10C6D800D0F8E835DB689847002008BD08B5D0F8E1
:10C6E800E435DB6903B19847002008BD08B5D0F8E8
:10C6F800E4351B6A9847002008BD08B5D0F8E43532
:10C708005B6A9847002008BD002110B50B46044617
:10C718004022FFF7DAFC8021402220460023FFF761
:10C72800D4FC012384F81231D4F8E835A0785B688A
:10C738009847002010BD13B569460446FFF7C3FDAE
:10C748009DF8001001F01F03012B0CD006D3022B1B
:10C758000ED120466946FFF72BFF0EE020466946BA
:10C76800FFF7E2FD09E020466946FFF709FF04E00C
:10C77800204601F08001FFF728FD002002B010BD1F
:10C7880038B50446002949D190F81131022B39D126
:10C79800D0F83821D0F824319A4213D9C178012928
:10C7A80008BFD0F82811A2EB030208BF5B18C0F835
:10C7B800382108BFC0F82831D4F8281192B2FFF701
:10C7C80052FD1FE0D0F83C21B2FBF3F503FB152521
:10C7D8005DB99A4209D3D0F840319A4205D22A4627
:10C7E800FFF741FDC4F840510CE0D4F8E435DB68AC
:10C7F8002BB194F81221032A01D1204698472046EC
:10C80800FFF752FD94F81631012B10D1094A23691C
:10C8180012685A60002384F8163108E0D0F8E4352D
:10C828005B6923B190F81221032A00D198470020B0
:10C8380038BD00BF7C94002010B5044661BB90F859
:10C848001131032B31D1D0F89023D0F87C339A42A0
:10C8580015D9C178012908BFD0F88013A2EB0302CB
:10C8680004BFC918C0F880139A42C0F8902328BFA3
:10C878001A46D0F8801392B2FFF7FEFC15E0D0F804
:10C88800E4351B6923B190F81221032A00D1984797
:10C898002046FFF7FAFC08E0D0F8E4359B6923B19D
:10C8A80090F81221032A00D19847002010BD2DE9E5
:10C8B800F0410446164698460D46069F02F024F8B5
:10C8C80020462946C4F8E485C4F8E875C4F8EC6540
:10C8D800FFF7ACFBD4F8E8351B6898472046BDE85D
:10C8E800F04102F059B810B5D0F8E43504461B6899
:10C8F8009847D4F8E8359B689847002010BD08B5DC
:10C90800D0F8E4355B689847002008BD08B5FBF708
:10C9180034FDFBF73BFC002008BD00000A4A52F832
:10C9280020200346012A0948094A50F8230008BF75
:10C9380081F0010119B132F82310FAF77EBD32F8FF
:10C948002310FAF77CBD00BFAC890108D48901081F
:10C95800C0890108052801D8FFF7E0BF704700002B
:10C96800F7B5124B1C781D46ECB90C200121FAF7DB
:10C97800D7FE0F4B53F8243000930E4B012653F883
:10C9880024008DF80460002769468DF806708DF83C
:10C998000560FAF70DFDE0B239463444FFF7DAFFD7
:10C9A800052CE6D12E7003B0F0BD00BFB485002081
:10C9B800C0890108D489010810B50024E0B200211B
:10C9C8000134FFF7C7FF052CF8D110BD012008B5C9
:10C9D8000146FFF7A3FF03200121FFF79FFF022075
:10C9E8000021FFF79BFF00210420FFF797FFFA20A3
:10C9F800F8F782FF01200021FFF790FF03200021B4
:10CA0800FFF78CFF02200121FFF788FF0121042096
:10CA1800FFF784FFFA20F8F76FFFFFF7CDFF00203C
:10CA28000121FFF77BFF014B187808BDB485002072
:10CA3800054B1A7832B9054A1060054A6921117008
:10CA480001221A70704700BFB6850020B885002003
:10CA5800B585002010B52DED028BB4EEC01AF1EEAD
:10CA680010FA86B0F0EE608AB0EE418A044604D42B
:10CA7800B4EEE01AF1EE10FA18DD10EE100AF7F72E
:10CA8800E3FCCDE9000118EE900AF7F7DDFCCDE9EB
:10CA9800020118EE100AF7F7D7FC2246CDE9040187
:10CAA80005480649FEF778FB002000E0012006B0A3
:10CAB800BDEC028B10BD00BF6D920008E88B010829
:10CAC8002DE9F04FA1B0002708AE39460C223046B8
:10CAD8000DF12C090497ADF814700DF1380A0AF01D
:10CAE80096FD39460C224846CB4DCC4C0AF08FFDBA
:10CAF8000DF1440839460C2250460AF088FD3946A3
:10CB08000C2240460AF083FD21782868192202ABDE
:10CB180000F02AFB217828681A220DF1090300F099
:10CB280023FB217828681B220DF10A0300F01CFB67
:10CB3800217828681D220DF10B0300F015FB2178E0
:10CB480028681C2203AB00F00FFB21782868192203
:10CB58003B4600F068FB217828681A22022300F07F
:10CB680062FB217828681B22012300F05CFB2178F6
:10CB780028681D22022300F056FB286821781C2211
:10CB8800012300F050FB4FF0C80B04AF2178009749
:10CB98003B220623286800F0CAFA9DF810209DF869
:10CBA80011302178009743EA02230B9A286802FA89
:10CBB80083F30B939DF812209DF8133043EA022368
:10CBC8000C9A02FA83F30C939DF814209DF8153003
:10CBD80043EA02230D9A02FA83F30D9343220623B4
:10CBE80000F0A5FA9DF910209DF8113043EA0223C0
:10CBF800089A134408939DF912209DF8133043EACC
:10CC08000223099A134409939DF914209DF81530BD
:10CC180043EA02230A9ABBF1010B13440A93B4D1E5
:10CC28005B4659F823204FF0C80B92FBFBF249F8FA
:10CC3800232056F8232092FBFBF246F823200133E9
:10CC4800032BEED1217828681C22E02300F0EBFAB0
:10CC5800286821781B22E02300F0E5FA1920F8F76C
:10CC68004BFE04AF217800973B220623286800F08A
:10CC78005EFA9DF810209DF811302178009743EA5C
:10CC880002230E9A286802FA83F30E939DF8122065
:10CC98009DF8133043EA02230F9A02FA83F30F93A5
:10CCA8009DF814209DF8153043EA0223109A02FAE1
:10CCB80083F310934322062300F039FA9DF81020DD
:10CCC8009DF8113043EA0223119A02FA83F3119373
:10CCD8009DF812209DF8133043EA0223129A02FAB3
:10CCE80083F312939DF814209DF8153043EA02232C
:10CCF800139ABBF1010B02FA83F31393B1D15B468C
:10CD08005AF8231058F82320C82091FBF0F192FB21
:10CD1800F0F24AF8231048F823200133032BEFD10F
:10CD2800217828681C22002300F07DFA21782868E1
:10CD38001B22002300F077FA06AF1920F8F7DCFD74
:10CD4800217828680D223B4600F00EFA21782868E1
:10CD58000E220DF1190300F007FA217828680F2236
:10CD68000DF11A0300F000FA2178286800220DF16D
:10CD78001B0300F0F9F921782868012207AB00F0BD
:10CD8800F3F90DF11D0328682178022200F0ECF96F
:10CD98000023FA5C1AA91AB1013A214830F8122086
:10CDA80041F823200133062BF3D1002320AAD718FA
:10CDB80059F803005AF80320DFED1A7A121AC858F6
:10CDC800121A06EE902A07EE100AF8EEE66AB8EE96
:10CDD800C76A66EEA76ACA18C6EE866AF05847EDB3
:10CDE8000C6AD76820AA02EB030E58F80320121A1F
:10CDF800D21B07EE102AB8EEC77A043327EE277A3B
:10CE080007EE907AF8EEE77A0C2BC7EE277A4EED0C
:10CE1800097ACBD108E000BFB8850020B58500208D
:10CE2800E88901080000C84221789DF80830286880
:10CE3800192200F0F8F921789DF8093028681A229B
:10CE480000F0F1F921789DF80A3028681B2200F0DB
:10CE5800EAF921789DF80B3028681D2200F0E3F9E3
:10CE6800286821789DF80C301C2200F0DCF9BAEE15
:10CE78000C0AF2EE0C0A9DED171A1F48FFF7EAFD9F
:10CE880008B9002034E0BAEE0C0AF2EE0C0A9DED67
:10CE9800181A1A48FFF7DEFD0028F2D0BAEE0C0A7D
:10CEA800F2EE0C0A9DED191A1548FFF7D3FD00287C
:10CEB800E7D0BAEE0C0AF2EE0C0A9DED141A1148EE
:10CEC800FFF7C8FD0028DCD0BAEE0C0AF2EE0C0A17
:10CED8009DED151A0C48FFF7BDFD0028D1D0BAEE1C
:10CEE8000C0AF2EE0C0A9DED161A0848FFF7B2FD7F
:10CEF80021B0BDE8F08F00BF308C0108378C0108E5
:10CF08003E8C0108458C01084B8C0108518C0108A6
:10CF1800034A03461068034A1178192200F083B9BE
:10CF2800B8850020B585002007B5074B1978019012
:10CF380003230093054B1A221868022300F09BF97B
:10CF480003B05DF804FB00BFB5850020B88500205C
:10CF580007B5074B1978019002230093054B1B2254
:10CF68001868042300F087F903B05DF804FB00BFDC
:10CF7800B5850020B885002007B5074B19780190C2
:10CF880002230093054B1C221868042300F073F950
:10CF980003B05DF804FB00BFB5850020B88500200C
:10CFA80007B5064B1978064B0090186837220123FD
:10CFB80000F043F903B05DF804FB00BFB58500201D
:10CFC800B8850020034A03461068034A11783822BE
:10CFD80000F029B9B8850020B58500202DE9F34176
:10CFE8001D46184B184C0F461978184B009480466C
:10CFF800164618683B220E2300F099F822786378C9
:10D0080043EA0223A8F80030A278E37843EA02232F
:10D018003B802279637943EA02233380227A637A58
:10D0280043EA02232B80A27AE37A43EA0223089A8E
:10D038001380227B637B43EA0223099A138002B0A0
:10D04800BDE8F081B5850020BC850020B8850020AA
:10D0580007B5064B197801230093054B6B22186816
:10D06800072300F0EAF803B05DF804FBB58500205B
:10D07800B885002007B5064B1978064B009018684C
:10D088006B22062300F0D9F803B05DF804FB00BF5B
:10D09800B5850020B885002007B5074B80F0010052
:10D0A8001978064B009018686B22032300F0C5F826
:10D0B80003B05DF804FB00BFB5850020B8850020EB
:10D0C80007B5074B1978019003230093054B6B2292
:10D0D8001868022300F0CFF803B05DF804FB00BF26
:10D0E800B5850020B885002013B5074B074C197883
:10D0F800074A0194062300931068752200F03CF853
:10D10800207802B010BD00BFB5850020BC85002086
:10D11800B885002008B5FFF7E7FFA0F138035842AB
:10D12800584108BD08B500F0E1FD012008BD30B543
:10D1380014468BB0FF2C05460E9A184605D100926E
:10D1480005A8012200F0D4FD08E001230093019016
:10D15800029205A80022234600F0D8FD284605A91A
:10D1680000F0E3FD0BB030BD07B500930123FFF7D6
:10D17800DEFF03B05DF804FB37B51C460DF107036D
:10D188009DF81850FFF7F0FF58B10122631BAA4021
:10D198000133013A9DF807109A400A401A41079B4B
:10D1A8001A7003B030BD1FB51C460DF10F03009374
:10D1B8000123FFF7BCFF9DF80F200123A340134074
:10D1C800069A137004B010BD30B58BB01546012215
:10D1D8008DE80C000E9B029304462B4605A800F030
:10D1E80095FD204605A900F0A0FD0BB030BD70B537
:10D1F8008AB0FF2A054614461E460E9805D10090AF
:10D20800002205A800F074FD07E0002202908DE8D6
:10D21800440005A8234600F079FD284605A900F03A
:10D2280084FD0AB070BD1FB504AC04F8013D0123AC
:10D238000094FFF7DCFF04B010BDF7B51F460DF1F1
:10D2480007030D4614460646FFF78EFF9DF820108B
:10D258009DF807200123BB4011B11343DBB201E065
:10D2680022EA03033046294622468DF80730FFF7A5
:10D27800DAFF03B0F0BD2DE9F3411F460DF10703B6
:10D2880006460D4614469DF82080FFF76DFFC8B18D
:10D298000122C8EB070102FA08F29DF82430013197
:10D2A800013A8A408B409DF80710DBB221EA02015F
:10D2B8001A4041EA02033046294622468DF80730D3
:10D2C800FFF7B1FF02B0BDE8F08130B58BB015466D
:10D2D80000228DE80C000E9B02930446012205A84B
:10D2E8002B4600F013FD204605A900F01EFD0BB0EB
:10D2F80030BD10B500234A789A4012F0800F14BF51
:10D308004B221D2220F813200133082BF3D100F102
:10D318000E0400230A789A4012F0800F03F10103EB
:10D3280014BF4B221D22082B24F8022FF2D11E30E5
:10D3380000238A789A4012F0800F03F1010314BF8A
:10D348004B221D22082B20F8022FF2D110BD00001D
:10D358002DE9F0410220494E0121FAF7E1F90220B6
:10D3680001210024FAF7F4F9012520234FF00208DF
:10D37800314643483360102786F80480B471F4714D
:10D388007571FAF715F831463D48357186F807800A
:10D398003760FAF70DF8424639480521FAF756F88A
:10D3A800384939480C8068234B600C814C808C725A
:10D3B800FAF786FB354934484D8060230B808C6032
:10D3C8008C81FAF70BFC30480821FAF7D1FC2E487B
:10D3D8002946FAF789FD29464FF40010FAF7A0F913
:10D3E8002B48F9F735FE2B492B4B4B602B4B8B60A9
:10D3F8004FF400530B624FF40063CB614023CB60C2
:10D408004FF480734B624FF480338B624FF4806625
:10D418004FF020631E480B608E614C630C614C61B9
:10D428008C63CC620C63F9F799FE1D480D23437099
:10D4380007708470C570FAF74BFE154839462A46BE
:10D44800F9F7FCFE124808212A46F9F7F7FE0E48BC
:10D4580031462A46FAF774FD032228462146F8F792
:10D4680087FD104A106030B1214622462346BDE8A8
:10D47800F041F8F7B1BDBDE8F08100BF3C8600205F
:10D4880000040240CC850020000400401C860020D7
:10D4980088600240D8850020380400404486002077
:10D4A800388600201886002038B50C1E05462CDD6D
:10D4B800164B00214FF0FF3218680B46F8F728FF8B
:10D4C800134B14481C60144B29461D60FFF711FFCD
:10D4D800124B1348012294421A601C4604D10021C1
:10D4E80030220AF094F802E0E91CFFF702FF0D4829
:10D4F80002232360302343600121F9F759FE0A48CB
:10D508000121BDE83840FAF725BB38BD1886002050
:10D5180014860020448600203086002034860020AF
:10D52800748600208860024000040040F7B5254D4D
:10D538002C683CB924482146FAF70CFB23482146BD
:10D54800F9F736FE21482249F9F798FE18B11F4825
:10D558001F49F9F7BBFE1D481E49F9F78FFE28B190
:10D568001A481C49F9F7B2FE1B4800E01B481C4E3C
:10D578002B6834685F1CA7420FDB9C4204DB002148
:10D5880030220AF044F806E0164B1B6804EB44010D
:10D598001944FFF7AEFE0134346033689F420EDA57
:10D5A800114B01A91868F8F763FE07480021FAF73C
:10D5B800D1FA06480021F9F7FBFD00232B6003B0E0
:10D5C800F0BD00BF148600200004004088600240BF
:10D5D8000044002000880020748600204486002033
:10D5E80034860020308600201886002010B5074CAD
:10D5F80023784BB9064B1860064B5D2205201A703C
:10D60800F8F77AF901232370012010BDA5860020C0
:10D61800A8860020A48600201FB50C4B187888B176
:10D628000B4B19780DF10F0300930A4B0F22186862
:10D638000123FFF77CFD28B19DF80F00A0F1BD0381
:10D648005842584105B05DF804FB00BFA58600208C
:10D65800A4860020A88600207FB5134A03461078C8
:10D66800F8B1124C124E0DF10F058BB1C6238DF88F
:10D678000F3031780095202201232068FFF7B7FD8D
:10D688000F238DF80F30317800952068102205E0BF
:10D69800317820688DF80F30009520220123FFF79C
:10D6A800A6FD04B070BD00BFA5860020A886002096
:10D6B800A4860020D0ED007AF5EEC07AF1EE10FADB
:10D6C80008B514DD9FED0B0ADFED0B0A80EE270A83
:10D6D80006F0D8FFF7EE007A30EE670ADFED077A3A
:10D6E80020EE270ADFED067A80EE270A08BD9FEDB7
:10D6F800050A08BDCDEC7D4454D4423E331395430E
:10D70800F4FDD43B00000000F0B51E4B85B00E467A
:10D71800197802AB00931C4B044615461868A822DA
:10D728000523FFF704FD9DF809309DF80A209FEDB9
:10D73800177A1B0243EA02429DF80830134307EEAA
:10D74800903A9DF80C209DF80B30FAEECA7A43EA1D
:10D7580002231BB2C4ED007A07EE903AF8EEE77A9E
:10D768000746C7EE877A20469FED097A77EE877AD3
:10D77800C6ED007AFFF79EFF384685ED000A05B032
:10D78800F0BD00BFA4860020A88600200000F0435A
:10D7980000002A4203681B6840F201221A800368CD
:10D7A8004FF4C06118680022F9F72CBF10B5036860
:10D7B80004460021186CF9F7FBFC2368186C996C77
:10D7C800F9F784FD236800211868F9F703FF236837
:10D7D80000211868F9F70AFF23681421186C002241
:10D7E800BDE81040F9F72ABD07B502A9002341F8A2
:10D7F800043DF8F73DFD019B3BB1054B4FF08052CE
:10D808001A60BFF34F8FBFF36F8F03B05DF804FB4F
:10D8180004ED00E010B50368204904461868F9F7DC
:10D82800FAFEB0B1637A5A1E62722BB123681B6884
:10D8380040F201121A8007E00123206AE372FFF721
:10D84800D3FF2046FFF7A6FF236814491868F9F7A5
:10D85800FCFE236812491868F9F7DDFE20B1236839
:10D868000F491868F9F7F1FE23680E491868F9F7A7
:10D87800D2FE20B123680B491868F9F7E6FE236841
:10D8880009491868F9F7C7FE30B1236806491868CE
:10D89800BDE81040F9F7D9BE10BD00BF0004001064
:10D8A8000001001000080010000200102DE9F041EE
:10D8B800066804463068838A9BB213F0010121D0C0
:10D8C8000023A361A37A23B1628A4FF6FF739A42B9
:10D8D80009D0217A3068490001F0FE010022BDE834
:10D8E800F041F9F75DBE30680121F9F762FE217A4F
:10D8F80023684900186801F0FE010122BDE8F041E3
:10D90800F9F74EBE9F0747D5A27A638A1AB14FF638
:10D91800FF7293421ED0028B4FF6FF72934210D0D3
:10D92800227C42B1190AF9F750FE2368A17C1868D5
:10D93800F9F74BFE02E0D9B2F9F747FE4FF6FF734D
:10D94800638223684FF4806118680122BDE8F041C2
:10D95800F9F758BE6368012B02D1F9F72AFE02E0F5
:10D968000121F9F743FE23684FF4C06118680022CB
:10D97800F9F748FE23680122186C1421F9F75EFCB8
:10D98800236801211868F9F725FEBFF35F8F236824
:10D998001B681B8BBDE8F08103F00407BFB217B307
:10D9A800038B5D0706D5A37A012B0FD140F2011333
:10D9B800038011E0A56967696B1CA3613068F9F7FA
:10D9C80006FE7855A26963689A4205D1206AFFF776
:10D9D8000BFF2046FFF7DEFE23681A681388D90577
:10D9E800FCD4BDE8F08103F04005ADB2B5B1A5693E
:10D9F800D4F814806B1CA3613068F9F7E8FD08F8C7
:10DA08000500A26963689A4221D123683A461868DA
:10DA18004FF48061BDE8F041F9F7F4BD1B0616D557
:10DA2800A37A012B0CD0A3696269591CA161D15C4E
:10DA3800F9F7CBFDA26963689A4208D12368186890
:10DA48002A464FF48061BDE8F041F9F7DBBDBDE837
:10DA5800F08110B503680446996C186CF9F7BAFBA5
:10DA680040B12046FFF7A2FE206AFFF7BDFE204620
:10DA7800FFF790FE2368186CD96CF9F7ABFB70B10F
:10DA88002368186CD96CF9F721FC0123206AE3722A
:10DA9800FFF7AAFE2046BDE81040FFF77BBE10BD89
:10DAA80082B0002301930193019B40F649329342CF
:10DAB80005D8019B01330193019B9342F9D902B028
:10DAC800704700002DE9F0430368044689B0586A9E
:10DAD8000121F9F725FE236801215869F9F720FE8D
:10DAE800236801215868F9F733FE02A8F9F796FC74
:10DAF80001238DF80C308DF80E30236802229869C6
:10DB08008DF80D2002A9DA690292F9F751FC236811
:10DB180002A9DA6A986A0292F9F74AFC23689F6AAE
:10DB2800B3F82C809D699E8B38464146F9F785FCF1
:10DB380038464146F9F77BFCE0B928463146F9F703
:10DB48007CFCDFF8A49128463146F9F770FC10B93F
:10DB5800B9F10109F7D1FFF7A3FF28463146F9F7D4
:10DB68006EFCFFF79DFF28463146F9F766FCFFF784
:10DB780097FFDDE728463146F9F75FFCFFF790FF8E
:10DB880038464146F9F75BFCFFF78AFF38464146BD
:10DB9800F9F755FCFFF784FF38464146F9F74DFC85
:10DBA80028463146F9F749FCDFF83C9128463146CA
:10DBB800F9F73DFC10B9B9F10109F7D14A4D3846DA
:10DBC8004146F9F734FC08B9013DF8D102238DF834
:10DBD8000C30236802A9DA6998690292F9F7E8FB20
:10DBE800236802A9DA6A986A0292F9F7E1FB2368C6
:10DBF8009869198C93F83420F9F728FC2368198E52
:10DC080093F83420986AF9F721FC23681868F9F723
:10DC18002FFC4BF6FF73ADF816303023ADF81830F3
:10DC28004FF48043ADF81C30236808A91A6941F8FD
:10DC3800102D00254FF48068ADF81450ADF81A8007
:10DC48001868F9F743FC236801224FF480711868BB
:10DC5800F9F7D8FC23688DF8025001269B688DF8E7
:10DC68000030072768468DF801708DF80360FAF7D1
:10DC78002FFA23686846DB688DF80030FAF728FA2F
:10DC880023683146986BF9F74BFD2368DA6BA2627B
:10DC98001A6825631032E2624FF400322265656328
:10DCA800A563E563C4F840806564A564E5646565BB
:10DCB800A565E56525665B6C8DF8043001A88DF8CF
:10DCC80005708DF806508DF80760FAF701FA2946B5
:10DCD80003223046F8F74CF920623046F8F744FA48
:10DCE800606209B0BDE8F083D38F0200FFF7EABE97
:10DCF8000360009B017182714FF6FF71002203617E
:10DD080002230273C181C27143717047C381019BB1
:10DD180003600023C371029B017103619DF8001029
:10DD28008171022302734371704738B50D46002193
:10DD38000B4604464FF0FF32406AF8F7E9FA2946E5
:10DD4800231D05F1140251F8040B43F8040B91420A
:10DD5800F9D1A57A012D0ED16368A36321466369C1
:10DD6800236351F8283B186CF9F7F8F9236829461A
:10DD7800186CF9F71DFA23684FF4806118680022BF
:10DD8800F9F740FC23684FF4007118680122F9F78D
:10DD980039FC23681B6840F201121A800021206AAE
:10DDA8004FF47A720B46F8F7B3FA012804D1E57AF2
:10DDB800B5FA85F56D0906E02046FFF7F7FC204621
:10DDC800FFF780FE00250021606A0A460B46F8F737
:10DDD80003F9284638BD00000148FFF71BBD00BF06
:10DDE800DC0100200148FFF761BD00BFDC01002015
:10DDF8000148FFF72EBE00BFDC0100200148FFF7F5
:10DE080009BD00BF400200200148FFF74FBD00BF19
:10DE1800400200200148FFF71CBE00BF400200205E
:10DE2800024B1860024B0C221A707047B086002013
:10DE3800AC86002010B5084B084C1868084B002227
:10DE480019782346FFF790F920B12078A0F148030C
:10DE58005842584110BD00BFB0860020B48600204B
:10DE6800AC860020F7B50F4B0F4C0E4619780F4BB8
:10DE7800009407461546186803220623FFF757F94A
:10DE88006278237843EA02233B80E278A37843EA66
:10DE9800022333806279237943EA02232B8003B07B
:10DEA800F0BD00BFAC860020B4860020B0860020FC
:10DEB80013B5084B084C1978084B009418680922C8
:10DEC8000323FFF770F92078003018BF012002B053
:10DED80010BD00BFAC860020B4860020B0860020AC
:10DEE800034A03461068034A11780A22FFF79BB9D0
:10DEF800B0860020AC860020054B1A7832B9054A56
:10DF08001060054A5021117001221A7001207047D3
:10DF1800BB860020BC860020BA8600201FB5084BAF
:10DF2800187850B1074B19780DF10F030093064B81
:10DF3800002218680123FFF747F905B05DF804FBD4
:10DF4800BB860020BA860020BC86002010B5FFF7EB
:10DF5800E5FF044604480CB1044900E00449FDF714
:10DF68001BF9204610BD00BF6D920008F88C01080F
:10DF7800168D010813468A18B2F5005F13B50C46D2
:10DF880008D2064A1178064A009010682246FFF720
:10DF98001BF900E0002002B010BD00BFBA860020C7
:10DFA800BC8600208B18B3F5005F2DE9F34180464D
:10DFB8000F46164618D200250124B54212D08CB15E
:10DFC8000B4B197808EB050300930A4B7A1918686C
:10DFD80092B20123FFF779F904460620F7F78CFC83
:10DFE8000135EAE7204600E0002002B0BDE8F081F4
:10DFF800BA860020BC8600202DE9F041DFF8EC80CD
:10E0080098F800408AB0002C68D101200146F9F741
:10E0180087FB0AAE08200121F9F79AFB042346F88A
:10E02800283D022531462F488DF8045008278DF8E1
:10E0380006408DF807508DF80540F9F7B9F93146D3
:10E0480028480097F9F7B4F9264829462A46F9F7E7
:10E05800FDF92A4623480321F9F7F8F9FF23224856
:10E0680003930DEB0701ADF80840ADF81040ADF88B
:10E078000A408DF81240F9F723FD60230126ADF818
:10E0880014301948ADF816604FF4807305A9ADF83F
:10E0980024300794ADF82050F9F7E4FD12483946CA
:10E0A800F9F770FE1048ADF8204005A9F9F71CFEF5
:10E0B8000D483946F9F76EFE0B483146F9F714FF5B
:10E0C80009482146F9F748FE07482146F9F746FE70
:10E0D80005483146F9F73EFD88F800600AB0BDE80A
:10E0E800F08100BF00000240000C0040C086002004
:10E0F80038B5064D044621462846F9F72DFE284630
:10E108002146BDE83840F9F729BE00BF000C0040A1
:10E11800034991FBF0F10022024889B2F9F717BDD3
:10E128001C070500000C004013B54FF480000121C6
:10E13800F9F7F6FA154B164A5A604021154A9A60C3
:10E14800D9604FF480624FF400319A6199620022DD
:10E158004FF020615A631A621A615A61DA619A6350
:10E168005A62DA621A63196046238DF80430012472
:10E17800072301A88DF805308DF806208DF8074093
:10E18800F9F7A6FF044B1C7002B010BD24870020CD
:10E1980004140140D0860020C8860020F0B5002174
:10E1A8008BB003220120F7F7E3FE494B494E186074
:10E1B800002103220120F7F7DBFE474B00210A4626
:10E1C80018600B46F7F708FF002201214FF4806022
:10E1D800F7F7CEFE414B012118600420F9F7A0FAA9
:10E1E800202001210124F9F7BFFA022780233046B5
:10E1F80002A9002502938DF80C708DF80F40F9F7ED
:10E20800D7F84023304602A902938DF80C708DF898
:10E218000D408DF80E50F9F7CBF83046062108224C
:10E22800F9F714F92E4F082230460721F9F70EF9AD
:10E238002C4B069306A90C233846ADF82230ADF8CE
:10E248001C50ADF81E50ADF82050ADF82450F9F729
:10E2580081FEFFF769FF47238DF8043001A80523E5
:10E268008DF805308DF806508DF80740F9F730FF26
:10E278002246384640F22551F9F7E3FE204621466A
:10E28800F9F74EFA102602A91748039502968DF859
:10E298000C508DF80F40F9F78BF80DEB060004963B
:10E2A8008DF814508DF815608DF81640F9F726F89A
:10E2B8003046F9F777F80D4B4FF480621A6038460C
:10E2C8002146F9F7A1FE0A4B1C700BB0F0BD00BF48
:10E2D800C48600200008024010870020CC86002059
:10E2E8000014014040420F000000024000E100E03D
:10E2F8001887002010B5074B0446214618684FF4CC
:10E308007A720023F8F704F801281CBF0020207057
:10E3180010BD00BFCC8600202DE9F041224B1B78B0
:10E3280006460F46002B3CD0204C002120684FF0B9
:10E33800FF320B46F7F7ECFF25461D48F8F746FF76
:10E3480004460028F9D1324639461A4809F054F9EA
:10E35800194B1A4916481E600E61F8F7FFFE14485B
:10E3680010210122F8F76AFF012215488021F9F7E8
:10E378005FFE13484021F9F77DFE0D480121F8F7AB
:10E3880017FF104B214618684FF0FF322346F7F766
:10E39800BFFF2868214622462346BDE8F041F7F72B
:10E3A8001BBEBDE8F08100BFC88600201087002092
:10E3B800B8640240D08600201487002024870020FB
:10E3C80000140140C486002073B5104E002402AD2D
:10E3D80022463046102145F8044DF8F72FFF304605
:10E3E8004FF02051F8F772FF224609488021F9F7CB
:10E3F8001FFE30462146F8F7DBFE064B1C60064B35
:10E4080029461868F7F734FF02B070BDB8640240B7
:10E418000014014020870020C486002037B500235F
:10E428001C4C01932288920609D502A9A28801F8FA
:10E43800052D194A106801AAF7F7BCFE27E0204607
:10E4480040F22771F9F71AFE01281CD1134B1A68FC
:10E458006AB1134D13492B780978994207D9D15CD1
:10E468002046F9F7DDFD2B7801332B700FE00948C2
:10E4780040F227710022F9F7E4FD0B4B01A9186857
:10E48800F7F7F6FE03E023889BB2A3889BB203B09C
:10E4980030BD00BF00140140CC8600201C8700203E
:10E4A800C986002019870020C486002070B5102076
:10E4B800F8F768FF23481021F8F7B9FF012820D1A1
:10E4C8002148F8F783FE01283AD11F48102100227D
:10E4D800F8F7B4FE1C480021F8F76AFE1A48F8F766
:10E4E80075FE0028FAD118484FF02051F8F7EEFED3
:10E4F8001548F8F768FE154B1860154B01221A707D
:10E5080070BD134D2B78DBB10F4C104E204631886F
:10E51800F8F757FE0F4B32681B689B1A0E4A1344D4
:10E52800E360012220461021F8F788FE0B484021BD
:10E53800F9F7A0FD20460121F8F73AFE00232B70D9
:10E5480070BD00BF00000240B86402402087002070
:10E55800C186002014870020D086002000140140C6
:10E56800FFF7A4BFFFF75ABFFFF72EBF2DE9F04111
:10E57800012188B0354E80460420F9F7D1F84FF4D0
:10E5880080200121F9F7E4F801244FF40063022701
:10E59800304602A9002502938DF80C708DF80F40C3
:10E5A800F8F706FF4FF48063304602A902938DF80E
:10E5B8000D408DF80E508DF80C70F8F7F9FE3046C6
:10E5C8000A210722F8F742FF072230460B21A6F559
:10E5D800E036F8F73BFF04A90C233046ADF81A30B3
:10E5E800CDF81080ADF81450ADF81650ADF81850AD
:10E5F800ADF81C50F9F7AEFC27238DF8043001A8BC
:10E608000A238DF805308DF806508DF80740F9F784
:10E618005FFD21462A464020F7F7AAFC0C4B22460C
:10E62800186040F225513046F9F70BFD3046214677
:10E63800F9F7EAFC304640F225512246F9F701FD88
:10E64800044B1C7008B0BDE8F08100BF0008024010
:10E658006487002060870020074B1B7853B108446B
:10E66800814207D0054B1A881206FBD511F8012BF9
:10E678009A80F5E7704700BF608700200048004097
:10E6880007B502A941F8040D0120FFF7E5FF9DF841
:10E69800040003B05DF804FB034B01464FF0FF3262
:10E6A80018680023F7F734BE6487002013B50024E8
:10E6B8000A48019440F22551F9F7E0FC58B107489F
:10E6C800F9F7B2FC064B02A901AA01F8050D186872
:10E6D8002346F7F76FFD02B010BD00BF00480040A9
:10E6E8006487002008B57D20F9F762F848B1F9F78A
:10E6F80073F805490548FCF74FFDFCF72FFC00208F
:10E7080008BD012008BD00BF368D01086D920008C4
:10E7180008B545F25550F8F79DFF0320F8F7A0FF1C
:10E72800BC20F8F7A3FFF8F7A7FFBDE80840F8F703
:10E73800ABBF0000F0B501208BB00146F8F7F0FF41
:10E74800264C01214FF48070F9F702F802A8F8F777
:10E7580065FE02278023204602A902938DF80C70DB
:10E76800F8F726FE092220460721F8F76FFEA4F5E0
:10E77800F03407A8F9F7E2F90026532307A9204641
:10E78800ADF81C30ADF81E60F9F79AF904A8F9F74E
:10E798000BFB04A92046F9F745FB2D2301258DF82D
:10E7A800043001A80E238DF805308DF806608DF829
:10E7B8000750F9F78DFC394632464020F7F7D8FB69
:10E7C800074B2A46186003212046F9F79BFB204691
:10E7D8002946F9F7BFF90BB0F0BD00BF00000240B1
:10E7E8006C870020014B1878704700BF68870020AD
:10E7F80010B5044620B9074807496F22FCF76CFB9F
:10E80800064B214618684FF0FF320023BDE8104040
:10E81800F7F77EBD708D01087A8D01086C8700209E
:10E8280040F27D43984205D940F26C73984228BF64
:10E83800184601E040F27E40A0F27E4307EE903A8F
:10E848009FED057AF8EEE77A70EEC00AC7EE877A90
:10E85800A0EEA70A704700BF00803B4440F27D430A
:10E86800984205D940F26C73984228BF184601E0D7
:10E8780040F27E40A0F27E40C0EBC00300EB830074
:10E88800C0EB800080B2704713B50024194801948A
:10E898000221F9F746FBE0B14FF400711548F9F78A
:10E8A8003AFB1448F9F788FA134A138880B202A988
:10E8B800C31A21F8063D114B1080186801AA234697
:10E8C800F7F778FC0E4B0B48012202211A70F9F772
:10E8D80033FB08480121F9F724FB48B1084B094AE2
:10E8E800197811700348002201211A70F9F724FBE6
:10E8F80002B010BD002000406A8700206C8700200D
:10E90800698700206887002073B501200146F8F761
:10E9180007FF204C4FF4C8530093022303268DF8B9
:10E9280004302046002369468DF806308DF80730FC
:10E938008DF80560F8F73CFD204608210A22F8F713
:10E9480085FD20460B210A22F8F780FD20460A2281
:10E958000C21F8F77BFD01254FF4806320466946BA
:10E9680000938DF806508DF807508DF80560F8F77C
:10E978001FFD0A210A462046F8F768FD29464FF48C
:10E988008040F8F7F1FE80202946F8F7D5FE02B05E
:10E9980070BD00BF0000024007B54FF44070F9F7A2
:10E9A8008DFB43238DF804300A238DF805300023AE
:10E9B8008DF8063001A801238DF80730F9F788FB98
:10E9C80003B05DF804FB782358430723B0FBF3F04A
:10E9D800002301338342FCD970474FF47A735843BC
:10E9E800FFF7F1BF0020704708B50B4C204600F038
:10E9F800CBF92146094C11F8012B2046531E00F88B
:10EA0800013B08F0F9FD064B002218682146134621
:10EA1800F7F7E2FAE9E700BFD887002070870020FF
:10EA2800D487002008B5084B0146642218680023E3
:10EA3800F7F76EFC012804D10449FAF797F900208A
:10EA480008BD4FF0FF3008BDD4870020448301087B
:10EA580010B503781F2B044604D90D480D496022D0
:10EA6800FCF73AFA0C486378037022781E2A03D818
:10EA78000130A11C08F0C0FD2478084901340220A7
:10EA8800FAF774F92046044900F08EF910BD00BF6A
:10EA9800918D0108A78D0108908700204483010803
:10EAA80030B50E4D2C7885B0ACB900F041F9202175
:10EAB80022460520F7F75CFA094B0A491860032338
:10EAC8008DE8180002942346039407489622F6F727
:10EAD80061FC01232B7005B030BD00BFD08700203A
:10EAE800D4870020BD8D0108F1E90008004870476F
:10EAF800A402002012230B8000487047D80200208F
:10EB080004230B8000487047D402002010B5044C41
:10EB180004480A462146FDF7ABFD204610BD00BF5C
:10EB28007C930020C58D010870B588B000238DF84E
:10EB38001C300D4B0A4613F8011F0C4C01A80E0996
:10EB480000EB43050A48A65D465501F00F01013068
:10EB5800615C415507498B42EDD101A80649FDF793
:10EB680087FD054808B070BD0F7AFF1F1E8E01088B
:10EB7800E00B01C01B7AFF1F7C93002008B50A46F2
:10EB880008B9044800E004480449FDF771FD03484A
:10EB980008BD00BFD18D0108728901087C9300204F
:10EBA80010B5044C04480A462146FDF761FD20468D
:10EBB80010BD00BF7C930020F28D010808B50A46FD
:10EBC80008B9044800E004480449FDF751FD03482A
:10EBD80008BD00BFFD8D01080B8E01087C93002045
:10EBE80039230B800048704738030020704770476E
:10EBF800704770477047000073B5282303FB010175
:10EC08000B4DD1F88C332B7002AA0A4B0024064610
:10EC180042F8044D294618682346F7F7CBFA012134
:10EC280030466A184023FDF789FA204602B070BDC5
:10EC3800A88800209C88002008B500F0CDFFBDE81A
:10EC48000840F9F79BBF08B500F0C6FFBDE80840CB
:10EC5800F9F794BF10B581210446FDF757FA20460D
:10EC68000121FDF753FA002010BD000010B58121E5
:10EC7800044640220223FDF728FA204601214022BB
:10EC88000223FDF722FA20460121034A4023FDF71B
:10EC980055FA002010BD00BFA988002037B502AA88
:10ECA800002342F8043D094C094B054621461868E3
:10ECB800F7F7EEFB012806D122462846812112F8F3
:10ECC800013BFDF762FA002003B030BD5A880020EE
:10ECD800A488002037B502AA002342F8043D094C55
:10ECE800094B054621461868F7F7D2FB012806D1DB
:10ECF80022462846812112F8013BFDF746FA0020FA
:10ED080003B030BD5A880020A488002008B58B883D
:10ED1800064A012B136002D1FFF7E8FE01E000F07C
:10ED28005BFFF9F72BFF002008BD00BF340300206C
:10ED380007B50E4B00930E480E4B0F4A0121FDF705
:10ED4800B6FD412100220520F7F712F90B4B4121AE
:10ED5800186000220120F7F70BF9094B1860094BDE
:10ED680001221A7003B05DF804FB00BFEC0200201A
:10ED78008094002008030020B80200209C8800200E
:10ED8800A4880020A088002010B50446054B214621
:10ED980018684FF0FF320023F7F7BAFA0128F5D1C7
:10EDA80010BD00BF9C88002010B5094C02462046C3
:10EDB80000F8012B08F020FC064B21461868642255
:10EDC8000023F7F709F9431E5842584110BD00BF08
:10EDD80019880020A488002070B52DED028B534BB4
:10EDE80019781E46002940F09D80514A514B1170F8
:10EDF800197015461C46F6F711FCB0F57A7FFAD360
:10EE08004D48FEF78FF94C48FDF712FEFEF782F9E0
:10EE180010B14A484A4901E048484A49FCF7BCF958
:10EE2800FEF716F93220F6F767FD0020FEF722F903
:10EE38000120FEF731F90020FEF7C4F80120FEF7A3
:10EE4800AFF80120FEF73CF90320FEF781F8022015
:10EE5800FEF792F80120FEF75BF80220FEF764F84F
:10EE68003548FEF7DDFFFEF7E5FF38B10123162030
:10EE78002B70FFF735F83148334901E02F48334903
:10EE8800FCF78AF92C48FEF7B1FBFEF7C5FB38B151
:10EE98000120FEF7E1FB0123237028482C4901E0FB
:10EEA80026482C499FED2C8ADFED2C8AFCF774F953
:10EEB8002B4B00225A7303F114021A61294B2A4A78
:10EEC8001A602A4B0D221A7004F02EFF20EE080A51
:10EED80080EE280A05F024F8254B83ED000A04F09B
:10EEE80023FF20EE080A80EE280A05F079F8214B66
:10EEF80083ED000A04F028FF20EE080A80EE280AB5
:10EF080005F00EF81C4B83ED000A04F01DFF20EEFF
:10EF1800080A80EE280A05F063F8184B83ED000A0A
:10EF280001233370BDEC028B70BD00BF0289002045
:10EF38000A89002020890020400200206D920008E4
:10EF48002E8E0108518E0108768E0108988E0108D0
:10EF5800BC8E0108DE8E0108DB0F494000003443F7
:10EF6800809A0020EC88002019FCFFFF12890020FD
:10EF7800749A00207C9A0020789A002094B200208D
:10EF88002DE9F04F2DED028BC44C8DB00746C448D7
:10EF98000094231D0193821CA31C0E46811EFEF7BC
:10EFA8001DF8C04A2188136919801369618859803E
:10EFB8001369A18899801369BB4906338B4223BF23
:10EFC80002F1140313610123136128BF5373127BE9
:10EFD800B44B002A40F0F1805A7B002A00F0E3800D
:10EFE80000240025CDE90845CDE90645CDE90445CD
:10EFF800CDE9024503F5C05EA246AB469A8AB3F84E
:10F0080016C0DDE9028910B218EB00084FEAE0717A
:10F018000FFA8CF049EB0109C1171AEB000A4BEB08
:10F02800010B198B0B91DDE90401CDE90289BDF9CA
:10F038002C804FEAE87910EB080041EB0901804683
:10F048008946CDE90489DDE90689C2FB8289CDE9D3
:10F058000689DDE90889BDF82C200633CCFB8C89AC
:10F068007345CDE90889C2FB8245C7D18F4B012280
:10F078001A70029B039A03FB02F1A3FB032303EB21
:10F088004103002A73F1000104DA40F2FF30002145
:10F0980012184B41900A40EA83509912DDE9062381
:10F0A800121A63EB010310461946F5F7DBFD9FEDD5
:10F0B800808A07EE900AF4EEC87AF1EE10FA72D55B
:10F0C8000AFB0BF1AAFB0A2303EB4103002A73F1A5
:10F0D800000104DA40F2FF30002112184B41900A77
:10F0E80040EA83509912DDE90823121A63EB010301
:10F0F80010461946F5F7B6FD07EE900AF4EEC87A01
:10F10800F1EE10FA4FD5049B059A03FB02F1A3FB1D
:10F11800032303EB4103002A73F1000104DA40F2F0
:10F12800FF30002112184B41900A40EA8350201A00
:10F138004FEAA32165EB0101F5F794FD07EE900A6C
:10F14800F4EEC87AF1EE10FA2DD55A4D2B6803F576
:10F158007A74F6F763FA844225D2F6F75FFA2860E4
:10F16800DDE90201F5F77EFD9FED538A4D4C07EE70
:10F17800900A67EE887A5946C4ED007A5046F5F74A
:10F1880071FD07EE900A67EE887ADDE90401C4EDA7
:10F19800017AF5F767FD07EE900A27EE888A0123C2
:10F1A80084ED028A23733F4B1B7B33B1072002F0A7
:10F1B8004FFA04204149F9F7D9FD414BDFF82C817A
:10F1C8001D78B8F900003F4A3F4C2946FBF76EFE10
:10F1D800294620803D4AB8F90200FBF767FE294618
:10F1E80060803B4AB8F90400FBF760FEB4F90230CE
:10F1F800B4F90010374AA08007EE900A05EE903A5D
:10F20800354BB8EEE76A93ED004A344BF8EEE55A11
:10F21800D3ED006A324B26EE047AD3ED004AA5EE10
:10F22800A67A66EEC66ABDEEC77AE5EE846A8DED0B
:10F23800027ABDF9083007EE103A2A4BF8EEC77A81
:10F2480093ED005A07EE101AF8EEC73A25EE677AE2
:10F258004942A3EEA47A67EEA47ABDEEC77A17EE08
:10F26800103ABDEEE67A138017EE103A07EE101A40
:10F27800B8EEC77A5380E7EE057A0849DFED1A6AD7
:10F28800FDEEE77A17EE903A9380B1F9003007EE79
:10F29800103A044BB8EEC77A2CE000BF148900205E
:10F2A8001C890020809A002094B200200289002046
:10F2B80000409C45EC8800200000803A6C830108DF
:10F2C80012890020F0880020FC880020F4880020A3
:10F2D800F888002004890020789A002094B2002041
:10F2E800749A00207C9A002000007A3D1A89002038
:10F2F80000008039D3ED007A37EE677A27EE667A18
:10F3080087ED007AB1F90200D3ED017A07EE100A11
:10F31800B8EEC77A37EE677A27EE267A87ED017A54
:10F32800B1F9041007EE901AB8EEE77AD3ED027A35
:10F33800B2F9003077EE677A5B4267EEA67A5FED46
:10F34800146AC7ED027A07EE903AF8EEE77A67EEAC
:10F35800A67AC6ED007AB2F9023007EE103AB8EE96
:10F36800C77A27EE267A86ED017AB2F9043007EEDD
:10F37800903AF8EEE77A67EEA67AC6ED027A0DB013
:10F38800BDEC028BBDE8F08F70B52DED068B88B013
:10F39800F6F744F90646FDF793FB0446002864D0C7
:10F3A800F6F73CF9801BB0F57A7F324D0AD202A8F5
:10F3B80005A9FFF7E5FD2B7B002BF1D02E482F493F
:10F3C800FBF7EAFE2D7B002D4AD09DED079ADDED77
:10F3D800069A9DED050A9FED2A8A9FED2AAA69EEF5
:10F3E800097AB1EE400AE9EEA97AF1EEE77A80EE01
:10F3F800270A04F033FE20EE080AC0EE0A8A89EED6
:10F40800890A04F02BFE20EE080AF1EE047A80EE59
:10F418000A0AB0EEC07AB4EEE77AF1EE10FA0BD52C
:10F42800B0EEE87AB4EEE77AF1EE10FA04D51649B0
:10F438001148FBF7B1FE18E010EE100AF5F704F8D2
:10F44800044618EE900A0D46F4F7FEFF2246CDE971
:10F4580000012B4608480D49FBF79EFE002404E0F6
:10F4680005480B49FBF798FE2C46204608B0BDEC32
:10F47800068B70BD809A00206D920008168F0108D7
:10F4880000003443DB0F4940348F01084E8F0108D8
:10F49800828F0108014B187B704700BF809A0020BB
:10F4A80038B51446FFF76CFD184B1B7843B3184D5D
:10F4B8002846A91C2A1DFEF7D5FCFEF7F9FCB5F96C
:10F4C8000030DFED146A07EE103AB8EEC77A87EE1F
:10F4D800267A84ED007AB5F9023007EE103AB8EED4
:10F4E800C77A87EE267A84ED017AB5F9043007EEFB
:10F4F800903AF8EEE77AC7EEA67AC4ED027A38BDFC
:10F50800002323606360A36038BD00BF0A89002020
:10F518000C890020CDAC2644014B1878704700BFF9
:10F5280020890020DFED107A104B114A83ED000A84
:10F5380060EE277AFCEEE77A17EE903A13800D4BCF
:10F54800D3ED007AF4EEC07AF1EE10FA48BF83EDFD
:10F55800000A094BD3ED007AF4EEC07AF1EE10FA06
:10F56800C8BF83ED000A704700007A445089002024
:10F578004889002030890020740300201FB50D4CF5
:10F588002378ABB900930193029303930A490B487C
:10F598009622F5F7FFFE0A4A0123237000EE102A8F
:10F5A800084BC3F8012004B0BDE81040FFF7BABF0C
:10F5B80004B010BD5489002028900108A1F6000865
:10F5C800CDCC6C4034890020014B1878704700BFBF
:10F5D80054890020014B93ED000A704750890020A0
:10F5E800064B50F8022F1A6042685A60027A1A7263
:10F5F800D3F8013000EE103AFFF794BF34890020A9
:10F6080038B50D4B1878C0F3400500F00104F6F743
:10F6180005F80A4B1B6824B1002D14BF01200220F5
:10F6280038BD3DB9C01A41F2883398428CBF0320D7
:10F63800002038BD204638BD348900205889002074
:10F6480008B5074B187838B102F0DCFB054BD3ED51
:10F65800007A20EE270A08BD9FED030A08BD00BF07
:10F6680040890020248900200000000008B5074BCD
:10F67800187838B102F0C6FB054BD3ED007A20EEBE
:10F68800270A08BD9FED030A08BD00BF5589002061
:10F698002C890020000000002DE9F04105212DED06
:10F6A800028B0020F6F794F9F5F7B8FF4F4C504D50
:10F6B800206028604FF4FA70F6F71EF900266420DF
:10F6C800F6F71AF9F5F7AAFF0746FFF7CFFF494BF8
:10F6D800DFED497A83ED000A20EE270A474ADFF872
:10F6E8004081FCEEC07A17EE903A1380FFF7A8FF2E
:10F6F80098ED007ADFED427A424BB4EEE77AF0EE0D
:10F70800087AF1EE10FAB4EEE77AC8BF2760F1EE96
:10F7180010FAC8BF2F6083ED000AB0EE678AFFF7C2
:10F728006FFF394FB042387035D003282FD8DFE843
:10F7380000F0230C021D00203449F9F757FB002084
:10F748003349F9F713FB04200CE004203149F9F799
:10F758004DFB00202E49F9F749FB00202B49F9F70A
:10F7680005FB032001F074FF002011E00420294963
:10F77800F9F7FCFA052008E000202449F9F736FBE0
:10F7880000202349F9F7F2FA022001F061FF012075
:10F79800F9F7CEFC3E783B782BB3012B8FD1D8ED0F
:10F7A800007AF4EEC87AF1EE10FA11D49FED1A7AC5
:10F7B800F4EEC77AF1EE10FA0CDC184B0021B3EC2A
:10F7C800017AF4EEC77AF1EE10FA04DD0131F6E7BA
:10F7D800002100E00921642359430C48C1F57A72DD
:10F7E800F9F700FB6BE7FAF7CBFD68E758890020CB
:10F7F8004C8900202889002000007A443E89002096
:10F80800CDCC4C4044890020568900204C00002073
:10F81800088401085C8301083333834000900108A1
:10F8280050890020F0B500258BB02E462F460024C5
:10F838000DF10300FEF75EFD0028F8D0062C62D813
:10F84800DFE804F0040B12192A3C43009DF803403A
:10F85800A4F1BC035C425C41EAE79DF80330CF2B7E
:10F868000CBF02240024E3E79DF803508DF80450F0
:10F878002E460324DCE79DF80330202BD7D81E44FE
:10F88800F6B2002B35448DF80530EDB24FF0000785
:10F8980014BF04240524CBE79DF803300AAA3A4490
:10F8A8001E4402F8223CF6B201379DF80530354473
:10F8B800FFB2EDB2BB4208BF0524B9E79DF803408B
:10F8C800B4420CBF06240024B2E79DF80330AB42D3
:10F8D800ADD19DF8042002F0F004102C06D0202CA5
:10F8E80008D05CB901A800F043F9A1E701A8FFF727
:10F8F80077FE9CE701A800F0D7F998E70549064884
:10F90800FBF74AFC93E7054805498322FBF7E4FA2D
:10F918008EE700BF729001086D920008BC7A01085A
:10F928008A90010830B5114B1D7885B01C46D5B9B1
:10F93800032201202946F6F71BFB0D4A106020B16F
:10F9480029462A462B46F6F747FB05230093002352
:10F95800019302930393074807499622F5F71AFD86
:10F96800012808BF207005B030BD00BF9C89002069
:10F97800A08900202DF80008A0900108014B1878F4
:10F98800704700BF9C890020F8B5204E054600212D
:10F998000B4630684FF0FF32F6F7BAFC6B78202B35
:10F9A80004D91B481B49C522FBF796FA1A4CBC23FD
:10F9B8002370CF2363702B78A3706B78E3706A7819
:10F9C800A91C201D07F018FE6D780023A81DA71C90
:10F9D8001A4605F1040EC4EB070CF4450E4906DA85
:10F9E80017F8011B0A44D2B21344DBB2F1E70D4405
:10F9F80001F80E206B71FEF78FFC002130680A4673
:10FA08000B46F6F7E9FA0020F8BD00BFA0890020F0
:10FA1800A89001088A9001085C890020002070479E
:10FA280070B503781E2B044604D90E480E49A0224F
:10FA3800FBF752FA0D4D00262E702278214601322E
:10FA48006A7011F8012BA81C013207F0D5FD084B8C
:10FA58002946186864223346F6F7BEFA431E584210
:10FA6800584170BDE5820108C3900108D089002083
:10FA7800C889002008B5064B01466422186800238F
:10FA8800F6F746FC10F1FF3018BF4FF0FF3008BD05
:10FA9800CC890020FFF772BF00B58BB001238DF829
:10FAA800060001A88DF804308DF80530FFF76CFFCB
:10FAB8000BB05DF804FB00B58BB002238DF8043061
:10FAC8008DF80600012301A88DF80530FFF75CFFCB
:10FAD8000BB05DF804FB00B58DB0CDE9000105233E
:10FAE8008DF80C308DF80D300CAB53F8300DCDF887
:10FAF8000E001B798DF8123003A8FFF745FF0DB0F3
:10FB08005DF804FB38B5154B1D781C462DBB22212A
:10FB18002A460120F6F72CFA114B202118602A46B4
:10FB28000520F6F725FA0F4B186020B90E480F4943
:10FB38004E22FBF7D1F9FFF7F5FE04F0CDF8C0B27D
:10FB4800FFF7AAFF04F0D4F8C0B2FFF7B4FF04F03F
:10FB5800D9F8FFF7C0FF0123237038BDC7890020FB
:10FB6800C8890020CC890020DB900108C3900108D7
:10FB780010B5047804BB43780146013B01F8013F06
:10FB8800104B224618682346F6F726FA01200E493C
:10FB9800F9F7ECF80D4B0E49186822462346F6F79C
:10FBA800B7FB01280DD102200749F9F7DFF808480B
:10FBB800BDE81040FFF7E8BE042C02BF054B827871
:10FBC8001A7010BDCC89002044830108C889002020
:10FBD800A4890020C68900200048704778030020C7
:10FBE80030B520298BB005460C4604D9154816496E
:10FBF8009122FBF771F915498DF8045022460DF151
:10FC080006008DF8054007F0F7FC01A8FFF7BCFED9
:10FC18000F4B0021186841F288320B46F6F778FB43
:10FC2800012805D10B4B187848B100221A7006E05C
:10FC380009480A499DF80420FBF7AEFA00200BB0EA
:10FC480030BD00BFAD900108FE900108F989002081
:10FC58001C8A0020F88900206D920008179101087D
:10FC680010B5FFF75FFE012000210322F6F780F9A7
:10FC78000B4B18601C4620B100210A460B46F6F7CC
:10FC8800ABF90120F6F770FA064B002118604FF027
:10FC9800FF3220680B46BDE81040F6F739BB00BFBD
:10FCA8001C8A0020F48900200378203B032B0AD803
:10FCB8000A4A831C223053F8041B42F8041B83426F
:10FCC800F9D1012200E00022054B1A70054B0021F2
:10FCD80018680A460B46F6F77FB900BFF989002075
:10FCE800F88900201C8A002038B50E4C00210B46EC
:10FCF8004FF0FF3205462068F6F70AFB2020002166
:10FD0800FFF76EFF234620B1074A12782A700124B4
:10FD180000E00446002118680A460B46F6F75CF92D
:10FD2800204638BDF4890020F9890020F8B5134C25
:10FD3800134D0E4600210B4607464FF0FF32206850
:10FD4800F6F7E6FA212001212F70FFF749FF234635
:10FD580050B1294651F8012F32602C784A687260F8
:10FD6800FF3C18BF012400E00446002118680A4639
:10FD78000B46F6F731F92046F8BD00BFF48900209C
:10FD8800F98900202DE9F047702A01EB02050646A3
:10FD98000C469946ADB204D927482849E022FBF71A
:10FDA8009BF8DFF8A480264FD8F8000000214FF018
:10FDB800FF320B46F6F7ACFA3E700026AC422FD263
:10FDC800C4EB050ABAF11C0FA7F8014010DCE91CC6
:10FDD800091B2220C9B2FFF703FF08B9002420E05D
:10FDE80009EB06001749524607F006FC2C46E5E7E2
:10FDF80022202021FFF7F4FE0028EFD0114B09EB59
:10FE0800060203F11C0153F8040B42F8040B8B4261
:10FE1800F9D11B7813701D341D36A4B2F6B2CDE7A4
:10FE280001240021D8F800000A460B46F6F7D4F85A
:10FE38002046BDE8F08700BF96910108FE900108B2
:10FE4800F9890020FC890020F48900202DE9F84375
:10FE5800702A01EB020681460C469846B6B205D9CF
:10FE680029482A4940F21312FBF736F8284F294D42
:10FE7800386800214FF0FF320B46F6F749FA85F84B
:10FE880000904FF00009B44233D2331B192BA5F868
:10FE9800014008EB09010EDC9CB21F48A5F803409D
:10FEA800224607F0A9FB611D2320C9B2FFF798FE7F
:10FEB800E8B900241EE01A23EB7000232B71164BBF
:10FEC80001F1180251F8040B43F8040B9142F9D1DF
:10FED8000A881A8023201F21FFF782FE0028E8D015
:10FEE8001A3409F11A09A4B25FFA89F9CBE7344642
:10FEF800C9E70124002138680A460B46F6F76CF872
:10FF08002046BDE8F88300BF96910108FE900108DD
:10FF1800F4890020F9890020FE89002008B50848E6
:10FF28000121F8F709F8BFF35F8F064B53E8002F5C
:10FF3800013243E800210029F8D1BFF35F8F08BDE3
:10FF480000140040208A0020704730B5D5088D4243
:10FF58000AD202F007020124415D94400BB121430B
:10FF680001E021EA0401415530BD10B50023934258
:10FF780005D0DC0041FA04F4C4540133F7E710BD9E
:10FF88001FB504230093102103AB002201F0ACF944
:10FF98009DF80E309DF80F201B0943EA021300EE6E
:10FFA800103AB8EEC00A05B05DF804FBD0B5DFED35
:10FFB800227A9FED227A2DED028B9FED218A01286E
:10FFC80008BFB0EE678A60EEA00ADFED1E7A14BFA4
:10FFD80017EE104A17EE904AC0EE207A17EE900AF4
:10FFE800F4F732FA41EC100B04F066F8002251ECF9
:08FFF800100B154BF4F77CFA25
:020000040801F1
:10000000064620460F46F4F723FA02460B463046D2
:100010003946F4F7BDF8F4F709FDDFED0E7A00EE8E
:10002000100AB4EEE70AF1EE10FA82BFDFED0A7AA9
:1000300070EE277AA7EE880ABDEC028BD0BD00BF18
:100040006D561540E17AF3426D56953FA470E74234
:10005000000024400000B0C20000B042082210B5E9
:1000600080F8282002220446016080F82A2000231C
:1000700001210522436080F8273080F8291080F89C
:100080002B20042084F82C0084F82E3084F82F10C4
:1000900084F83030237384F82D2004F138004FF4B5
:1000A0008041FFF766FF024B23646364E36410BD85
:1000B00051FF0008F0B585B000240426054602274C
:1000C000224603AB009636210394ADF8084001F0B8
:1000D0000FF9284602AB00972D21062201F008F9FE
:1000E00001238DF80C3003238DF80D3080238DF81B
:1000F00009302846224603AB009636218DF8084089
:1001000001F02FF92846062202AB00972D2101F0BD
:1001100028F92B682846DB68052198470096284671
:100120003621224603AB8DF80C408DF80D7001F09E
:1001300018F905B0F0BD00210A4601F008B9000029
:1001400010B526210022044601F001F920F47F5366
:1001500043F4AA5320462621002201F027F9204625
:100160003621002201F0F3F8362140F40403002286
:10017000204601F01BF92046362128224FF48873CF
:1001800001F014F9204636212822064B01F00EF921
:100190002046362128224FF48873BDE8104001F034
:1001A00005B900BF10010F007FB5002604230D46DE
:1001B00000933621324603AB0446039601F098F8CB
:1001C0006DB9236820469B68294698479DF80D30F5
:1001D0008DF80C5023F001038DF80D301CE0012D3B
:1001E0000BD1236820469B68314698479DF80C3018
:1001F00023F0030343F001030CE0022D0CD123682C
:1002000020469B68012198479DF80C3023F003039A
:1002100043F002038DF80C3001230093204603AB1A
:100220003621002201F09DF8042300932046362158
:10023000002203AB01F095F804B070BD07B50421AE
:100240000091002200F1110301F052F803B05DF8B3
:1002500004FB07B504210091002200F1110301F015
:1002600080F803B05DF804FB07B5052300930F2168
:10027000002200F11D0301F03BF803B05DF804FB20
:1002800007B5042300930321002200F10D0301F0C0
:100290002FF803B05DF804FB07B504230093032196
:1002A000002200F10D0301F05CF803B05DF804FBDF
:1002B00007B5042300930E21002200F1150301F07D
:1002C00017F803B05DF804FB07B5042300930E2173
:1002D000002200F1150301F044F803B05DF804FBBF
:1002E00007B5042300931F21002200F1190300F039
:1002F000FFFF03B05DF804FB07B5042300931F2143
:10030000002200F1190301F02CF803B05DF804FBA2
:1003100007B5052300930821002200F1220300F015
:10032000E7FF03B05DF804FB07B505230093082140
:10033000002200F1220301F014F803B05DF804FB81
:100340001FB504AB022223F8021D00920C210022EB
:10035000044601F006F8BDF80E30003304F1110038
:100360004FF004014FF01C0218BF0123FFF7F1FD0D
:1003700004B010BD0B46113004210022FFF7E9BD87
:100380000B46113004210322FFF7E3BD0B46113069
:1003900004210622FFF7DDBD81F0010311300421A5
:1003A0000C22FFF7D6BD0B46113004210922FFF7BE
:1003B000D0BD0B46113004211D22FFF7CABD0B46EC
:1003C000153004210722FFF7C4BD70B50C4600F1BB
:1003D00015052846234604210D22FFF7BAFD2846BD
:1003E000234604210E22BDE87040FFF7B2BD70B570
:1003F0000C4600F115052846234605211222FFF779
:10040000A8FD2846234605210F22FFF7A2FD284616
:10041000234605210C22FFF79CFD28462346052193
:100420001022BDE87040FFF794BD0B461530042143
:100430001122FFF78EBD0B46153004210A22FFF76B
:1004400088BD0B46153004210322FFF782BD15300D
:100450000021042207F0DFB873B500F10805042677
:10046000044632462846002107F0D5F800224023F2
:1004700023722273009620460D212B4600F071FF57
:1004800002B070BD7FB5042603AB00963621002272
:10049000044600F02DFF012300258DF80C30204686
:1004A00003AB00963621002200F05BFF2A4620466F
:1004B00003AB009636218DF80F5000F052FF2368F1
:1004C0002046DB680A219847F0238DF80F3020463C
:1004D00036212A4603AB00968DF80C5000F041FF00
:1004E0002046FFF7B9FF04B070BD000037B50446E1
:1004F0000021FFF759FE23682046DB680521984755
:1005000023681B6920460BB1984701E0FFF7BAFF4B
:100510002046FFF710FE244B984241D104F10D0311
:100520001846FF21042207F076F80425034603212C
:1005300020460022009500F014FF2A46002104F115
:10054000110007F068F820460021FFF725FF012180
:100550002046FFF728FF2046FFF77BFE2046FFF7E7
:1005600076FF2046FFF7B0FE20460121FFF71CFE74
:1005700023680521DB68204698472046FFF79AFD4F
:1005800023682046DB680521984720460221FFF7B3
:100590000BFE23682046DB6805219847002000E019
:1005A000012003B030BD00BF3001CADE37B590F87E
:1005B0002F30044600F1080528460421002283F06C
:1005C0000103FFF7C6FC637A43F00103637204235F
:1005D000009320460D2100222B4600F0C2FE03B0FE
:1005E00030BD73B50446FFF79FFE94F82F3004F139
:1005F000080528460421002283F00103FFF7A9FC27
:10060000237A042643F00203237200962B462046E9
:100610000D21002200F0A5FE94F8303063B1284689
:100620000021324606F0F7FF01232046237302B073
:10063000BDE87040FFF7BABF94F8313003B1012331
:10064000237302B070BD10B50446FFF705FF2046C6
:10065000FFF716FE2046FFF7F1FD2046FFF740FEAC
:100660002046FFF755FE2046BDE81040FFF720BEAC
:1006700080F831100B46083004210722FFF769BCCF
:100680000B4680F82E1012221130042183F0010352
:10069000FFF75FBC30B590F82330C27C01F0030552
:1006A00023F07C0343EA451380F8233085B00446E9
:1006B000C37E1DB942F04002C27408E022F040023D
:1006C000022DC27403D123F03203C37604E043F059
:1006D0003203022DE37601D1082303E0012D0CBF84
:1006E000102340238DF80F30012300932046212151
:1006F00000220DF10F0300F034FE84F82A5005B0FB
:1007000030BD90F8243001F0030123F003030B43C4
:1007100080F82430C37E80F8291023F00C0343EACC
:100720008103C376704790F8243001F00F0223F064
:100730003C0301F00B0143EA8203012980F82430D5
:1007400001D1082307E0092901D1102303E0022A7F
:100750000CBF2023402380F8283080F82B207047DE
:10076000C37C002914BF0322002223F00303134398
:1007700080F82720C374704701F00F0141EA01138C
:10078000437680F82D107047C37E01F01F0103F0FF
:100790003F0343EA8113C3768B0843EAC10303771F
:1007A00080F82C10704737B5144690F82F20054676
:1007B0000B4602B10234B4F5806F14D27F2C02D9FB
:1007C00095F827207AB1009428460921002200F0EC
:1007D000C8FD95F8233085F8224023F01F0343EA33
:1007E000142485F8234003B030BD1FB5037B022BD2
:1007F000044604D190F8230094F822300CE0012B39
:100800000FD104230093102103AB002200F070FDF0
:100810009DF80D009DF80C3043EA0020C0F309005C
:1008200000E0002094F82F3013B1022888BF02386E
:1008300004B010BD07B50B4622B100921121002271
:1008400000F056FD03B05DF804FB07B505220B462A
:1008500000921721002200F04BFD03B05DF804FB6D
:10086000407FC0097047807FC0F38000704790F8D8
:100870002F30807F13B1C0F380107047C0F3401059
:100880007047C37F827F590706D4D10904D1D206AD
:1008900002D403F00100704701207047C07FC0F30D
:1008A0004000704790F82000830754BF00F001001B
:1008B0000120704773B500F11D0405260546324638
:1008C0002046002106F0A7FE009628460F210022B0
:1008D000234600F046FD02B070BD07B5827F42F0AE
:1008E000040203468277052200920F2100221D3365
:1008F00000F037FD03B05DF804FB1FB50022F423C0
:1009000002928DF8093007238DF80A3005230093F1
:100910000F2102AB8DF80C2000F023FD05B05DF82F
:1009200004FB10B50446FFF797FD0021042204F1F3
:10093000080006F070FE2046FFF7DFFF0123237357
:1009400010BD07B5427F034662F00F0203F81D2F6A
:10095000052200920F21002200F003FD03B05DF894
:1009600004FB10B50446FFF777FD0021042204F1D3
:10097000080006F050FE2046FFF7E3FF0223237332
:1009800010BD000010B512212DED028B0622044689
:1009900000F0D1FC08EE100A2046FFF7F5FAB8EE99
:1009A000488AF0EE400A9FED060A94F8290028EEE6
:1009B000000ABDEC028BBDE81040FFF7FBBA00BF98
:1009C0000000004838B52DED028B05460C46FFF7B8
:1009D000D9FF9FED3B8A30EE080AF6EE007A20EE52
:1009E000678AB0EE480A03F0E3FA012865D9FDEE04
:1009F000C87A17EE901A002904DB4B1C112B03DD7B
:100A0000112300E00023194695F82D0095F82920C0
:100A1000042801D0072812D1012A02D1062B294A25
:100A200003E0022A21D1284A062BD35C525CD8BFAE
:100A30005B420629D8BF52425B00520017E0012AF0
:100A400007D1224A092BD35C525CD8BF5B420929EB
:100A500008E0022A09D11E4A072BD35C525CD8BF9A
:100A60005B42072903DC524201E00022134607EEF5
:100A7000901AF8EEE77A9B1A38EE678A07EE902A0A
:100A8000B8EEE77A07EE903AF8EEE77AD4E9002379
:100A9000A8EE277AF0EE477A9FED0E7A67EE877A16
:100AA0009FED0D7A67EE877AFDEEE77A17EE901AE2
:100AB000521843EBE173C4E90023BDEC028B38BD4F
:100AC00000007442D0910108AC910108BE91010868
:100AD000E8910108B32355436F12833A37B50023D9
:100AE0000022C1E900230C4605230093152123466B
:100AF000054600F0FDFB2846214603B0BDE8304026
:100B0000FFF760BF38B50D4604460978FFF7C2FD10
:100B100020466978FFF7F5FDA9782046FFF703FE28
:100B200055236376052384F82D306B78012B2046FE
:100B30000CBF04210A21BDE83840FFF725BE0000A4
:100B400070B5057B0446BDBB29460126FFF708FEAC
:100B500020462946FFF794FD2046294684F82F6059
:100B6000FFF708FC20462946FFF70AFC20462946E5
:100B7000FFF70CFC20463146FFF721FC20463146AA
:100B8000FFF723FC20463146FFF74FFC204629465D
:100B9000FFF72DFC20462946FFF74DFC204629464D
:100BA000FFF74FFC20463146FFF703FC2046034980
:100BB000BDE87040FFF7A6BF70BD00BFE29101081D
:100BC000F0B590F82920012A95B0044604D107A871
:100BD00048F67001022204E0022A04D107A848F670
:100BE0009B01FFF7C6F90FA8A6490422FFF7C1F938
:100BF000022208A83521FFF7BCF994F82A2012B97F
:100C000009A8162103E0012A03D109A8062102221E
:100C100003E0022A03D109A80121FFF7AAF994F8F9
:100C20002920012A03D10AA88721022203E0022AEF
:100C300003D10AA88D21FFF79CF994F82B3094F882
:100C40002A20062B03D00A2B01D0032B03D18AB90B
:100C50000BA8642106E0012B06D0013A012A09D82D
:100C60000BA82021022203E0022A03D10BA81021A5
:100C7000FFF77FF994F82830082B0BD194F829302E
:100C8000012B02D110A880492DE0022B2ED110A8F3
:100C90007E4928E0102B0BD194F82930012B02D18A
:100CA00010A87B491FE0022B20D110A879491AE037
:100CB000202B0BD194F82930012B02D110A87649B2
:100CC00011E0022B12D110A874490CE0402B0DD179
:100CD00094F82930012B02D110A8714903E0022BAE
:100CE00004D1704910A80422FFF743F994F82B307F
:100CF000012B0CA80CBF102128210222FFF739F983
:100D000094F82D30042B04A803D0072B01D0D82150
:100D100000E0BC210122FFF72CF994F82D20012AD4
:100D200003D112A845F6404117E0022A02D112A8C9
:100D30005D4912E0032A02D112A85C490DE0042AA1
:100D400002D112A85A4909E0052A02D112A859492C
:100D500003E0072A04D1584912A80422FFF709F931
:100D600094F82D20012A02D105A8C92118E0022AF1
:100D700002D105A8C22112E0032A02D105A8C5218B
:100D80000DE0042A02D105A8952108E0052A02D128
:100D900005A8C02103E0072A04D105A89321012258
:100DA000FFF7E7F894F82D50012D08D113A8434917
:100DB0000422FFF7DEF806A81E212A4621E0022DB4
:100DC00001D0042D07D113A83D490422FFF7D1F823
:100DD00006A8262114E0032D07D113A839490422BF
:100DE000FFF7C7F806A85E210AE005F0FD05052D0E
:100DF00009D113A834490422FFF7BBF806A8A6219D
:100E00000122FFF7B6F8012203A80D21FFF7B1F880
:100E100094F82920012A04D10DA841F20761022289
:100E200004E0022A04D10DA840F20761FFF7A1F8FF
:100E300094F82C305A1E012A09D894F82A300EA8AA
:100E400013B940F63331B0E045F69811ADE0032B0D
:100E500001D0082B09D194F82A300EA813B940F616
:100E60003D21A2E045F2EA119FE0042B2ED194F837
:100E70002A300EA813B940F6510196E044F28E21B3
:100E800093E000BF07A902252D001A316B003B310A
:100E900052001A33BE003B339A001A355E013B35CF
:100EA0001D011A3796023B37A05C0400C06C080095
:100EB000805C0400E03F1E00E07D1E000704000986
:100EC00008054008091040081D040008052B09D139
:100ED00094F82A300EA813B940F6A30165E044F255
:100EE0001E5162E0062B09D194F82A300EA813B9DE
:100EF00040F2C25159E042F6146156E0072B09D185
:100F000094F82A300EA813B94FF480514DE04FF4F5
:100F100000414AE0092B09D194F82A300EA813B9F0
:100F200040F21E5141E042F6F4013EE00A2B01D0AE
:100F3000112B09D194F82A300EA813B940F266613A
:100F400033E043F2323130E00B2B09D194F82A30F0
:100F50000EA813B940F25C7127E043F6E02124E0CB
:100F60000C2B09D194F82A300EA813B940F2AE71B7
:100F70001BE043F6705118E0A3F11202012A09D8D0
:100F800094F82A300EA813B94FF4D7610DE043F25C
:100F9000C2510AE0142B0BD194F82A300EA813B9D1
:100FA00040F6F50101E044F2AE710222FEF7E1FFE6
:100FB00094F82D20531E012B17D894F82930012BBB
:100FC00008D194F82E3011A80BB17C4974E04FF091
:100FD000753171E0022B72D194F82E3011A80BB14B
:100FE000774969E04FF0673166E0032A17D194F83A
:100FF0002930012B08D194F82E3011A80BB171497A
:101000005AE04FF06F3157E0022B58D194F82E3050
:1010100011A80BB16C494FE04FF08B314CE0042A22
:1010200017D194F82930012B08D194F82E3011A84B
:101030000BB1664941E04FF05F313EE0022B3ED1FB
:1010400094F82E3011A80BB1614936E04FF09A3177
:1010500033E0052A17D194F82930012B08D194F8F0
:101060002E3011A80BB15B4926E04FF0483123E048
:10107000022B24D194F82E3011A80BB156491BE055
:101080004FF0853118E0072A19D194F82930012B47
:1010900008D194F82E3011A80BB150490CE04FF054
:1010A000923109E0022B0AD194F82E3011A80BB12D
:1010B0004B4901E04FF0D1310422FEF75AFF0225DF
:1010C0000426204607AB00952321042200F049F9AD
:1010D00020460FAB009623210C2200F042F9204657
:1010E00008AB00952321122200F03BF920462A4646
:1010F00009AB0095272100F034F9204632460AABAF
:101100000095272100F02DF920460BAB00952721F3
:10111000062200F026F9204610AB0096272108226F
:1011200000F01FF9012720460CAB0095272126224D
:1011300000F017F9204603AB00972E2140F6060277
:1011400000F00FF920460DAB00952E2141F6060266
:1011500000F007F920460EAB00952E2142F604025E
:1011600000F0FFF8204611AB00961E21002200F08F
:10117000F8F8204604AB009728210B2200F0F1F884
:10118000204612AB009628210C2200F0EAF82046F7
:1011900005AB00972A210B2200F0E3F8204606ABAE
:1011A00000972B210B2200F0DCF8009620462B2123
:1011B000072213AB00F0D5F815B0F0BD7555351505
:1011C000674727076F4F2F0F8B6B4B2B5F3F1F1FFF
:1011D0009A7A5A3A4828080E856545259272523205
:1011E000D1B1715173B50446FFF756F82046FFF7A9
:1011F00030F82046FFF780F82046FFF795F82046A4
:10120000FFF762F804F1380520460226FFF7D8FC04
:1012100020462B4600961821002200F0A2F80096E6
:1012200020462E2141F604022B4600F09AF802B027
:1012300070BD000010B50446FFF716F82046FFF712
:1012400031FB18B1204B1B6803B198472046FFF7CC
:1012500007FB30B1236C23B1204698472046FFF7A7
:1012600070FB2046FFF7FFFA30B1184B1B681BB12B
:1012700098472046FFF731FB2046FFF702FB80B17D
:10128000E36C73B1204698472046FFF736FB94F88D
:101290003030A3B12046FFF744FB2046FFF786F924
:1012A0000DE02046FFF7FAFA10B1A36C002BE9D14C
:1012B0002046FFF7DCFA10B1636C002BE2D1204628
:1012C000BDE81040FFF7F6BA8C0300209003002021
:1012D00001647047416470478164704782B002A91D
:1012E00001E90C00DDE90023C0E90E2302B07047DC
:1012F0001FB501F03F011AB98DF80C10012212E060
:1013000041F040018DF80C1002F07F01D20919BFA5
:1013100061F07F018DF80E208DF80D1002221CBFA8
:101320008DF80D1003220168069C00940C6803A937
:10133000A04704B010BD1FB5022300930DF10E03AA
:10134000FFF7D6FFBDF80E0005B05DF804FB1FB532
:101350000423009303ABFFF7CBFF039805B05DF8C0
:1013600004FB1FB501F03F012AB961F07F018DF840
:101370000C10012212E061F03F018DF80C1002F018
:101380007F01D20919BF61F07F018DF80E208DF821
:101390000D1002221CBF8DF80D1003220168069C5F
:1013A00000944C6803A9A04704B010BD1FB504AC5D
:1013B00044F8043D042300932346FFF7D2FF04B012
:1013C00010BD000030B5437813F003038BB0044622
:1013D00002D0012B0FD02BE0837833BB03238DF891
:1013E000043001238DF80530C3788DF8063001A84C
:1013F000FEF7CEFA19E083788BB1012B18D10D4D91
:101400001D222968033006F038F9286806F013F920
:101410001D289ABF0130C0B21E20207005E00223B3
:10142000C0F803300523037000E02046F7F76CFB9B
:101430000BB030BDA401002010B5054C23782BB9AA
:101440000D200449F7F758FB0123237010BD00BF9E
:10145000248A0020C5130108014B1878704700BF8B
:10146000248A002010B50B4B1A6801321A600A4B0F
:101470001B680BB9094B1B6809480C214B43C41866
:10148000C35833B10A205043211DA268BDE8104063
:10149000184710BD448A00203C8A0020308A002072
:1014A0009803002038B517491748184C184DF8F71D
:1014B000B5FD184920601448F8F7B0FD2860206891
:1014C000154CF8F7D7FD20602868F8F7D3FD134BCB
:1014D0001860134B00221A60124A7F2111602168A4
:1014E00081EAE172A2EBE172052AC1BF6FF031021D
:1014F0004A4302F6B8321A601868BDE83840F7F778
:10150000D3BC00BF528701085D870108408A0020D4
:10151000348A0020A88801082C8A0020588A0020DC
:10152000488A0020548A00200F4A104B10881988DE
:10153000014489B2B1F57A6F198084BF4FF47A61A2
:101540001980198884BF40421080B1F5FA6F3FBFFF
:10155000118849421180054A3CBF4FF4FA6111805D
:101560001888F7F7A1BC00BF960300204C040020A8
:10157000014B1888F7F798BC94030020F7F78CBC50
:101580002DE9F0410B68194D02EB83030C461889D5
:10159000B3F80A802B6817462E46F3B9FE280AD105
:1015A0000B6013490A6812B10B60BDE8F081114B62
:1015B0001A60BDE8F081FF280CD0F7F775FC3B6896
:1015C00045F6C05203FB08F3B2FBF3F3013B2B607B
:1015D000236801332360BDE8F081012B01D1F7F7C7
:1015E0005BFC3368013B3360BDE8F081508A00202A
:1015F0003C8A0020308A002073B50F4D2C78CCB97E
:101600000E4B0F480E221A600E4B00930A21012246
:101610002346F5F74BF80C4B06461860F4F702F832
:10162000642302460093304623460121F5F766F80D
:1016300001232B7002B070BD388A0020288A002058
:10164000F49A0108651401084C8A0020014B1878AF
:10165000704700BF388A0020014B1860704700BFF8
:101660003C8A002007B5F7F74BFD0DF10600FDF7AA
:10167000C3F80128F9D1FDF7B9F8204E68B1BDF8DB
:10168000062040F633039A4207D83378072B9CBFD5
:101690001B4921F8132001332DE0194D194CA8885E
:1016A000FDF7E0F8DFED180AA0819FED180A288801
:1016B000FDF7BAF8B1EE400A10EE103A6888DFED97
:1016C000120A9FED120A2360FDF7AEF8B1EE400A50
:1016D00010EE103AE888DFED0E0A9FED0E0A636007
:1016E000FDF7A2F8B1EE400A10EE103A2046A360D2
:1016F000F8F726FE00233370B7E700BF7C8A00208E
:101700006C8A00205D8A002000002042000020C278
:101710000000C8430000C8C31FB5FDF70FF802233F
:1017200000930023019302930393044904489622F3
:10173000F3F734FE05B05DF804FB00BF40A00108DC
:101740006516010838B500F0DFF900F0D3F800F0B5
:1017500051F80546084909482A46F9F721FD0024B1
:10176000AC4208DA204600F04BF8836F1B6903B1E6
:1017700098470134F4E738BD61A001086D92000874
:10178000F8B500F037F8002407460125BC4215DA09
:10179000204600F035F8836F5B696BB198470646C9
:1017A000074826B107492246F9F7FAFC04E0064942
:1017B0002246F9F7F5FC35460134E7E72846F8BD3F
:1017C0006D92000880A001089FA0010830B5446810
:1017D0000023A34208DA0268D55C8D4207D01A4480
:1017E000527802321344F4E74FF0FF3030BD184610
:1017F00030BD0000014B1868704700BF808A002090
:10180000044B1B689842BDBF034B7C2202FB003097
:1018100000207047808A00209C8A002008B5FFF7CE
:10182000D5FFC043C00F08BD70B5044615461E461F
:10183000FFF7CCFF002810DB22681318811C5C78AE
:10184000A642D8BF06F1FF3411442846224605F0CF
:10185000D7FE00232B55204670BD00232B704FF080
:10186000FF3070BD30B51F4C8DB0A288A379ADF8A4
:10187000142005462068049000210DF1170017225E
:101880008DF8163005F0C7FE54F81E0F0190A3889E
:10189000ADF8083005F17004002320460121ADF8B1
:1018A0000A30ADF80C30FFF7B9FF28B1204601210E
:1018B00004AA1E23FFF7B8FF20460221FFF7AEFF60
:1018C00028B12046022101AA0A23FFF7ADFFAA6F23
:1018D000054B9A4203D105480549F9F761FC0DB063
:1018E00030BD00BFC8770108848A00206D920008CF
:1018F000C0A001082DE9F04F614A13788BB09046E3
:10190000002B40F0BA800AAC04F8213DFEF7ACF998
:101910002046FEF7EDF9044680B19DF80720594BAB
:10192000594C5A485A49012A88BF2346F9F738FCCE
:101930000027584CB94601263D4640E053485649D9
:10194000F9F72EFC8DF80740F2E7C4F86A10C4F8E6
:10195000664004F16600012102AA1E23FFF764FF1E
:1019600014F8050C00286AD014F8041C00F0D4F810
:101970004A4B002808BF1846C4F86E005046FFF7CF
:1019800071FFD4F86E309B6819EA030F04D03F480A
:101990004349F9F705FC0026D4F86E30DB681F4296
:1019A00004D03A483F49F9F7FBFB0026D4F86E30E3
:1019B0009A68DB6849EA02091F4301357C349DF8C7
:1019C00007309D424BDAA4F10A0AE8B200217022E6
:1019D0005346FEF7DBF98346002839D014F80A3C59
:1019E000EB2B02D02948304910E050460721F9F787
:1019F000E5FB14F8033CC0B2834202D023482B49D4
:101A000004E014F8023C23B120482949F9F7C8FB47
:101A10002CE014F8011CA01E0231F9F7CFFB254A77
:101A200014F8011C7C2303FB05230B44C2B29B7AF0
:101A30009A428AD020491548F9F7B2FB16E09DF882
:101A400008301BB102A800F083F891E7134893E730
:101A50000E481A492A46F9F7A3FB5E46ADE70EB1D8
:101A6000174A1360012388F8003006E0074815493B
:101A70002A46F9F795FB00269FE70BB0BDE8F08FEB
:101A80008C8C0020B9A60108EFA001086D92000817
:101A9000F3A00108A68A002016A10108848A00206C
:101AA00024A201089DA2010868A1010892A10108D1
:101AB000C1A101089C8A0020F1A1010814A301081A
:101AC000808A00205CA3010808490B786BB9084B99
:101AD000084A1A60084B09489A1A094B92101A6072
:101AE00001230B700749F9F75BBB7047948C00200A
:101AF000988C002044BC010860BC01086D9200086D
:101B0000908C0020A8A3010808B5FFF7DDFF014B6A
:101B1000186808BD908C0020F8B506460F46FFF700
:101B2000D3FF094B1C68094B1D680022A24209DA49
:101B300055F822000178B14202D14178B94202D071
:101B40000132F3E70020F8BD908C0020988C002033
:101B50002DE9F0418046FFF7B7FF0A4B1E680A4B9C
:101B60001F680024B44208DA57F8245040466968D8
:101B7000F3F78CFB10B10134F4E700252846BDE8EB
:101B8000F08100BF908C0020988C002070B5134D20
:101B9000134E034604462A4603CAB24220606160DF
:101BA000154604F10804F6D10E4D0F4E03F128043A
:101BB0002A4603CAB24220606160154604F1080457
:101BC000F6D10A4C0A4D5033224603CAAA42186085
:101BD0005960144603F10803F6D170BD00000240BD
:101BE000280002400004024028040240000802408D
:101BF0002808024070B5114D0246034600F1280640
:101C0000186859682C4603C40833B3422546F7D1F7
:101C10000B4D02F15006186859682C4603C408336E
:101C2000B3422546F7D1074D7832186859682C46DB
:101C300003C4083393422546F7D170BD000002402B
:101C400000040240000802400D28F7B50E4626D8D1
:101C5000441E0C236343134D0121EF18E858F5F798
:101C600063FD00230193721E3B890093534253414D
:101C7000022E8DF804304FF0010302D18DF80730A9
:101C800004E0032E04BF02228DF807200C2000FB85
:101C90000455694668688DF80530F5F78DFB03B08B
:101CA000F0BD00BFC8A301080D280A460BD8064B9B
:101CB00001380C2101FB003300325868198918BF24
:101CC0000122F5F7C2BB7047C8A301080D2808B56B
:101CD0000CD8074B0C22013802FB003319895868D5
:101CE000F5F7A9FB431E5842584108BD002008BD26
:101CF000C8A3010873B50C230138164A58431418B9
:101D000001211058F5F710FD6846F5F78BFB238984
:101D10000093032301258DF8043060688DF8055089
:101D2000002369468DF80730F5F746FB0A48A17A8B
:101D30002A462B46F5F733F90748F5F772F90648B6
:101D40000221F5F776F90028F9D00348F5F76EF986
:101D500002B070BDC8A30108002101407FB5164A3A
:101D60000123834006381360144B002206280DD847
:101D7000DFE800F00A0C070C040C0C004FF0807236
:101D800004E04FF0007201E04FF040721A601B68EF
:101D9000009300238DF804308DF8053002930393EF
:101DA00004930748012369468DF81430F5F7A4F829
:101DB00007B05DF804FB00BF9C8C0020A08C0020C5
:101DC0000021014000B58BB0F5F788F804A8F5F7BD
:101DD000B9F86846F5F7D4F801214FF40070F5F72B
:101DE000C7FC002368460093019302930393F5F721
:101DF000B3F80C20FFF7B2FF03480121F5F7C6F84E
:101E00000BB05DF804FB00BF0021014038B5FFF7BF
:101E100071FFF2F70BFB0022094BF2F76DFB094B48
:101E2000044618680D46F2F7F1FA02460B462046C2
:101E30002946F2F78BFCF2F7F9FD00EE100A38BDE7
:101E4000000008409C8C002010B5114C86B0204644
:101E5000F5F7CEFC00234FF48272ADF80430ADF8F4
:101E60000620ADF80830ADF80A30ADF80C304FF46C
:101E70000072ADF81230ADF814302046202301A9CD
:101E8000ADF80E20ADF81030F5F70AFD06B010BD24
:101E900000300140F0B5002193B003220120F4F797
:101EA0006BF8454B454D1860032200210120F4F7E3
:101EB00063F8434B012118604FF48050F5F758FC4C
:101EC00001200146F5F730FC4FF480000121F5F7C1
:101ED0002BFC052128460A46F5F7BCFA28460621C0
:101EE0000522F5F7B7FA052228460721F5F7B2FAD9
:101EF00012AE02238DF808308DF809308DF80B30C2
:101F0000202346F8443D0024284631468DF80A40F7
:101F1000F5F752FA80232846314601934027F5F71A
:101F20004BFA284631460197264EF5F745FA4FF40D
:101F300080630993244B04934FF0C0654FF4003342
:101F4000304621460D930E940F9410940B940C94EC
:101F500011940A9408940794059403950697F5F74D
:101F60002BF9304603A9F5F7FDF80395174D0694B4
:101F700028462146F5F720F903A92846F5F7F2F897
:101F80008DF80240072312AC8DF80130442304F889
:101F9000483D012520468DF80350F6F79DF838237B
:101FA00020468DF80030F6F797F8FFF74DFF084B05
:101FB0001D7013B0F0BD00BFAC8C002000000240CB
:101FC000A48C0020886402400C3001401064024060
:101FD000A88C002010B5114C86B02046F5F708FCFF
:101FE00000234FF48272ADF80430ADF80620ADF84E
:101FF0000830ADF80A30ADF80C304FF40072ADF88F
:102000001230ADF814302046082301A9ADF80E2097
:10201000ADF81030F5F744FC06B010BD00300140BB
:1020200038B5254D254CE96068601021E26060609C
:1020300001222846F5F706F9012220461021F5F77E
:1020400001F928461E49F5F7E5F820461D49F5F740
:10205000E1F828460121F5F7AFF820460121F5F710
:10206000ABF8194802210122F5F745FC01210A4687
:102070001548F5F740FC14480121F5F730FC134BE7
:10208000002118684FF0FF320B46F4F745F901289C
:102090000BD10F4B002118684FF0FF320B46F4F7BD
:1020A0003BF9431E5C425C4100E0002406480021ED
:1020B000F5F715FC204638BD8864024010640240E4
:1020C000400F00203D00801000300140AC8C00200B
:1020D000A48C002037B5002402AD2246134845F8F1
:1020E000044D1021F5F7AEF810481149F5F7F2F854
:1020F0000E480F49F5F78EF822460E480221F5F7F3
:10210000FAFB0A482146F5F757F80B4B29461868A1
:10211000F4F7B2F8019B3BB1084B4FF080521A60C4
:10212000BFF34F8FBFF36F8F03B030BD88640240A1
:102130000008002000300140AC8C002004ED00E0DD
:1021400037B5002402AD2246134845F8044D10214E
:10215000F5F778F810481149F5F7BCF80E480F4923
:10216000F5F758F822460E480121F5F7C4FB0A4856
:102170002146F5F721F80B4B29461868F4F77CF84F
:10218000019B3BB1084B4FF080521A60BFF34F8F59
:10219000BFF36F8F03B030BD106402402000001009
:1021A00000300140A48C002004ED00E0024B1878C0
:1021B00008B1F6F78DBB7047B08C00202DE9F341D4
:1021C0002C4D2E78002300930193002E4ED12A49E6
:1021D0002A48F8F7E5FF01200146F5F7A5FA0220A5
:1021E0000121F5F7A1FA04200121F5F79DFA01215B
:1021F0000420F5F799FA68460124F5F713F9204809
:102200008DF8066069464FF480588DF804400094BC
:10221000F5F7D2F81B48CDF800806946F5F7CCF801
:102220004FF48077184800976946F5F7C5F84FF4E2
:102230000046154800966946F5F7BEF81048214655
:102240002246F5F702F90F4841462246F5F7FDF818
:102250000D4839462246F5F7F8F80B483146224634
:10226000F5F7F3F80948F6F7CBF92C7002B0BDE8A2
:10227000F08100BFB08C00207CA401086D920008A2
:102280000000024000040240000802401400002048
:1022900070B531B9047841788278C31C00F1240507
:1022A0000FE001460023104A9C5CC4541A440333D7
:1022B00054784C7092788A70242B01F10301F2D18A
:1022C000E8E71E7803F8036C5E7803F8026C9E78EA
:1022D00003F8016C0333AB42F3D180F8214080F85E
:1022E000221080F8232070BD6DA50108234B09B191
:1022F00000221A60D3ED007A204AB7EE007AF4EE9D
:10230000C77AF1EE10FA49BF9FED1D7A82ED007A8F
:1023100077EE877AC2ED007A93ED007A00F124021D
:10232000184B1B7807EE903AF8EEE77A033067EE29
:10233000877AFCEEE77A17EE903A00F8033C124BEE
:102340001B7807EE903AF8EEE77A67EE877AFCEEB4
:10235000E77A17EE903A00F8023C0C4B1B7807EE38
:10236000903AF8EEE77A67EE877AFCEEE77A17EEB6
:10237000903A00F8013C9042D2D17047B48C0020D2
:10238000CDCC4C3D580400204E04002068040020B1
:1023900030B509B900240AE0034600F12401002207
:1023A0001A705A709A7003338B42F8D1F2E7114BCE
:1023B000E25CE11840F20F234D78D1085943173100
:1023C0008911017002F00702690941EAC20205F0B1
:1023D0001F0540F203114A436B4321321733023485
:1023E00092119B11182C4270837000F10300DED112
:1023F00030BD00BF98B2002030B5194A85B0034601
:1024000010681179009052F8050F8DF8041002AC95
:1024100012790290227100211DF8012002EB420284
:102420009818FF2501319D5405294FF00002427094
:102430008270F1D1A05C00EB40001D180021013238
:102440001954052A4FF0FF006870A970F2D1187076
:10245000587098709974D974197505B030BD00BF63
:10246000F077010870B531B9047841788278C31CDF
:1024700000F124050FE001460023104A9C5CC4547F
:102480001A44033354784C7092788A70242B01F1EB
:102490000301F2D1E8E71E7803F8036C5E7803F8D5
:1024A000026C9E7803F8016C0333AB42F3D180F8E1
:1024B000214080F8221080F8232070BDA0A40108DC
:1024C00070B549B990F8214090F8221090F8232077
:1024D0000346A0F1240515E013490C220C2492FBBD
:1024E000F4F304FB132303EB430311F8015CC5541D
:1024F000C4180B7863704B78A370013A01F10301A3
:10250000ECD1DFE79E7F83F82160DE7F83F82260D5
:1025100093F8206083F82360033BAB42F2D1047050
:102520004170827070BD00BFC5A4010870B504463B
:102530000D4611B1164B00221A6029461548FFF7C7
:10254000A7FE29461448FFF7BBFF25460023114983
:10255000114A585C9E5C400800EB5600E054194458
:102560001A4448785678400800EB56006870907816
:102570008A780333520802EB5002242BAA7005F12B
:102580000305E4D1024A13680133136070BD00BF34
:10259000248D0020E88C00202D8D002010B500F146
:1025A000240421B9134A1368092B09DD17E00346F7
:1025B00000221A705A709A700333A342F8D1F1E7DF
:1025C000D9070CD5002101704170FF2181700330C3
:1025D000A042F7D10133132B09DD002307E00021CE
:1025E0000170417081700330A042F8D1F2E71360AE
:1025F00010BD00BFE08C002013B504462E492F48C3
:10260000F7F70CFD2E4B1860F7F76EFDA21C263471
:102610002C482D49D0ED007AD1ED006A9FED2B7A40
:1026200076EEE76A70EE677AC7EE266A9FED287A43
:10263000B0EE476AA6EEA76AB4EEC76AF1EE10FAEA
:102640000BDCB5EEC06AF1EE10FA08D4FCEEC67AE7
:10265000CDED017A9DF8043002E0FF2300E0002375
:1026600002F8023C002302F8013CD0ED007AD1EDE3
:10267000006A76EEE76A30EE676AC7EE266ADFED3B
:10268000157AE6EE867AF4EEC77AF1EE10FA0BDCF4
:10269000F5EEC07AF1EE10FA07D4FCEEE77ACDED54
:1026A000017A9DF8043000E0FF2302F8033BA242C8
:1026B000AED102B010BD00BF309001086F9001088C
:1026C000148D0020640400205404002000007FC307
:1026D00000007F4300000000F8B5464E464D474FCE
:1026E0000446306800280FDA45494648F7F796FC5B
:1026F000454930604348F7F791FC44492860414818
:10270000F7F78CFC3860F8BDF7F7EEFCFDEEC07A09
:10271000286817EE906AF7F7E7FCFDEEC07A386894
:1027200017EE905AF7F7E0FC394A96423146B8BFA7
:102730001146B1F5007FBDEEC00AA8BF4FF400718D
:10274000954210EE103A2846B8BF1046B0F5007F0B
:10275000A8BF4FF400709342B8BF1346B3F5007F93
:102760001A46A8BF4FF400720029ACBF01234FF0F6
:10277000FF33002801FB03F1ACBF01234FF0FF330F
:10278000002A00FB03F04FF00205A8BF012391FBD4
:10279000F5F1B8BF4FF0FF33042990FBF5F0D8BF37
:1027A00000210428D8BF00205A4392FBF5F3042BE4
:1027B000D8BF0023B3F5807F08BF4FF0FF33B0F5DB
:1027C000807F08BF4FF0FF30B1F5807F08BF4FF02A
:1027D000FF31C2B2DBB2C9B204F1240023706270CF
:1027E000A17003348442F9D10A4A1378013313707B
:1027F000F8BD00BF5C040020B88C0020288D0020AC
:10280000B0A6010828870108B9A60108C2A60108D8
:1028100000FEFFFF218D0020F0B52DED028B044658
:1028200083B0A9B9D44FD54E3B68D54D002B1ADAE9
:10283000D449D548F7F7F2FBD4493060D248F7F7CE
:10284000EDFBD3492860D048F7F7E8FB38608EE10C
:10285000034600F1240100221A705A709A70033363
:102860008B42F8D1DEE73068F7F73EFC2868B1EE1E
:10287000408AF7F739FCF3EE047AB4EEE78AF1EE1A
:1028800010FAB1EE400A00F36A81BBEE047AB4EEAE
:10289000C78AF1EE10FAB4EEE70A00F13E81F1EEDC
:1028A00010FA00F34381FBEE047AB4EEE70AF1EE8E
:1028B00010FAB5EEC08A00F14581F1EE10FA0CDB9A
:1028C000F7EE007A0BE0B4EEC70AF1EE10FA40F131
:1028D0002A81B0EE470AB0EE478AFFEE007A67EE33
:1028E000887AB5EEC00A27EE888AF1EE10FABFEEBC
:1028F000007AF7EE007AB8BFF0EE477A67EE807A9A
:10290000DFEDA46A60EE277AB2EE040A38EE007AB0
:10291000B4EEE67AF1EE10FA0BDCB5EEC07AF1EE29
:1029200010FA08D4BCEEC76A8DED016A9DF8043038
:1029300002E0FF2300E00023B4EEE67AF1EE10FAA5
:1029400084F821300BDCB5EEC07AF1EE10FA08D431
:10295000BCEEC76A8DED016A9DF8043002E0FF23EA
:1029600000E00023B4EEE67AF1EE10FA23700BDCFF
:10297000B5EEC07AF1EE10FA08D4BCEEC77A8DED50
:10298000017A9DF8043002E0FF2300E0002330EEDE
:10299000677AE370B4EEE67AF1EE10FA0BDCB5EE8E
:1029A000C07AF1EE10FA08D4BCEEC76A8DED016A68
:1029B0009DF8043002E0FF2300E00023B4EEE67A45
:1029C000F1EE10FA23720BDCB5EEC07AF1EE10FADC
:1029D00008D4BCEEC76A8DED016A9DF8043002E0B0
:1029E000FF2300E00023B4EEE67AF1EE10FAE37282
:1029F0000BDCB5EEC07AF1EE10FA08D4BCEEC77A63
:102A00008DED017A9DF8043002E0FF2300E0002301
:102A100030EE488AA373B4EEE68AF1EE10FA0BDCCE
:102A2000B5EEC08AF1EE10FA08D4BCEEC87A8DED8E
:102A3000017A9DF8043002E0FF2300E00023B4EEA9
:102A4000E68AF1EE10FAE3730BDCB5EEC08AF1EE24
:102A500010FA08D4BCEEC87A8DED017A9DF80430E6
:102A600002E0FF2300E00023B4EEE68AF1EE10FA64
:102A7000A3740BDCB5EEC08AF1EE10FA08D4BCEEFC
:102A8000C88A8DED018A9DF8043002E0FF2300E042
:102A9000002337EE800A6375B4EEE60AF1EE10FA11
:102AA0000BDCB5EEC00AF1EE10FA08D4FCEEC07AE9
:102AB000CDED017A9DF8043002E0FF2300E0002311
:102AC000B4EEE60AF1EE10FAA3760BDCB5EEC00A1E
:102AD000F1EE10FA08D4FCEEC07ACDED017A9DF843
:102AE000043002E0FF2300E00023B4EEE60AF1EE3A
:102AF00010FA63770BDCB5EEC00AF1EE10FA08D4D9
:102B0000BCEEC00A8DED010A9DF8043002E0FF23FF
:102B100000E0002384F8203029E0F1EE10FA7FF77E
:102B2000D2AEB0EE670AB0EE478AD6E6B5EEC08AFE
:102B3000F1EE10FA10DB28EE088AB3EE040AF7EE85
:102B4000007ADBE6F1EE10FA06DBB0EE670A28EE5B
:102B5000088AFFEE007AD1E6B0EE670ABDE6B4EE71
:102B6000E70AF1EE10FAB0EE678AE4DC9BE603B008
:102B7000BDEC028BF0BD00BF50040020848D00200E
:102B8000188D0020528701085D870108A888010878
:102B9000B188010800007F43F8B52DED028B474F47
:102BA000474E3B78474D04465BB947494748F7F7DE
:102BB00035FA474930604548F7F730FA0123286075
:102BC0003B703068F7F790FA2868F0EE408AF7F724
:102BD0008BFAB5EE400AF1EE10FAB0EE408A11D051
:102BE00088EE800A01F0C4F8DFED3A7AB5EEC08ACB
:102BF000F1EE10FA30EE270A06D5DFED377A30EE27
:102C0000270A01E09FED350ADFED357ADFED356A01
:102C1000B2EE087A20EE070AB0EE046A80EE270AC8
:102C2000A01C002268EE087AE8EEA87AF1EEE77AB6
:102C3000F4EEE67AF1EE10FAD4BFFDEEE77ADFEDBE
:102C40002A7AF8EEE77AF0EE476A87EE866A07EEB0
:102C5000102AB8EEC77AF1EE085A30EE477A013200
:102C6000B0EEC77AB4EEE57AF1EE10FAC8BF36EEF0
:102C7000C77AF0EE675AE7EE465ABDEEE57A17EEF0
:102C8000103AFF2BDABF23EAE371C9B2FF21FF2B11
:102C900000F8021CDABF23EAE371C9B2FF21FF2B5F
:102CA000DABF23EAE373DBB2FF230C2A00F8011C2E
:102CB00000F8033BCBD1BDEC028BF8BD2C8D00207E
:102CC000E48C0020108D0020528701085D870108E8
:102CD000A8880108DB0FC93FDB0F49400000000056
:102CE000DB0FC94000007F43FF0000007FB5FAF70B
:102CF00033FB144B144804A90D221A60102300243E
:102D0000012541F8083D8DF80C508DF80E408DF8E6
:102D10000F40F4F751FB0D4B00932A463221234616
:102D20000B48F3F7C3FC0B4B06461860F2F77AFC2E
:102D3000642302460093304629462346F3F7DEFC1F
:102D400004B070BD5C8D002000040240592D0108C4
:102D5000E8A401081C8D002008B500210748F7F7FA
:102D600011FA074B07481B7810211BB1BDE808403A
:102D7000F4F767BBBDE80840F4F765BB592E0108BE
:102D8000208D00200004024041B100F12402002304
:102D900003704370837003309042F8D17047000095
:102DA00070B5254A09B100231360D2ED007A224B99
:102DB000224C234DB7EE007AF4EEC77AF1EE10FA0A
:102DC00049BF9FED207A83ED007A77EE877AC3EDD5
:102DD000007A237803EB43016A186E5C557891788A
:102DE00000F1240206704570817003309042F9D1E1
:102DF000154D1648297802780131C9B20132D2B294
:102E000004292970027009D9002101332970032196
:102E100093FBF1F101EB41015B1A23700C2A09D9F4
:102E20000B4A002303701378B3FA83F35B09137022
:102E3000084A137070BD00BF548D0020588D0020CB
:102E400064A50108CDCC4C3DB18C0020528D0020F2
:102E5000518D0020208D002008B50C4A0C4B1268C3
:102E60001B68934201D90B480BE00B4A0B481168D1
:102E700013600B4AC91A52F8232018BF012190474A
:102E800006480C21BDE80840FAF712BB5C8D002013
:102E900060040020BC8C00200C8D0020608D002080
:102EA0007004002008B5FBF7ABF80248BDE8084005
:102EB000F6F702B8A80400200020FBF71DB910B5F2
:102EC00004468020FBF718F9A0B2BDE81040FBF7DC
:102ED00023B90000014B1878704700BF888D00208F
:102EE0007FB50C4D2C789CB90B490C48F8F758F974
:102EF00001264FF41650FBF73DFB00960194029417
:102F000003940748074996222346F2F747FA2E70A2
:102F100004B070BD888D0020D0A501086D92000816
:102F2000292F01082EA6010813B52E491520FBF7FD
:102F300097FB4FF4FA70F2F7E3FC4FF4E130FBF744
:102F400019FB4FF4FA70F2F7DBFC12202649FBF76D
:102F500087FB1A202549FBF783FB0DF10700FBF7E0
:102F60009FFB9DF80700F6F781F99DF80710204BAD
:102F7000242902D100221A70EFE70A292AD11978F0
:102F80001C4A002353541C46D15C2A29184608D1F8
:102F9000013010440021102204F008FC844205D0C6
:102FA000DBE70133622BF3D04C40EDE712481149C7
:102FB000052204F048FB10B9104800F0F1F8104861
:102FC0000C49052204F03FFB0028C6D10B4800F055
:102FD000A5F8C2E71A78632ABFD8501C1870054BB1
:102FE0009954BAE7CA040020DF040020B00400208E
:102FF00014B30020B0B20020FCA50108B5B2002037
:1030000002A60108036813F8012B03602C2AF9D1EA
:103010004FF0FF30704700002DE9F7430C4606469D
:103020001546FFF7EFFF012C09D043D3022C6AD1DC
:10303000306800210A2204F0B9FB286063E03068A0
:1030400069460A2204F0B2FB8046009803782E2BD2
:103050000AD1013001A90A2204F0A8FB04469DE828
:103060000900181A013801E000200446F1F7DEF9E2
:103070009FED270B41EC110B01F0AAF857EC106BF8
:103080004046F1F7D3F932463B46F1F735FA804630
:1030900020468946F1F7CAF902460B4640464946A2
:1030A000F1F778F832463B46F1F750FBF1F7BEFCFA
:1030B000286028E069460A223068174F04F076FB42
:1030C0000446009801A90A22013004F06FFB642332
:1030D00094FBF3F103FB11427A433C244FF47A73DF
:1030E00092FBF4F207FB0122584390FBF4F0141812
:1030F0003046FFF787FF33681B7803F0FB03532B41
:1031000008BF64422C6003B0BDE8F083AFF30080D9
:1031100000000000000024408096980037B502AC03
:103120001E4D44F8040D2A4620460221FFF774FF85
:1031300020462A1D0021FFF76FFF204605F10802F7
:103140000021FFF769FF204605F10C020221FFF77D
:1031500063FF204605F110020221FFF75DFF2046C4
:1031600005F114020121FFF757FF05F1180220466F
:103170000121FFF751FF2046FFF744FF012105F130
:103180001C022046FFF748FF2046FFF73BFF204682
:10319000FFF738FF002003B030BD00BFCC8D00200A
:1031A00073B502AC002644F8040D2046FFF72AFF51
:1031B00020460221104AFFF72FFF0F4D043620460C
:1031C0000221AA19FFF728FF302EF6D1204605F17B
:1031D00034020121FFF720FF204605F138020121CA
:1031E000FFF71AFF2046012105F13C02FFF714FF0B
:1031F000002002B070BD00BF8C8D002013B5694661
:10320000FDF723FB094B5B7D022B6C4605D0032B9E
:1032100005D0012B08D1064B02E0064B00E0064B1F
:1032200094E8030083E8030002B010BDF290002090
:10323000A88F0020988F0020E08E00200000000062
:103240002DE9F04F89B00446FDF7CFFA9C4D0646B4
:1032500000211522284604F0DEF96F1D204629467C
:103260003246FDF7E7FA38469649082204F0B8F9E5
:1032700048B12046FDF755FB2046FDF761FC20468E
:10328000FDF794F90EE106AE31462046FDF726FC27
:1032900029468D4B51F80D2FC3F805204A68C3F815
:1032A00009203A68C3F80D207A68C3F811206A7DB6
:1032B000013A032A00F2F680DFE802F002371255E5
:1032C00096E80300814A82E8030002225A752046EC
:1032D000AA7D9A75FDF745FB2046FDF731FC35E0E8
:1032E00096E803007A4A82E8030004215975A97D13
:1032F00099757649774D08680979C3F817002971DF
:1033000075490868D861097910686972C3F82100A5
:103310001379AB732046FDF724FB2046FDF710FC24
:103320002046A5F11701332213E06C49AA7D0978E4
:103330008A4240F0B08096E80300694D9A7585E8AE
:103340000300032120465975FDF70BFB5E4920461B
:103350001722FDF728FA20460121FDF789F92046BA
:10336000FDF73FF99EE05D4BAA7D1B78544C9A42D5
:1033700005D05C4B002119705B4B18688EE023462A
:10338000DFF8488153F8170FC8F800001B7988F858
:1033900004302346DFF8409153F81C0FC9F80000B1
:1033A0001B7989F804302346494D53F8210F2860D2
:1033B0001B792B714A4BD3F800A04C4B1868C0EB1B
:1033C0000A00F1F723F8D9F800900646D8F8000073
:1033D000C0EB09000F46F1F719F8CDE900012868A4
:1033E000C9EB0000F1F712F8414BCDE90201186872
:1033F000CAEB0000F1F70AF8DFF800C13D4BDCF83A
:103400000050CDF814C082468B4603EB850530464C
:10341000DDE902233946F1F76FF8524680468946C6
:103420005B46DDE90001F1F767F802460B464046CE
:103430004946F0F7ADFEDDE9022380468946304675
:103440003946F0F7A7FEDDE90023F0F7A3FE524668
:103450005B46F0F79FFE02460B4640464946F1F7B1
:1034600075F913A3D3E90023F1F770F912A3D3E997
:103470000023F1F741F8F1F7D9FADDF814C028601C
:103480001D4BDCF8002003EB8203D4F82E201A60D9
:10349000144B01221A70144B186800210A460B467F
:1034A000F2F79EFD09B0BDE8F08F00BFAFF30080DA
:1034B0000000000030C12D420000004A78DEB1411A
:1034C000F08E002068050020F2900020E88E002099
:1034D000A08F002009910020988F0020B08F00203D
:1034E000D08E002075900020EC8D0020A88F002049
:1034F000E08E0020F08D002054910020D88E002016
:10350000044B00211970044B0A4618680B46F2F769
:1035100067BD00BF75900020EC8D002010B5054BF5
:103520001A781C461AB904480449F7F739FE20787E
:1035300010BD00BF458F00206D9200084CA6010809
:103540000846F2F7DDB9000070B58CB0FEF7A2FCBA
:1035500000244FF4006562480B940AA90A958DF87F
:103560002C40F3F729FF0B210220F4F7EBFD082391
:10357000089508A801258DF825304FF480668DF850
:1035800024408DF82650F3F7BDFE55480A960AA947
:103590008DF82C508DF82E508DF82F40F3F70CFF3E
:1035A00005202946FEF750FB314622464C48F3F7EA
:1035B0004CFF0A20F2F7A4F931462A464848F3F7AF
:1035C00044FF0A20F2F79CF9032228462146F2F72D
:1035D000D3FC444A106020B1214622462346F2F72C
:1035E000FFFC0120F2F7C4FD3F4B032218600021CD
:1035F0000120F2F7C1FC3D4A106020B100210A46CB
:103600000B46F2F7EDFC002405238DE8180038493D
:1036100002944FF49672234603943648364DF1F7E0
:10362000BDFE03234FF496728DE8180033490294CF
:10363000234603943248F1F7B1FE32483249FCF791
:103640000DFD3048FCF752FF064628B12F4930489F
:103650002C70F7F7A5FD41E02A48FCF771FD002129
:103660000CAB44F25B0063E9060126480CCBFDF786
:1036700035FE24482749FDF72BFE22482649FDF751
:1036800029FE26491F48FDF727FE1E48FCF7DBFFF1
:103690001C48FDF755FA1B482149FDF733FA194834
:1036A0000221FDF769F817480921FDF76DF84FF47D
:1036B0007A711448FCF744FE1248FDF793FD282365
:1036C0008DF8143001240D2305A88DF815308DF8E0
:1036D00016608DF81740F4F7FFFC2C700CB070BD2D
:1036E000000802404C91002050910020EC8D0020F9
:1036F00073A6010841390108458F00207EA6010804
:1037000015380108488F00200C05002086A6010806
:103710006D920008FD3101084132010801350108B0
:10372000E591010809B9FEF78FBB012901D1FEF728
:1037300051BC70472DE9F047154E164C3068089F74
:1037400089460021154698464FF0FF320B46F2F7A6
:10375000E3FD05200021FEF7A7FA49462A46204648
:1037600003F04EFF41463A46601903F049FF2146F7
:10377000094AE819FEF754FC05200121FEF794FAE6
:10378000002130680A460B46BDE8F047F2F728BC36
:1037900050910020B18F0020088E00202DE9F047C5
:1037A000194F1A4E3868089D8846002114469946DC
:1037B0004FF0FF320B46F2F7AFFD05200021FEF778
:1037C00073FA41462246DFF84880304603F018FF7E
:1037D0002A463019002103F01EFF31464246601987
:1037E000FEF71EFC2A4608EB0401484603F008FFDA
:1037F00005200121FEF758FA002138680A460B46D9
:10380000BDE8F047F2F7ECBB50910020B18F0020EB
:10381000088E002070B5F5F773FC3E4E3E483F4CD5
:10382000FCF71AFE31783E4B3E4A1D681088C1B93C
:10383000012180B201FA05F520EA05001080186820
:1038400054F82000052815DC1D6854F825000844AC
:1038500044F825001C681088A140014389B21180FA
:1038600008E00121A940014389B211801A680021B2
:1038700044F82210002535701A682B4C06200132BE
:1038800092FBF0F100FB112228491A600A78012608
:103890003244D2B20A70A275254A6675104650F8B5
:1038A000481FC4F80D104168C4F811101968214B65
:1038B000194853F8213002EBC3031A68C4F80520F5
:1038C0005A68C4F80920FDF74CF81348FDF738F999
:1038D000172221461048FCF766FF31460E48FCF7D8
:1038E000C7FE0D48FCF77DFEF1F79CFE124B044627
:1038F000294618684FF0FF322B46F2F70DFDF1F71D
:1039000091FE001B07EE900A0C4BF8EE677AC3EDB0
:10391000007A82E775900020488F0020D890002020
:10392000D88E0020F0900020F2900020B08F002070
:1039300020050020F4040020EC8D00204891002098
:1039400008B5F5F7DDFB0A4B002118684FF0FF3290
:103950000B46F2F7E1FC074B00221A600648FDF720
:1039600069FC0120FEF7B2F90028F7D1EBE700BFB0
:103970004C910020140000E0488F002013B502ACE9
:10398000002344F8043D0D4B4FF48072C3F88421AA
:103990004FF40060F3F70AFD094B21461868F2F76F
:1039A0006BFC019B3BB1074B4FF080521A60BFF399
:1039B0004F8FBFF36F8F02B010BD00BF00E100E07A
:1039C0004C91002004ED00E0014B1878704700BFD7
:1039D0006C91002010B5044C23781BB9FDF79CFEB8
:1039E0000123237010BD00BF6C910020F8B50C4C72
:1039F000064604F18407012554F8060C34F8021C2D
:103A0000F3F719FD864206D0064807492246334699
:103A1000F7F7C6FB00250C34BC42EDD12846F8BDB3
:103A2000960500206D9200083BA8010870B5464B32
:103A3000A2B001241C70FBF7ABFC21460546072011
:103A4000F3F772FE04A8FEF7A1F800243F4E3319E5
:103A5000A0599B88029302A900230C348DF80C30E6
:103A60008DF80E308DF80F308DF80D30F3F7A4FC83
:103A7000842CEBD1341D8836002D40D0238802934E
:103A80000025012354F8040C8DF80C3002A98DF8A0
:103A90000E508DF80D50F3F78FFC54F8040C21886C
:103AA000F3F7CFFC0195019BB3F57A7F03DA019B15
:103AB00001330193F7E70120FFF798FF21880546BE
:103AC00054F8040CF3F7BFFC00230193019BB3F5FA
:103AD0007A7F02DA019B0133F7E70020FFF786FFC8
:103AE0000C3400284FF0000354F8100C8DF80C3003
:103AF00002A908BF0025F3F75FFCB442BCD104A8BB
:103B0000FEF778F8EDB1124E124C306801238DF8B3
:103B10000C3000238DF80E308DF80D3002A9B388DB
:103B20000293F3F749FCA3882068029302A9F3F7F4
:103B300043FC3068B188F3F786FC2068A188F3F76E
:103B400082FC284622B070BD6D91002090050020B7
:103B5000780500208405002010B500F1140102460C
:103B600000238A4204D012F8014B2344DBB2F8E769
:103B7000037500211522BDE81040FAF717BA0000BE
:103B8000F0B54C4D2C7887B0002C5AD14A48F9F743
:103B9000CDFA4948FAF7B4F9FAF7C4F9FAF7C2F9D5
:103BA000002836D0454E214630461522FAF7E6F970
:103BB000334670B33168424A91422AD13279012AA0
:103BC00018D1307D214622465C5C01312244142903
:103BD000D2B2F9D190423B4C3B4805D13B4901223E
:103BE000F7F7DEFA012303E03949F7F7D9FA0023A2
:103BF00023700EE00AD8F07B214622465C5C01313E
:103C000022440F29D2B2F9D190421FD000222D4B6D
:103C10001A702C4B1A781C468AB92E4B274A03F18E
:103C2000140153F8040B42F8040B8B42F9D11B78B2
:103C300013702848FFF790FF28B101232370012358
:103C40002B70002033E04FF0FF3030E0214B6C460A
:103C500003F110076A4618685968264603C60833F8
:103C6000BB423446F7D1186830601B7933711A4B68
:103C70001968CDF805105968CDF809101989ADF803
:103C80000D10053B04AE144603CCB44218605960D5
:103C9000224603F10803F6D12068186022791A71D0
:103CA0000648FFF759FF0028B3D00122AFE707B05D
:103CB000F0BD00BF6F910020DC010020709100205A
:103CC000307842436E9100206D92000878A8010878
:103CD00098A801081406002075910020FAF73AB957
:103CE000034B1B7813B1034B587970476E20704714
:103CF0006E91002070910020024B187808B1024BA1
:103D0000987970476E91002070910020064B1B78C7
:103D10002BB1064BD97B1B690020184370474FF02D
:103D2000E730E721704700BF6E91002070910020BE
:103D3000054B1B781BB1054BD3F8073000E000237F
:103D400000EE103A704700BF6E9100207091002085
:103D5000054B1B781BB1054BD3F80B3000E000235B
:103D600000EE103A704700BF6E9100207091002065
:103D700038B510EE105A25F00044B4F1A14FF0EE22
:103D8000407A0BDBB4F1FF4F58DCDFED547A9FED46
:103D9000540A002DC8BFB0EE670A38BD514B9C4293
:103DA0005DDCB4F1445F4CDB4FF0FF3367EEA75AA4
:103DB0009FED4D1A9FED4D2A9FED4D3ADFED4D1AC7
:103DC000DFED4D2A9FED4D4ADFED4D3A9FED4D5A07
:103DD000DFED4D4A9FED4D6ADFED4D6A25EEA57A88
:103DE0005A1CA7EE012AE7EE212AA2EE073AE2EEDC
:103DF000873AA3EE074AE3EE874AA4EE075AE4EEB9
:103E0000876AA5EE076A26EE877A66EE256A3ED0B7
:103E1000404A41499B001A4476EE876A92ED007A47
:103E200096EEA77A0B44002D93ED000A77EE677AA1
:103E300070EE677A28DBB0EE670A38BD30EE000A14
:103E400038BD9FED367A30EE077AF7EE006AB4EEB1
:103E5000E67AF1EE10FAA7DDB0EE670A38BD00F0A1
:103E60009FF82F4B9C4219DCA3F5D0039C422ADC1F
:103E7000F0EE007ABFEE007AA0EE277A002370EE13
:103E8000277AC7EE277A91E7B1EE670A38BD76EE5A
:103E9000876AB0EE670AA6EEE70A38BD214B9C425E
:103EA0000BDCF7EE087AB7EE007AA0EE277A022351
:103EB00070EE677AC7EE877A78E7FFEE007AC7EE92
:103EC000807A032372E7F7EE007A30EE677A70EEBD
:103ED000277A0123C7EE277A68E700BFDB0FC93FC7
:103EE000DB0FC9BFFFFFDF3ED769853C59DA4B3D89
:103EF000356B883D21A215BD6BF16EBD6E2EBA3DAE
:103F000095879DBD2549123E388EE3BDABAAAA3EDA
:103F1000CDCC4CBEB8A80108C8A80108CAF24971A6
:103F2000FFFF973FFFFF1B4000B510EE103A1A4A03
:103F300023F00043934283B019DDB3F1FF4F04DB5C
:103F400030EE400A03B05DF804FB684602F0CAF8A0
:103F500000F0030001289DED000ADDED010A12D0FA
:103F600002280BD0A0B1012002F0CAFDEAE7DFED84
:103F70000B0A02F051FA03B05DF804FB02F04CFAB0
:103F8000B1EE400ADEE702F0BBFDB1EE400AD9E730
:103F900002F042FAD6E700BFD80F493F0000000008
:103FA00010EE103A23F0004300EE103A704700BFC5
:103FB00010EE103A33F0004001D102207047A0F516
:103FC0000003B3F1FE4F01D204207047054B421E9F
:103FD0009A4201D803207047A0F1FF40B0FA80F068
:103FE00040097047FEFF7F0000B510EE103A1B4AF3
:103FF00023F00043934283B01ADDB3F1FF4F04DB9B
:1040000030EE400A03B05DF804FB684602F06AF83F
:1040100000F0030001289DED000ADDED010A15D036
:1040200002280DD0A8B102F0F7F9B1EE400AE9E795
:10403000DFED0B0A002002F063FD03B05DF804FB26
:10404000012002F05DFDB1EE400ADBE702F0E4F989
:10405000D8E7012002F054FDD4E700BFD80F493F54
:104060000000000000B510EE103A134A23F00043A0
:10407000934283B018DDB3F1FF4F04DB30EE400A0A
:1040800003B05DF804FB684602F02CF800F0010074
:104090004000C0F101009DED000ADDED010A02F0D3
:1040A00077FD03B05DF804FBDFED040A012002F0A8
:1040B0006FFD03B05DF804FBDA0F493F000000001C
:1040C000F0B52DED048BB0EE409AF0EE609A3B4CCB
:1040D0008BB000F07DFC94F90030B0EE408AF0EE39
:1040E000608A01330DD0B0EE490AF0EE690A02F0A1
:1040F00047FE30B151EC190B00220023F0F778FC99
:1041000038B9B0EE480AF0EE680A0BB0BDEC048B8B
:10411000F0BD2B4B2478019300238DED029B8DED98
:10412000049B08939CB9274D4FF0604451EC190B48
:1041300000220023CDE90645F0F746FC002834D1E3
:1041400001230093684602F049FE98B90EE01E4F25
:10415000002651EC190B00220023CDE90667F0F789
:1041600033FCA0B90123022C0093EBD103F032FA07
:1041700021230360154802F033FE8DED060B089BEA
:10418000B3B99DED060B0BB0BDEC048BF0BD022363
:104190009C42009304D0684602F020FE0028EED135
:1041A00003F018FA22230360E9E702230093F2E701
:1041B00003F010FA089B0360E3E700BF2906002024
:1041C000D8A80108FFFFEFC70000F0FFF8A801081A
:1041D0002DE9F0432DED068BB0EE40AAF0EE60AA7B
:1041E000B0EE419AF0EE619AB34C8BB000F08CFCCB
:1041F00094F90030B0EE408AF0EE608A013306D0C8
:10420000B0EE490AF0EE690A02F0BAFD40B9B0EE2C
:10421000480AF0EE680A0BB0BDEC068BBDE8F083EF
:10422000B0EE4A0AF0EE6A0A02F0AAFD054668BB43
:1042300051EC190B00220023F0F7C6FB0028E6D052
:104240009E4A94F900309E4F0895012100268DE882
:1042500006005A1C8DED02AB8DED049BCDE906677F
:104260000DD0022B0BD0684602F0B8FD002800F0FC
:104270009D80089B1BB103F0ADF9089B03609DED89
:10428000060B0BB0BDEC068BBDE8F08300260027C3
:1042900051EC1A0B32463B46F0F796FBE8B151EC75
:1042A000190B32463B46F0F78FFB0546002854D0E9
:1042B000824A94F900300192012100228DED02AB77
:1042C0008DED049BCDE9066700910892002BCAD0C2
:1042D0007B4B0022CDE90623D1E7B0EE480AF0EE91
:1042E000680A02F045FD0546002864D00026002734
:1042F00051EC180B32463B46F0F766FB002886D09F
:10430000B0EE4A0AF0EE6A0A02F032FD00283FF4ED
:104310007EAFB0EE490AF0EE690A02F029FD0028EE
:104320003FF475AF94F90030644A019204210022F1
:10433000022B8DED02AB8DED049BCDE9066700915C
:10434000089200F08C80684602F048FD002800F0DA
:104350008680089B002B92D08DE7B0EE490AF0EEE4
:10436000690A02F005FD00283FF451AF51EC190B2A
:1043700032463B46F0F732FB00283FF448AF4F4A45
:104380002378089501218DED02AB8DED049B8DE81E
:104390000600002B41D04B490020022BCDE906013D
:1043A00035D103F017F921230360D2E703F012F9A6
:1043B000212303605DE7B0EE4A0AF0EE6A0A02F0DC
:1043C000D7FC002892D0B0EE490AF0EE690A02F05C
:1043D000CFFC00288AD0B0EE480AF0EE680A02F05E
:1043E000CFFCE8B9354B2478089001228DED02AB63
:1043F0008DED049B8DE80C007CB130463946324689
:104400003B46F0F7A3F9022CCDE90601C9D0684676
:1044100002F0E4FC00289CD1C3E7CDE90667F6E78B
:10442000264A94F90030089503218DED02AB8DEDFD
:10443000049B8DE80600BBB9DFF890904FF0604810
:1044400032463B4651EC1A0BCDE90689F0F7C6FA25
:1044500000283FD194F90030022B7FF474AF03F0B1
:10446000B9F82223036074E7DFF864904FF0000886
:1044700032463B4651EC1A0BCDE90689F0F7AEFA0D
:104480000028E7D00022104B51EC190BF0F734F85C
:1044900006460F4647EC106B02F0AAFC324651EC80
:1044A000100B3B46F0F790FA0028D3D1054B0022C1
:1044B000CDE90623CEE700BF29060020E0A80108C9
:1044C0000000F03F0000F0FF0000E03FFFFFEF477B
:1044D0000000F07F00220C4B51EC190BF0F70CF8A8
:1044E00006460F4647EC106B02F082FC324651EC58
:1044F000100B3B46F0F768FA0028ABD1034B4FF0A6
:104500006042CDE90623A5E70000E03FFFFFEFC7CB
:10451000D0B52DED048BB0EE409AF0EE609A294CA8
:104520008AB001F061F894F90030B0EE408AF0EE04
:10453000608A01330FD0B0EE490AF0EE690A02F04A
:104540001FFC40B10026002751EC190B32463B46B8
:10455000F0F744FA38B9B0EE480AF0EE680A0AB04B
:10456000BDEC048BD0BD184B2478019301220023AD
:104570008DED049B8DED029B009208936CB9CDE903
:104580000667684602F02AFC88B1089BA3B99DED36
:10459000060B0AB0BDEC048BD0BD3046394632461E
:1045A0003B46F0F7D3F8022CCDE90601E9D103F040
:1045B00011F821230360E8E703F00CF8089B03607F
:1045C000E5E700BF29060020E4A8010810B52DED9D
:1045D000028B2A4C8AB0F0EE408A01F0D9F894F9A7
:1045E00000300133B0EE408A04D0B0EE680AFFF725
:1045F000DFFC28B9B0EE480A0AB0BDEC028B10BD52
:10460000B0EE680AFFF7CCFCF7EE007AB4EEE70AEA
:10461000F1EE10FAEEDD0123194A009318EE900A2C
:10462000002301920893EFF713FF02460B4615484B
:10463000CDE90423CDE9022302F0D2FB94F9003046
:10464000022B8DED060B0FD0684602F0C7FB58B168
:10465000089B73B9DDE90601F0F7E8F900EE100AEE
:104660000AB0BDEC028B10BD02F0B4FF2123036041
:10467000EEE702F0AFFF089B0360EBE7290600209E
:10468000ECA80108F8A8010801F07EB9F0B52DEDFD
:10469000048BA74C8BB0B0EE409AF0EE608A01F02C
:1046A00029FA94F900300133B0EE408A04D0B0EE1C
:1046B000680AFFF77DFC28B9B0EE480A0BB0BDECE4
:1046C000048BF0BDB0EE490AFFF772FC002835D12B
:1046D000F5EE408AF1EE10FAEED1964B08900122E9
:1046E00019EE100A8DE80C00EFF7B2FECDE90201D9
:1046F00018EE900AEFF7ACFE94F900308E4F0026CA
:104700005A1CCDE90401CDE906670DD0022B0BD070
:10471000684602F063FB002800F0A480089B1BB1F0
:1047200002F058FF089B0360DDE90601F0F77EF90F
:1047300000EE100A0BB0BDEC048BF0BDB5EE409A54
:10474000F1EE10FA23D1F5EE408AF1EE10FA5CD1C9
:104750000123784A009319EE100A0023089301926E
:10476000EFF776FECDE9020118EE900AEFF770FE42
:1047700094F9003000260027CDE90401CDE9066751
:10478000002BC5D06C4B0022CDE90623CCE7B0EE60
:10479000480A02F045FC0546002868D0B5EE408A7C
:1047A000F1EE10FA88D1B0EE490A02F039FC002887
:1047B00082D0B0EE680A02F033FC00283FF47CAFF0
:1047C00004235C4A009319EE100A00230893019217
:1047D000EFF73EFECDE9020118EE900AEFF738FE42
:1047E00094F9003000260027022BCDE90401CDE921
:1047F000066700F09880684602F0F0FA002800F0A2
:104800009280089B002B8FD08AE7B0EE680A02F0F6
:1048100007FC00283FF450AFF5EEC08AF1EE10FA25
:104820007FF54AAF0123434A009319EE100A002393
:1048300008930192EFF70CFECDE9020118EE900A01
:10484000EFF706FE2378CDE90401002B43D03B4966
:104850000020022BCDE9060137D102F0BBFE212357
:104860000360CEE702F0B6FE2123036056E7B0EE08
:10487000490A02F0D5FB002890D0B0EE680A02F099
:10488000CFFB00288AD0B0EE480AFFF791FB38BB77
:10489000284B0890012219EE100A8DE80C00EFF762
:1048A000D7FDCDE9020118EE900AEFF7D1FD24788B
:1048B000CDE904017CB10020002102460B46EFF750
:1048C00045FF022CCDE90601C7D0684602F086FA02
:1048D000002896D1C1E700220023CDE90623F4E7A2
:1048E000144B0895032219EE100A8DE80C00EFF71F
:1048F000AFFDCDE9020118EE900AEFF7A9FD94F99A
:104900000030CDE90401EBB90D4BB5EEC09A4FF084
:104910006042F1EE10FACDE9062337D494F9003065
:10492000022B7FF468AF02F055FE2223036068E794
:1049300029060020F4A801080000F03F0000F0FF65
:10494000FFFFEF471F4BB5EEC09A0022F1EE10FAC1
:10495000CDE90623E2D5F6EE007A68EEA77A17EEE7
:10496000900AEFF775FD06460F4647EC106B02F014
:104970003FFA3046394653EC102BF0F725F8002863
:10498000CCD1114B0022CDE90623C7E7F6EE007A21
:1049900068EEA77A17EE900AEFF75AFD06460F4623
:1049A00047EC106B02F024FA3046394653EC102BDA
:1049B000F0F70AF80028B1D1044B4FF06042CDE97E
:1049C0000623ABE70000F07F0000F0FFFFFFEFC71A
:1049D0002DE9F84355EC104BB5F5801F2B4620DA36
:1049E00010EE102A25F000410A4360D0002D10EE91
:1049F000100A294665DB00223F4BEFF77DFD0B4691
:104A00000D463E498B4204466FF035020EDD2046CE
:104A1000294622462B46EFF7BDFB41EC100BBDE8C3
:104A2000F88336498B424FF00002F0DC1815A0F2F3
:104A3000FF3010444FEAD0794844C3F31308EFF72E
:104A4000F5FCC9F57F73033348EA035545EC104B79
:104A500006460F4602F0A4FB3046394620A3D3E9B0
:104A6000002359EC108BEFF747FD1FA3D3E9002378
:104A700004460D4630463946EFF73EFD1CA3D3E908
:104A8000002306460F4640464946EFF735FD0246ED
:104A90000B4630463946EFF77DFB02460B46204673
:104AA0002946EFF777FB41EC100BBDE8F8830022B5
:104AB000002300201249EFF749FE41EC100BBDE83E
:104AC000F88322462B46EFF763FB00220023EFF723
:104AD0003DFE41EC100BBDE8F88300BFAFF3008052
:104AE00000609F501344D33F362BF111F3FE593D24
:104AF0000EE526157BCBDB3F00005043FFFFEF7F29
:104B0000000050C3AFF300802DE9F04F55EC114B7E
:104B100025F0004757EA040191B02A4611EE103AF9
:104B200037D05BEC10AB6A492BF000468E4210EE9A
:104B300010CAD94626DC22D08F4223DC64498F423A
:104B40007CD0B9F1000F7CDB4FF0000883BB604BD9
:104B50009F4200F093805F4B9F4269D0B2F1804F3B
:104B600000F0F0835C4B9A4222D1B9F1000F1FDBB9
:104B70004BEC10AB11B0BDE8F04F00F035BDBAF111
:104B8000000F0BD006F1404606F5801656EA0C03DE
:104B900006D19FED4B0B11B0BDE8F08FB742CDDDD4
:104BA0004E4811B0BDE8F04F02F01AB94FF00008BE
:104BB0004BEC10ABCDF808C0009202F0D1F8DDF854
:104BC00008C0009A51EC100BBCF1000F20D04FEA46
:104BD000D97909F1FF3958EA090363D0404B9F4264
:104BE00040F3848003F104739F4240F32F843D4BD4
:104BF0009E4240F38F83002A40F38F8332A1D1E994
:104C0000000102460B46EFF777FC41EC100BC2E7C0
:104C100026B1304B29F0404E9E45D8D1002AC0F233
:104C2000D083B9F1000FC0F27B8341EC100BB2E7E7
:104C3000002AC0F277844BEC10ABACE7002B80D09D
:104C4000A0E729498F422ADCA1F154718F427FF7F6
:104C50007BAF391540F21340814240F37D84C1F5AA
:104C60008661033123FA01F000FA01F199427FF4E1
:104C70006BAF00F00100C0F1020867E706F14043A6
:104C800003F5801353EA0C0383D0164B9E4240F386
:104C90008E83002AC0F2418345EC104B7BE74FF036
:104CA000020853E75046594602460B46EFF770FAA2
:104CB00002460B46EFF74AFDB7E700BFAFF30080AF
:104CC000000000000000F03F9C7500883CE4377E47
:104CD0000000F07F0000F03F0000E03FF8A801086E
:104CE0000000E041FFFFEF3FFFFF3F43B6F5801FAD
:104CF00080F215840022CE4BEFF7FEFB6FF03407F5
:104D00000E463315DFF844E3C6F31302A3F2FF3374
:104D100042F07F563B4472450E9346F4401640F3F2
:104D2000FB83C44B9A4240F32F840E9B0027013330
:104D30000E93A6F58016BC46BF4B4FEACC0C6344DD
:104D400093ED007B314653EC172BCDF83CC08DED35
:104D5000067B8246EFF71CFAB346DDE90623CDE970
:104D6000080150463146CDE90AABEFF713FA024687
:104D70000B460020B149EFF7E9FC02460B46DDE99E
:104D80000801CDE90C23EFF7B7FB731043F0005394
:104D900003F5002382468B46D9190023CDE902ABE7
:104DA00002939DED027B002006460F4602460B460D
:104DB00051EC170B8DED007BCDE904ABEFF79CFBBD
:104DC00002460B46DDE90801EFF7E2F9DDE90623CB
:104DD00082468B4630463946EFF7DAF902460B46F3
:104DE000DDE90A01EFF7D4F902460B46DDE90001DF
:104DF000EFF782FB02460B4650465946EFF7C8F9DB
:104E0000DDE90C23EFF778FBDDE90423CDE90601AA
:104E100010461946EFF770FB02460B4606460F4652
:104E2000EFF76AFB70A3D3E9002382468B46304636
:104E30003946EFF761FB6EA3D3E90023EFF7AAF938
:104E400032463B46EFF758FB6BA3D3E90023EFF75D
:104E5000A1F932463B46EFF74FFB69A3D3E90023A4
:104E6000EFF798F932463B46EFF746FB66A3D3E9E6
:104E70000023EFF78FF932463B46EFF73DFB64A383
:104E8000D3E90023EFF786F902460B465046594610
:104E9000EFF732FBDDE9042306460F46DDE90001AA
:104EA000EFF778F9DDE90623EFF726FB32463B46BC
:104EB000EFF770F9DDE9006782468B4632463B46E4
:104EC00030463946EFF718FB00225D4BCDE908016B
:104ED000EFF760F952465B46EFF75CF902980F4630
:104EE00006463246DDE900013B46EFF705FB324658
:104EF0003B46CDE90001DDE90601EFF7FDFA0022AE
:104F0000CDE906014E4B30463946EFF741F9DDE970
:104F10000823EFF73DF902460B4650465946EFF796
:104F200037F9DDE90423EFF7E7FA02460B46DDE93E
:104F30000601EFF72FF982468B4652465B46DDE9C4
:104F40000001EFF727F9029833A3D3E900230646BF
:104F50000F46EFF7D1FA32A3D3E90023CDE90401DC
:104F600030463946EFF7C8FADDE90023CDE90601FE
:104F700030463946EFF70CF902460B465046594683
:104F8000EFF706F928A3D3E90023EFF7B5FA0246B5
:104F90000B46DDE90601EFF7FDF8DDF83CC0294BD3
:104FA000CDF800C06344D3E90023EFF7F3F882465D
:104FB0000E988B46EFF73AFA234BDDF800C09C447D
:104FC0009CED007B06460F4652465B46DDE9040138
:104FD0008DED007BCDE906ABEFF7DCF8DDE90023D2
:104FE000EFF7D8F8324633E0EF4E454A287ECA3F05
:104FF00065DBC9934A86CD3F01411DA96074D13F4D
:105000004D268F515555D53FFFAB6FDBB66DDB3F5E
:10501000033333333333E33F000000E009C7EE3F8F
:10502000F5015B14E02F3EBEFD033ADC09C7EE3FFD
:105030000000404379B60B0020A901080000F03FB2
:105040000000084010A9010800A901088E9803007B
:105050003B46EFF79FF8029832463B4682468B4626
:10506000EFF796F8DDE90023EFF792F8DDE9042386
:10507000EFF78EF802460B46DDE90601EFF788F8F8
:10508000CDE9020108F1FF3858EA090340F08A81AE
:105090009FEDCF7B8DED047B0023CDE90045009390
:1050A000DDE90067204632463B462946EFF770F8B7
:1050B00052465B46EFF720FADDE902238046894637
:1050C00020462946EFF718FA02460B464046494665
:1050D000EFF760F8524604460D46304639465B46C7
:1050E000CDE90245EFF708FA06460F462046294665
:1050F0003B463246EFF74EF8CF4B994204460D46F9
:105100008A4640F3288101F13F4303F5E00303435E
:1051100040F01282B0A3D3E90023DDE90201EFF7EA
:1051200039F83246804689463B4620462946EFF705
:105130002FF802460B4640464946EFF76DFC002823
:1051400040F0FA81A8464FEA2852A2F2FE324FF40C
:10515000801313415344C3F30A54B84AA4F2FF31F5
:105160000A4123EA020100200246C3F3130B304632
:105170000B463946EFF70CF8C4F5826403344BF460
:10518000801B4BFA04FB8BEAEA7B06460F460BEBCF
:10519000DA7BDDE9020132463B464FEA0B5AEEF775
:1051A000F9FF00248EA3D3E9002320460D46EFF734
:1051B000A3F93246804689463B4620462946EEF70B
:1051C000E7FF02460B46DDE90201EEF7E1FF86A3A9
:1051D000D3E90023EFF790F985A3D3E9002306462E
:1051E0000F4620462946EFF787F902460B46304620
:1051F0003946EEF7CFFF06460F4632463B4640465D
:105200004946EEF7C7FF42464B4604460D46EEF7C9
:10521000BFFF02460B4630463946EEF7B9FF22463D
:10522000804689462B4620462946EFF765F972A34A
:10523000D3E9002306460F46EFF75EF970A3D3E9E2
:105240000023EEF7A5FF32463B46EFF755F96EA374
:10525000D3E90023EEF79EFF32463B46EFF74CF9C9
:105260006BA3D3E90023EEF793FF32463B46EFF7FB
:1052700043F969A3D3E90023EEF78CFF32463B469E
:10528000EFF73AF902460B4620462946EEF780FF33
:1052900006460F4632463B4620462946EFF72CF994
:1052A0000022CDE900014FF0804330463946EEF749
:1052B0006FFF02460B46DDE90001EFF747FA424671
:1052C00006460F464B4620462946EFF715F942465B
:1052D0004B46EEF75FFF02460B4630463946EEF787
:1052E00057FF22462B46EEF753FF02460B4600209F
:1052F0005349EEF74DFF8A44BAF5801F02460B462C
:10530000C0F248815346DDE90401EFF7F5F841ECBE
:10531000100B40E4002AFFF671AC9FED410B3AE41C
:1053200006F1404606F5801658EA06033FF4BCAC89
:10533000B8F1010F7FF479AC024601F1004343EC70
:10534000102B28E45046594652465B46EFF7D4F8F6
:1053500041EC100B1FE43B4B21F00048984540F313
:105360000A81394B0B4403430CD132463B46EEF7DE
:105370000FFF02460B46DDE90201EFF739FB00287B
:105380003FF4E1AE28A3D3E90023DDE90401EFF700
:10539000B3F825A3D3E90023EFF7AEF841EC100BE7
:1053A000FFF7F9BB9FED227B8DED047B74E6002AAD
:1053B000B3DA05F1004300EE104A00EE903AFFF731
:1053C000EABB02460B4600201D49EFF7BFF928E46F
:1053D000000000000000F0BFFE822B654715973CDF
:1053E00000000000432EE63FEF39FAFE422EE63F72
:1053F000396CA80C615C20BED0A4BE726937663ED1
:10540000F16BD2C541BDBB3E2CDE25AF6A56113FC4
:1054100093BDBE166CC1663F3E5555555555C53FAB
:10542000000000000000000059F3F8C21F6EA50143
:10543000000000000000F03FFFFF8F40FFFF0F0063
:105440000000F03FFFCB904000346F3F624B9E4224
:105450007FF760AF614B9E423FF7CDAB00225F4BC1
:10546000EEF796FE52A3D3E9002306460F46EFF768
:1054700043F851A3D3E90023CDE900013046394672
:10548000EFF73AF83246CDE902013B46304639465D
:10549000EFF732F8002282468B4630463946504BB1
:1054A000EFF72AF802460B4645A1D1E90001EEF7D5
:1054B0006FFE32463B46EFF71FF802460B460020D0
:1054C0004849EEF765FE02460B4650465946EFF74F
:1054D00013F83DA3D3E90023EFF70EF802460B467D
:1054E000DDE90201EEF754FE06460F4632463B4622
:1054F000DDE90001EEF74EFEDDE9002300208246E3
:105500008B46EEF745FE02460B4630463946EEF72F
:105510003FFECDE90201B5E50027BC460CE40027BB
:10552000FFF7EFBB52465B4600202C49EFF70EF920
:1055300041EC100BFFF72FBB25A3D3E90023DDE9D6
:105540000401EEF7D9FF22A3D3E90023EEF7D4FF3D
:1055500041EC100BFFF71FBB002B7FF427ABC1F50D
:105560008261033147FA01F000FA01F1B94219D022
:105570009846FFF7F0BA1B4B98453FF7E4ADDDE9DD
:105580000023924693460CE64FF480274FF0010C1F
:10559000FFF7D2BB43EC102B584601F0BDFC53EC97
:1055A000102BB0E600F00100C0F10208FFF7D3BAFB
:1055B000000000604715F73F44DF5DF80BAE543E36
:1055C000555555555555D53FFE822B654715F73F27
:1055D0009C7500883CE4377EFEFFEF3F0000F03F03
:1055E0000000D03F0000E03F2DE9F041674955EC55
:1055F000104B0E462940B1422B4610EE100A00F027
:105600009880002D224677DD2F1500F08280A7F2CA
:10561000FF37C3F31303F90743F4801367D4D10FA3
:10562000002601EB43037F105200B64616204FF4CC
:1056300000110EEB01049C424FEAD2754FEA420280
:1056400003DC1B1B04EB010E0E44013805EB430386
:105650004FEA5101EDD1844620254FF000410AE088
:10566000734521D0D40F013D4FEA510104EB4303B0
:105670004FEA420221D09E450CEB0104F0DA002CE7
:1056800004EB010C0ADBF046CEEB0303944288BF27
:1056900003F1FF33121B0844C646E3E7BCF1000FD9
:1056A000F1DB0EF10108EFE794421ED8002C04EB69
:1056B000010C4EDB98460023ECE7134304D0421C58
:1056C0004DD000F00103184440087110F30701F1B8
:1056D0007F5101F5001148BF40F0004001EB075336
:1056E000024643EC102BBDE8F0819E46BAE7D10F8D
:1056F00001EB4303520092E725F00041214326D0FD
:10570000A5BB2F46D30A153F5205002BFAD0DC0269
:1057100028D400215B00D80201F10101FAD5C1F1C2
:105720000100C1F1200422FA04F4234307448A4013
:105730006DE710EE102A2B462946EEF7DDFE2246D5
:105740002B46EEF727FD41EC100BBDE8F081BDE8DC
:10575000F081BCF1000FA4DAF04600239AE701368D
:105760002846B2E7202401200021DCE710EE100AD1
:1057700022462B462946EEF70BFD02460B46EEF776
:10578000E5FF41EC100BBDE8F08100BF0000F07FA9
:1057900038B510EE105A25F00044B4F17E5F2DEDBF
:1057A000048B00F0918079DCB4F17C5F0EDAB4F107
:1057B000485F80F29680DFED647A70EE277AB7EE6C
:1057C000007AF4EEC77AF1EE10FA6BDCFEF7E8FB34
:1057D000F7EE008A38EEC00AF6EE007A20EE278A4D
:1057E0009FED5A3A9FED5A4ADFED5A3A9FED5A5AC9
:1057F000DFED5A4A9FED5A6ADFED5A5ADFED5A6AD9
:105800009FED5A7ADFED5A7AA8EE034AE8EE234A72
:10581000A4EE085AE4EE885AA5EE086AA5EE887A46
:10582000E6EE086AE7EE088AE6EE887AB0EE480A05
:10583000B0EE689A67EE888A00F09CFD4D4B9C4262
:1058400033DC10EE103A23F47F6323F00F0307EEEE
:10585000903AB1EE676AA6EE278A70EE277AC8EE14
:10586000898A88EE278A9FED447ADFED447AF0EE4C
:10587000006AA8EE667A30EE000AF0EE675AE6EEAD
:10588000265A90EE287A37EE650A37EEC00ABDEC4C
:10589000048B002DD8BFB1EE400A38BD30EE400A6F
:1058A00080EE000ABDEC048B38BDC8EE898A9FEDFE
:1058B000347ADFED347AA0EE280AF0EE006AA0EE2A
:1058C000267A37EEC70AE2E7DFED2B7A9FED2D7AD5
:1058D00060EE277ABDEC048BE0EE077AB0EE670A43
:1058E00038BD60EE007ADFED192ADFED193ADFED01
:1058F0001A4A9FED183A9FED194ADFED196A9FED9C
:10590000195ADFED195A9FED196A9FED197AE7EEE2
:10591000A23ABDEC048BE3EEA74AA7EE834AE4EE7D
:10592000A76AA4EE275AE6EEA75AA5EE276AA5EEC7
:10593000A77AF7EE006AE6EE276A67EE277AC7EEE7
:10594000A67AA0EE270A38BDCAF2497108EF1138CD
:10595000047F4F3A2EC69D3D461124BD613330BFB2
:10596000A80A4E3E2D57014090B0A6BE39D119C0AD
:10597000ABAA2A3E9999793F2EBD3BB3DB0F493F35
:105980002EBD3B33DB0FC93F10B582B0CDED010A10
:10599000019B23F00042B2F1FF4FF0EE407A19DC98
:1059A00010EE100A20F00041B1F1FF4F12DCB3F10C
:1059B0007E5F49D09C1704F0020444EAD07479B9A0
:1059C000022C3ED09FED400A032C18BFB0EE670AB0
:1059D00002B010BD9DED017A37EE270A02B010BD6E
:1059E00012B3B2F1FF4F34D0B1F1FF4F1CD08A1A7D
:1059F000D2153C2A22DC002B4BDB9DED017A87EE91
:105A0000870AFEF7CDFAFEF7B3F9012C3AD0022C43
:105A10002FD0002CE2D09FED2D7ADFED2D7A30EEE5
:105A2000070A30EE670AD9E7DFED2A7A9FED2A0AE6
:105A30000028A8BFB0EE670A02B010BD9FED250A8E
:105A4000E3E79FED230AC9E702B0BDE81040FEF787
:105A50008FB9B1F1FF4F21D0022CF2D0032C2AD004
:105A6000DFED1E7A9FED1E0A012C08BFB0EE670A1B
:105A7000B4E79FED167ADFED167A30EE070A37EEBF
:105A8000C00AABE710EE103A03F1004300EE103A03
:105A9000A4E73C32B1DA9FED120AB6E7022C10D02F
:105AA000032C0BD0DFED0F7A9FED0F0A012C08BFFE
:105AB000B0EE670A92E79FED040A8FE79FED0B0AAD
:105AC0008CE79FED0B0A89E7DB0F49C02EBDBB3386
:105AD000DB0F4940DB0FC93FDB0FC9BF000000806F
:105AE00000000000DB0F49BFDB0F493FE4CB16C0CD
:105AF000E4CB16402DE9F0432DED028B10EE905AC9
:105B000083B035F0004610EE904A8DED010A14D0B6
:105B1000DDF8048028F00047B7F1FF4F07DD574854
:105B200003B0BDEC028BBDE8F04301F0CBBAB6F197
:105B3000FF4F09DDB7F17E5FF1D1B7EE000A03B088
:105B4000BDEC028BBDE8F083B8F1000F52DB4FF0E3
:105B50000009B6F1FF4F44D0B6F17E5F5DD0B4F1DD
:105B6000804F69D0B4F17C5F9DED010A1BD0FEF738
:105B700017FAB7F1FF4F2AD04FB3B7F17E5F26D0A7
:105B80004FEAD873013B59EA03026FD0B6F19A4F3E
:105B90007CDD3B4A974200F3DB81002CC0F2DE81C2
:105BA0009FED380ACBE7B8F1000F4ADAFEF7F8F9B3
:105BB000B7F1FF4F01D0002FDFD1A7F17E5759EA8F
:105BC00007034CD130EE400A80EE000AB7E7002C04
:105BD000BCBFF7EE007A87EE800AB8F1000FAEDAAC
:105BE000EBE7B7F17E5FA8D01FDD002CD8DB00EE1D
:105BF000105AA4E7B6F1974F14DAB6F17E5F09DBCD
